{
	"data": {
		"bytecode": {
			"linkReferences": {},
			"object": "61018060405234801562000011575f80fd5b5060405162007cd538038062007cd5833981810160405281019062000037919062000b79565b600481600161b2fa5f6040518060400160405280600e81526020017f4c6f776b6579476f7665726e6f720000000000000000000000000000000000008152508062000087620001ce60201b60201c565b6200009c5f836200020b60201b90919060201c565b6101208181525050620000ba6001826200020b60201b90919060201c565b6101408181525050818051906020012060e08181525050808051906020012061010081815250504660a08181525050620000f96200026060201b60201c565b608081815250503073ffffffffffffffffffffffffffffffffffffffff1660c08173ffffffffffffffffffffffffffffffffffffffff16815250505050806003908162000147919062000e0d565b50506200015a83620002bc60201b60201c565b6200016b826200033160201b60201c565b6200017c81620003ef60201b60201c565b5050508073ffffffffffffffffffffffffffffffffffffffff166101608173ffffffffffffffffffffffffffffffffffffffff168152505050620001c6816200043660201b60201c565b5050620013e9565b60606040518060400160405280600181526020017f3100000000000000000000000000000000000000000000000000000000000000815250905090565b5f602083511015620002305762000228836200051f60201b60201c565b90506200025a565b8262000242836200058960201b60201c565b5f01908162000252919062000e0d565b5060ff5f1b90505b92915050565b5f7f8b73c3c69bb8fe3d512ecc4cf759cc79239f7b179b0ffacaa9a75d522b39400f60e051610100514630604051602001620002a195949392919062000f2d565b60405160208183030381529060405280519060200120905090565b7fc565b045403dc03c2eea82b81a0465edad9e2e7fc4d97e11421c209da93d7a9360085f9054906101000a900465ffffffffffff16826040516200030292919062000fd1565b60405180910390a18060085f6101000a81548165ffffffffffff021916908365ffffffffffff16021790555050565b5f8163ffffffff16036200037e575f6040517ff1cfbf050000000000000000000000000000000000000000000000000000000081526004016200037591906200103d565b60405180910390fd5b7f7e3f7f0708a84de9203036abaa450dccc85ad5ff52f78c170f3edb55cf5e8828600860069054906101000a900463ffffffff1682604051620003c39291906200109f565b60405180910390a180600860066101000a81548163ffffffff021916908363ffffffff16021790555050565b7fccb45da8d5717e6c4544694297c4ba5cf151d455c9bb0ed4fc7a38411bc054616007548260405162000424929190620010ca565b60405180910390a18060078190555050565b5f620004476200059260201b60201c565b905080821115620004935781816040517f243e54450000000000000000000000000000000000000000000000000000000081526004016200048a929190620010ca565b60405180910390fd5b5f620004a46200059a60201b60201c565b9050620004dd620004ba620005ce60201b60201c565b620004cb856200066e60201b60201c565b600a620006de60201b9092919060201c565b50507f0553476bf02ef2726e8ce5ced78d63e26e602e4a2257b1f559418e24b4633997818460405162000512929190620010ca565b60405180910390a1505050565b5f80829050601f815111156200056e57826040517f305a27a90000000000000000000000000000000000000000000000000000000081526004016200056591906200117f565b60405180910390fd5b8051816200057c90620011d0565b5f1c175f1b915050919050565b5f819050919050565b5f6064905090565b5f620005ad600a6200070160201b60201c565b79ffffffffffffffffffffffffffffffffffffffffffffffffffff16905090565b5f620005df6200076f60201b60201c565b73ffffffffffffffffffffffffffffffffffffffff166391ddadf46040518163ffffffff1660e01b8152600401602060405180830381865afa9250505080156200064957506040513d601f19601f820116820180604052508101906200064691906200126e565b60015b62000666576200065e6200077960201b60201c565b90506200066b565b809150505b90565b5f79ffffffffffffffffffffffffffffffffffffffffffffffffffff8016821115620006d65760d0826040517f6dfcc650000000000000000000000000000000000000000000000000000000008152600401620006cd929190620012eb565b60405180910390fd5b819050919050565b5f80620006f5855f0185856200079060201b60201c565b91509150935093915050565b5f80825f018054905090505f8114620007655762000736835f016001836200072a919062001343565b62000a9360201b60201c565b5f0160069054906101000a900479ffffffffffffffffffffffffffffffffffffffffffffffffffff1662000767565b5f5b915050919050565b5f61016051905090565b5f6200078b4362000aa560201b60201c565b905090565b5f805f858054905090505f811115620009ab575f620007c487600184620007b8919062001343565b62000a9360201b60201c565b90505f815f015f9054906101000a900465ffffffffffff1690505f825f0160069054906101000a900479ffffffffffffffffffffffffffffffffffffffffffffffffffff1690508765ffffffffffff168265ffffffffffff16111562000856576040517f2520601d00000000000000000000000000000000000000000000000000000000815260040160405180910390fd5b8765ffffffffffff168265ffffffffffff1603620008c25786835f0160066101000a81548179ffffffffffffffffffffffffffffffffffffffffffffffffffff021916908379ffffffffffffffffffffffffffffffffffffffffffffffffffff1602179055506200099b565b8860405180604001604052808a65ffffffffffff1681526020018979ffffffffffffffffffffffffffffffffffffffffffffffffffff16815250908060018154018082558091505060019003905f5260205f20015f909190919091505f820151815f015f6101000a81548165ffffffffffff021916908365ffffffffffff1602179055506020820151815f0160066101000a81548179ffffffffffffffffffffffffffffffffffffffffffffffffffff021916908379ffffffffffffffffffffffffffffffffffffffffffffffffffff16021790555050505b8087955095505050505062000a8b565b8560405180604001604052808765ffffffffffff1681526020018679ffffffffffffffffffffffffffffffffffffffffffffffffffff16815250908060018154018082558091505060019003905f5260205f20015f909190919091505f820151815f015f6101000a81548165ffffffffffff021916908365ffffffffffff1602179055506020820151815f0160066101000a81548179ffffffffffffffffffffffffffffffffffffffffffffffffffff021916908379ffffffffffffffffffffffffffffffffffffffffffffffffffff16021790555050505f8492509250505b935093915050565b5f825f528160205f2001905092915050565b5f65ffffffffffff801682111562000af9576030826040517f6dfcc65000000000000000000000000000000000000000000000000000000000815260040162000af0929190620013be565b60405180910390fd5b819050919050565b5f80fd5b5f73ffffffffffffffffffffffffffffffffffffffff82169050919050565b5f62000b308262000b05565b9050919050565b5f62000b438262000b24565b9050919050565b62000b558162000b37565b811462000b60575f80fd5b50565b5f8151905062000b738162000b4a565b92915050565b5f6020828403121562000b915762000b9062000b01565b5b5f62000ba08482850162000b63565b91505092915050565b5f81519050919050565b7f4e487b71000000000000000000000000000000000000000000000000000000005f52604160045260245ffd5b7f4e487b71000000000000000000000000000000000000000000000000000000005f52602260045260245ffd5b5f600282049050600182168062000c2557607f821691505b60208210810362000c3b5762000c3a62000be0565b5b50919050565b5f819050815f5260205f209050919050565b5f6020601f8301049050919050565b5f82821b905092915050565b5f6008830262000c9f7fffffffffffffffffffffffffffffffffffffffffffffffffffffffffffffffff8262000c62565b62000cab868362000c62565b95508019841693508086168417925050509392505050565b5f819050919050565b5f819050919050565b5f62000cf562000cef62000ce98462000cc3565b62000ccc565b62000cc3565b9050919050565b5f819050919050565b62000d108362000cd5565b62000d2862000d1f8262000cfc565b84845462000c6e565b825550505050565b5f90565b62000d3e62000d30565b62000d4b81848462000d05565b505050565b5b8181101562000d725762000d665f8262000d34565b60018101905062000d51565b5050565b601f82111562000dc15762000d8b8162000c41565b62000d968462000c53565b8101602085101562000da6578190505b62000dbe62000db58562000c53565b83018262000d50565b50505b505050565b5f82821c905092915050565b5f62000de35f198460080262000dc6565b1980831691505092915050565b5f62000dfd838362000dd2565b9150826002028217905092915050565b62000e188262000ba9565b67ffffffffffffffff81111562000e345762000e3362000bb3565b5b62000e40825462000c0d565b62000e4d82828562000d76565b5f60209050601f83116001811462000e83575f841562000e6e578287015190505b62000e7a858262000df0565b86555062000ee9565b601f19841662000e938662000c41565b5f5b8281101562000ebc5784890151825560018201915060208501945060208101905062000e95565b8683101562000edc578489015162000ed8601f89168262000dd2565b8355505b6001600288020188555050505b505050505050565b5f819050919050565b62000f058162000ef1565b82525050565b62000f168162000cc3565b82525050565b62000f278162000b24565b82525050565b5f60a08201905062000f425f83018862000efa565b62000f51602083018762000efa565b62000f60604083018662000efa565b62000f6f606083018562000f0b565b62000f7e608083018462000f1c565b9695505050505050565b5f65ffffffffffff82169050919050565b5f62000fb962000fb362000fad8462000f88565b62000ccc565b62000cc3565b9050919050565b62000fcb8162000f99565b82525050565b5f60408201905062000fe65f83018562000fc0565b62000ff5602083018462000fc0565b9392505050565b5f819050919050565b5f620010256200101f620010198462000ffc565b62000ccc565b62000cc3565b9050919050565b620010378162001005565b82525050565b5f602082019050620010525f8301846200102c565b92915050565b5f63ffffffff82169050919050565b5f62001087620010816200107b8462001058565b62000ccc565b62000cc3565b9050919050565b620010998162001067565b82525050565b5f604082019050620010b45f8301856200108e565b620010c360208301846200108e565b9392505050565b5f604082019050620010df5f83018562000f0b565b620010ee602083018462000f0b565b9392505050565b5f82825260208201905092915050565b5f5b838110156200112457808201518184015260208101905062001107565b5f8484015250505050565b5f601f19601f8301169050919050565b5f6200114b8262000ba9565b620011578185620010f5565b93506200116981856020860162001105565b62001174816200112f565b840191505092915050565b5f6020820190508181035f8301526200119981846200113f565b905092915050565b5f81519050919050565b5f819050602082019050919050565b5f620011c7825162000ef1565b80915050919050565b5f620011dc82620011a1565b82620011e884620011ab565b9050620011f581620011ba565b925060208210156200123857620012337fffffffffffffffffffffffffffffffffffffffffffffffffffffffffffffffff8360200360080262000c62565b831692505b5050919050565b6200124a8162000f88565b811462001255575f80fd5b50565b5f8151905062001268816200123f565b92915050565b5f6020828403121562001286576200128562000b01565b5b5f620012958482850162001258565b91505092915050565b5f819050919050565b5f60ff82169050919050565b5f620012d3620012cd620012c7846200129e565b62000ccc565b620012a7565b9050919050565b620012e581620012b3565b82525050565b5f604082019050620013005f830185620012da565b6200130f602083018462000f0b565b9392505050565b7f4e487b71000000000000000000000000000000000000000000000000000000005f52601160045260245ffd5b5f6200134f8262000cc3565b91506200135c8362000cc3565b925082820390508181111562001377576200137662001316565b5b92915050565b5f819050919050565b5f620013a6620013a06200139a846200137d565b62000ccc565b620012a7565b9050919050565b620013b88162001386565b82525050565b5f604082019050620013d35f830185620013ad565b620013e2602083018462000f0b565b9392505050565b60805160a05160c05160e05161010051610120516101405161016051616890620014455f395f611f2401525f612d9d01525f612d6201525f613f4901525f613f2801525f61328201525f6132d801525f61330101526168905ff3fe60806040526004361061028b575f3560e01c80637d5e81e211610159578063bc197c81116100c0578063e540d01d11610079578063e540d01d14610b68578063eb9019d414610b90578063ece40cc114610bcc578063f23a6e6114610bf4578063f8ce560a14610c30578063fc0c546a14610c6c576102fe565b8063bc197c8114610a44578063c01f9e3714610a80578063c28bc2fa14610abc578063c59057e414610ad8578063dd4e2ba514610b14578063deaaa7cc14610b3e576102fe565b80639a802a6d116101125780639a802a6d14610900578063a7713a701461093c578063a8f8a66814610966578063a9a95294146109a2578063ab58fb8e146109de578063b58131b014610a1a576102fe565b80637d5e81e2146107c85780637ecebe001461080457806384b0196e146108405780638ff262e31461087057806391ddadf4146108ac57806397c3d334146108d6576102fe565b80633e4f49e6116101fd57806356781388116101b657806356781388146106745780635b8d0e0d146106b05780635f398a14146106ec57806360c4247f1461072857806379051887146107645780637b3c71d31461078c576102fe565b80633e4f49e61461052e578063438596321461056a578063452115d6146105a65780634bf5d7e9146105e2578063544ffc9c1461060c57806354fd4d501461064a576102fe565b8063150b7a021161024f578063150b7a02146103f6578063160cbed7146104325780632656227d1461046e5780632d63f6931461049e5780632fe3e261146104da5780633932abb114610504576102fe565b806301ffc9a71461030257806302a251a31461033e57806306f3f9e61461036857806306fdde0314610390578063143489d0146103ba576102fe565b366102fe573073ffffffffffffffffffffffffffffffffffffffff166102af610c96565b73ffffffffffffffffffffffffffffffffffffffff16146102fc576040517fe90a651e00000000000000000000000000000000000000000000000000000000815260040160405180910390fd5b005b5f80fd5b34801561030d575f80fd5b50610328600480360381019061032391906145ec565b610c9d565b6040516103359190614631565b60405180910390f35b348015610349575f80fd5b50610352610def565b60405161035f9190614662565b60405180910390f35b348015610373575f80fd5b5061038e600480360381019061038991906146a5565b610dfd565b005b34801561039b575f80fd5b506103a4610e11565b6040516103b1919061475a565b60405180910390f35b3480156103c5575f80fd5b506103e060048036038101906103db91906146a5565b610ea1565b6040516103ed91906147b9565b60405180910390f35b348015610401575f80fd5b5061041c60048036038101906104179190614928565b610edc565b60405161042991906149b7565b60405180910390f35b34801561043d575f80fd5b5061045860048036038101906104539190614c65565b610f5b565b6040516104659190614662565b60405180910390f35b61048860048036038101906104839190614c65565b611051565b6040516104959190614662565b60405180910390f35b3480156104a9575f80fd5b506104c460048036038101906104bf91906146a5565b611231565b6040516104d19190614662565b60405180910390f35b3480156104e5575f80fd5b506104ee611267565b6040516104fb9190614d2c565b60405180910390f35b34801561050f575f80fd5b5061051861128b565b6040516105259190614662565b60405180910390f35b348015610539575f80fd5b50610554600480360381019061054f91906146a5565b611299565b6040516105619190614db8565b60405180910390f35b348015610575575f80fd5b50610590600480360381019061058b9190614dd1565b6113f0565b60405161059d9190614631565b60405180910390f35b3480156105b1575f80fd5b506105cc60048036038101906105c79190614c65565b611455565b6040516105d99190614662565b60405180910390f35b3480156105ed575f80fd5b506105f66114d5565b604051610603919061475a565b60405180910390f35b348015610617575f80fd5b50610632600480360381019061062d91906146a5565b611592565b60405161064193929190614e0f565b60405180910390f35b348015610655575f80fd5b5061065e6115c5565b60405161066b919061475a565b60405180910390f35b34801561067f575f80fd5b5061069a60048036038101906106959190614e7a565b611602565b6040516106a79190614662565b60405180910390f35b3480156106bb575f80fd5b506106d660048036038101906106d19190614f11565b611631565b6040516106e39190614662565b60405180910390f35b3480156106f7575f80fd5b50610712600480360381019061070d9190614ff3565b611760565b60405161071f9190614662565b60405180910390f35b348015610733575f80fd5b5061074e600480360381019061074991906146a5565b6117c8565b60405161075b9190614662565b60405180910390f35b34801561076f575f80fd5b5061078a600480360381019061078591906150ce565b6117db565b005b348015610797575f80fd5b506107b260048036038101906107ad91906150f9565b6117ef565b6040516107bf9190614662565b60405180910390f35b3480156107d3575f80fd5b506107ee60048036038101906107e99190615208565b611855565b6040516107fb9190614662565b60405180910390f35b34801561080f575f80fd5b5061082a600480360381019061082591906152dc565b61194b565b6040516108379190614662565b60405180910390f35b34801561084b575f80fd5b50610854611991565b60405161086797969594939291906153f8565b60405180910390f35b34801561087b575f80fd5b506108966004803603810190610891919061547a565b611a36565b6040516108a39190614662565b60405180910390f35b3480156108b7575f80fd5b506108c0611b0a565b6040516108cd9190615509565b60405180910390f35b3480156108e1575f80fd5b506108ea611b95565b6040516108f79190614662565b60405180910390f35b34801561090b575f80fd5b5061092660048036038101906109219190615522565b611b9d565b6040516109339190614662565b60405180910390f35b348015610947575f80fd5b50610950611bb2565b60405161095d9190614662565b60405180910390f35b348015610971575f80fd5b5061098c60048036038101906109879190614c65565b611bde565b6040516109999190614662565b60405180910390f35b3480156109ad575f80fd5b506109c860048036038101906109c391906146a5565b611bf5565b6040516109d59190614631565b60405180910390f35b3480156109e9575f80fd5b50610a0460048036038101906109ff91906146a5565b611bfb565b604051610a119190614662565b60405180910390f35b348015610a25575f80fd5b50610a2e611c31565b604051610a3b9190614662565b60405180910390f35b348015610a4f575f80fd5b50610a6a6004803603810190610a65919061558e565b611c3f565b604051610a7791906149b7565b60405180910390f35b348015610a8b575f80fd5b50610aa66004803603810190610aa191906146a5565b611cbf565b604051610ab39190614662565b60405180910390f35b610ad66004803603810190610ad191906156ae565b611d29565b005b348015610ae3575f80fd5b50610afe6004803603810190610af99190614c65565b611db2565b604051610b0b9190614662565b60405180910390f35b348015610b1f575f80fd5b50610b28611dec565b604051610b35919061475a565b60405180910390f35b348015610b49575f80fd5b50610b52611e29565b604051610b5f9190614d2c565b60405180910390f35b348015610b73575f80fd5b50610b8e6004803603810190610b899190615758565b611e4d565b005b348015610b9b575f80fd5b50610bb66004803603810190610bb19190615783565b611e61565b604051610bc39190614662565b60405180910390f35b348015610bd7575f80fd5b50610bf26004803603810190610bed91906146a5565b611e7c565b005b348015610bff575f80fd5b50610c1a6004803603810190610c1591906157c1565b611e90565b604051610c2791906149b7565b60405180910390f35b348015610c3b575f80fd5b50610c566004803603810190610c5191906146a5565b611f10565b604051610c639190614662565b60405180910390f35b348015610c77575f80fd5b50610c80611f21565b604051610c8d91906158af565b60405180910390f35b5f30905090565b5f7fcdbdfcee000000000000000000000000000000000000000000000000000000007bffffffffffffffffffffffffffffffffffffffffffffffffffffffff1916827bffffffffffffffffffffffffffffffffffffffffffffffffffffffff19161480610d70575063a8f8a66860e01b7fcdbdfcee00000000000000000000000000000000000000000000000000000000187bffffffffffffffffffffffffffffffffffffffffffffffffffffffff1916827bffffffffffffffffffffffffffffffffffffffffffffffffffffffff1916145b80610dd857507f4e2312e0000000000000000000000000000000000000000000000000000000007bffffffffffffffffffffffffffffffffffffffffffffffffffffffff1916827bffffffffffffffffffffffffffffffffffffffffffffffffffffffff1916145b80610de85750610de782611f48565b5b9050919050565b5f610df8611fb1565b905090565b610e05611fd0565b610e0e816120c5565b50565b606060038054610e20906158f5565b80601f0160208091040260200160405190810160405280929190818152602001828054610e4c906158f5565b8015610e975780601f10610e6e57610100808354040283529160200191610e97565b820191905f5260205f20905b815481529060010190602001808311610e7a57829003601f168201915b5050505050905090565b5f60045f8381526020019081526020015f205f015f9054906101000a900473ffffffffffffffffffffffffffffffffffffffff169050919050565b5f3073ffffffffffffffffffffffffffffffffffffffff16610efc610c96565b73ffffffffffffffffffffffffffffffffffffffff1614610f49576040517fe90a651e00000000000000000000000000000000000000000000000000000000815260040160405180910390fd5b63150b7a0260e01b9050949350505050565b5f80610f6986868686611bde565b9050610f7e81610f796004612187565b6121ab565b505f610f8d8288888888612216565b90505f8165ffffffffffff1614611012578060045f8481526020019081526020015f206001015f6101000a81548165ffffffffffff021916908365ffffffffffff1602179055507f9a2e42fd6722813d69113e7d0079d3d940171428df7373df9c7f7617cfda28928282604051611005929190615955565b60405180910390a1611044565b6040517f90884a4600000000000000000000000000000000000000000000000000000000815260040160405180910390fd5b8192505050949350505050565b5f8061105f86868686611bde565b905061107f8161106f6005612187565b6110796004612187565b176121ab565b50600160045f8381526020019081526020015f205f01601e6101000a81548160ff0219169083151502179055503073ffffffffffffffffffffffffffffffffffffffff166110cb610c96565b73ffffffffffffffffffffffffffffffffffffffff1614611187575f5b8651811015611185573073ffffffffffffffffffffffffffffffffffffffff1687828151811061111b5761111a61597c565b5b602002602001015173ffffffffffffffffffffffffffffffffffffffff1603611174576111738582815181106111545761115361597c565b5b602002602001015180519060200120600561222090919063ffffffff16565b5b8061117e906159d6565b90506110e8565b505b6111948187878787612318565b3073ffffffffffffffffffffffffffffffffffffffff166111b3610c96565b73ffffffffffffffffffffffffffffffffffffffff16141580156111de57506111dc6005612403565b155b156111ee576111ed600561246f565b5b7f712ae1383f79ac853f8d882153778e0260ef8f03b504e2866e0593e04d2b291f8160405161121d9190614662565b60405180910390a180915050949350505050565b5f60045f8381526020019081526020015f205f0160149054906101000a900465ffffffffffff1665ffffffffffff169050919050565b7f3e83946653575f9a39005e1545185629e92736b7528ab20ca3816f315424a81181565b5f6112946124e5565b905090565b5f8060045f8481526020019081526020015f2090505f815f01601e9054906101000a900460ff1690505f825f01601f9054906101000a900460ff16905081156112e857600793505050506113eb565b80156112fa57600293505050506113eb565b5f61130486611231565b90505f810361134a57856040517f6ad060750000000000000000000000000000000000000000000000000000000081526004016113419190614662565b60405180910390fd5b5f611353611b0a565b65ffffffffffff169050808210611371575f955050505050506113eb565b5f61137b88611cbf565b905081811061139357600196505050505050506113eb565b61139c88612507565b15806113ae57506113ac8861254b565b155b156113c257600396505050505050506113eb565b5f6113cc89611bfb565b036113e057600496505050505050506113eb565b600596505050505050505b919050565b5f60095f8481526020019081526020015f206003015f8373ffffffffffffffffffffffffffffffffffffffff1673ffffffffffffffffffffffffffffffffffffffff1681526020019081526020015f205f9054906101000a900460ff16905092915050565b5f8061146386868686611bde565b90505f61146e612572565b905061147a8282612579565b6114bd5781816040517f8fe5d8a90000000000000000000000000000000000000000000000000000000081526004016114b4929190615a1d565b60405180910390fd5b6114c9878787876125f0565b92505050949350505050565b60606114df611f21565b73ffffffffffffffffffffffffffffffffffffffff16634bf5d7e96040518163ffffffff1660e01b81526004015f60405180830381865afa92505050801561154957506040513d5f823e3d601f19601f820116820180604052508101906115469190615ab2565b60015b61158a576040518060400160405280601d81526020017f6d6f64653d626c6f636b6e756d6265722666726f6d3d64656661756c74000000815250905061158f565b809150505b90565b5f805f8060095f8681526020019081526020015f209050805f015481600101548260020154935093509350509193909250565b60606040518060400160405280600181526020017f3100000000000000000000000000000000000000000000000000000000000000815250905090565b5f8061160c612572565b905061162884828560405180602001604052805f8152506126d2565b91505092915050565b5f806116be876116b87f3e83946653575f9a39005e1545185629e92736b7528ab20ca3816f315424a8118c8c8c6116678e6126f1565b8d8d604051611677929190615b27565b60405180910390208c8051906020012060405160200161169d9796959493929190615b4e565b60405160208183030381529060405280519060200120612744565b8561275d565b90508061170257866040517f94ab6c070000000000000000000000000000000000000000000000000000000081526004016116f991906147b9565b60405180910390fd5b61175289888a89898080601f0160208091040260200160405190810160405280939291908181526020018383808284375f81840152601f19601f8201169050808301925050505050505088612809565b915050979650505050505050565b5f8061176a612572565b90506117bc87828888888080601f0160208091040260200160405190810160405280939291908181526020018383808284375f81840152601f19601f8201169050808301925050505050505087612809565b91505095945050505050565b5f6117d4600a83612913565b9050919050565b6117e3611fd0565b6117ec8161297c565b50565b5f806117f9612572565b905061184a86828787878080601f0160208091040260200160405190810160405280939291908181526020018383808284375f81840152601f19601f820116905080830192505050505050506126d2565b915050949350505050565b5f8061185f612572565b905061186b81846129ef565b6118ac57806040517fd9b395570000000000000000000000000000000000000000000000000000000081526004016118a391906147b9565b60405180910390fd5b5f6118b5611c31565b90505f811115611932575f6118e58360016118ce611b0a565b6118d89190615bbb565b65ffffffffffff16611e61565b905081811015611930578281836040517fc242ee1600000000000000000000000000000000000000000000000000000000815260040161192793929190615bf4565b60405180910390fd5b505b61193f8787878786612ad5565b92505050949350505050565b5f60025f8373ffffffffffffffffffffffffffffffffffffffff1673ffffffffffffffffffffffffffffffffffffffff1681526020019081526020015f20549050919050565b5f6060805f805f60606119a2612d5a565b6119aa612d94565b46305f801b5f67ffffffffffffffff8111156119c9576119c8614804565b5b6040519080825280602002602001820160405280156119f75781602001602082028036833780820191505090505b507f0f00000000000000000000000000000000000000000000000000000000000000959493929190965096509650965096509650965090919293949596565b5f80611aa184611a9b7ff2aad550cf55f045cb27e9c559f9889fdfb6e6cdaa032301d6ea397784ae51d7898989611a6c8b6126f1565b604051602001611a80959493929190615c29565b60405160208183030381529060405280519060200120612744565b8561275d565b905080611ae557836040517f94ab6c07000000000000000000000000000000000000000000000000000000008152600401611adc91906147b9565b60405180910390fd5b611aff86858760405180602001604052805f8152506126d2565b915050949350505050565b5f611b13611f21565b73ffffffffffffffffffffffffffffffffffffffff166391ddadf46040518163ffffffff1660e01b8152600401602060405180830381865afa925050508015611b7a57506040513d601f19601f82011682018060405250810190611b779190615c8e565b60015b611b8d57611b86612dcf565b9050611b92565b809150505b90565b5f6064905090565b5f611ba9848484612dde565b90509392505050565b5f611bbd600a612e69565b79ffffffffffffffffffffffffffffffffffffffffffffffffffff16905090565b5f611beb85858585611db2565b9050949350505050565b5f919050565b5f60045f8381526020019081526020015f206001015f9054906101000a900465ffffffffffff1665ffffffffffff169050919050565b5f611c3a612ecb565b905090565b5f3073ffffffffffffffffffffffffffffffffffffffff16611c5f610c96565b73ffffffffffffffffffffffffffffffffffffffff1614611cac576040517fe90a651e00000000000000000000000000000000000000000000000000000000815260040160405180910390fd5b63bc197c8160e01b905095945050505050565b5f60045f8381526020019081526020015f205f01601a9054906101000a900463ffffffff1663ffffffff1660045f8481526020019081526020015f205f0160149054906101000a900465ffffffffffff16611d1a9190615cb9565b65ffffffffffff169050919050565b611d31611fd0565b5f808573ffffffffffffffffffffffffffffffffffffffff16858585604051611d5b929190615b27565b5f6040518083038185875af1925050503d805f8114611d95576040519150601f19603f3d011682016040523d82523d5f602084013e611d9a565b606091505b5091509150611da98282612ed4565b50505050505050565b5f84848484604051602001611dca9493929190615eb6565b604051602081830303815290604052805190602001205f1c9050949350505050565b60606040518060400160405280602081526020017f737570706f72743d627261766f2671756f72756d3d666f722c6162737461696e815250905090565b7ff2aad550cf55f045cb27e9c559f9889fdfb6e6cdaa032301d6ea397784ae51d781565b611e55611fd0565b611e5e81612ef8565b50565b5f611e748383611e6f612fb1565b612dde565b905092915050565b611e84611fd0565b611e8d81612fc7565b50565b5f3073ffffffffffffffffffffffffffffffffffffffff16611eb0610c96565b73ffffffffffffffffffffffffffffffffffffffff1614611efd576040517fe90a651e00000000000000000000000000000000000000000000000000000000815260040160405180910390fd5b63f23a6e6160e01b905095945050505050565b5f611f1a8261300c565b9050919050565b5f7f0000000000000000000000000000000000000000000000000000000000000000905090565b5f7f01ffc9a7000000000000000000000000000000000000000000000000000000007bffffffffffffffffffffffffffffffffffffffffffffffffffffffff1916827bffffffffffffffffffffffffffffffffffffffffffffffffffffffff1916149050919050565b5f600860069054906101000a900463ffffffff1663ffffffff16905090565b611fd8612572565b73ffffffffffffffffffffffffffffffffffffffff16611ff6610c96565b73ffffffffffffffffffffffffffffffffffffffff161461205557612019612572565b6040517f47096e4700000000000000000000000000000000000000000000000000000000815260040161204c91906147b9565b60405180910390fd5b3073ffffffffffffffffffffffffffffffffffffffff16612074610c96565b73ffffffffffffffffffffffffffffffffffffffff16146120c3575f6120986130ac565b6040516120a6929190615b27565b604051809103902090505b806120bc60056130b8565b036120b157505b565b5f6120ce611b95565b9050808211156121175781816040517f243e544500000000000000000000000000000000000000000000000000000000815260040161210e929190615f0e565b60405180910390fd5b5f612120611bb2565b905061214761212d611b0a565b612136856131e6565b600a6132539092919063ffffffff16565b50507f0553476bf02ef2726e8ce5ced78d63e26e602e4a2257b1f559418e24b4633997818460405161217a929190615f0e565b60405180910390a1505050565b5f81600781111561219b5761219a614d45565b5b60ff166001901b5f1b9050919050565b5f806121b684611299565b90505f801b836121c583612187565b160361220c578381846040517f31b75e4d00000000000000000000000000000000000000000000000000000000815260040161220393929190615f35565b60405180910390fd5b8091505092915050565b5f95945050505050565b5f825f0160109054906101000a90046fffffffffffffffffffffffffffffffff169050825f015f9054906101000a90046fffffffffffffffffffffffffffffffff166fffffffffffffffffffffffffffffffff16600182016fffffffffffffffffffffffffffffffff160361229a57612299604161326e565b5b81836001015f836fffffffffffffffffffffffffffffffff166fffffffffffffffffffffffffffffffff1681526020019081526020015f208190555060018101835f0160106101000a8154816fffffffffffffffffffffffffffffffff02191690836fffffffffffffffffffffffffffffffff160217905550505050565b5f5b84518110156123fb575f808683815181106123385761233761597c565b5b602002602001015173ffffffffffffffffffffffffffffffffffffffff168684815181106123695761236861597c565b5b60200260200101518685815181106123845761238361597c565b5b60200260200101516040516123999190615f9a565b5f6040518083038185875af1925050503d805f81146123d3576040519150601f19603f3d011682016040523d82523d5f602084013e6123d8565b606091505b50915091506123e78282612ed4565b505050806123f4906159d6565b905061231a565b505050505050565b5f815f015f9054906101000a90046fffffffffffffffffffffffffffffffff166fffffffffffffffffffffffffffffffff16825f0160109054906101000a90046fffffffffffffffffffffffffffffffff166fffffffffffffffffffffffffffffffff16149050919050565b5f815f015f6101000a8154816fffffffffffffffffffffffffffffffff02191690836fffffffffffffffffffffffffffffffff1602179055505f815f0160106101000a8154816fffffffffffffffffffffffffffffffff02191690836fffffffffffffffffffffffffffffffff16021790555050565b5f60085f9054906101000a900465ffffffffffff1665ffffffffffff16905090565b5f8060095f8481526020019081526020015f209050806002015481600101546125309190615fb0565b61254161253c85611231565b611f10565b1115915050919050565b5f8060095f8481526020019081526020015f209050805f0154816001015411915050919050565b5f33905090565b5f80600781111561258d5761258c614d45565b5b61259684611299565b60078111156125a8576125a7614d45565b5b1480156125e857506125b983610ea1565b73ffffffffffffffffffffffffffffffffffffffff168273ffffffffffffffffffffffffffffffffffffffff16145b905092915050565b5f806125fe86868686611bde565b90506126628161260e6007612187565b6126186006612187565b6126226002612187565b60018060078081111561263857612637614d45565b5b6126429190615fe3565b600261264e9190616146565b6126589190616190565b5f1b1818186121ab565b50600160045f8381526020019081526020015f205f01601f6101000a81548160ff0219169083151502179055507f789cf55be980739dad1d0699b93b58e806b51c9d96619bfa8fe0a28abaa7b30c816040516126be9190614662565b60405180910390a180915050949350505050565b5f6126e7858585856126e2612fb1565b612809565b9050949350505050565b5f60025f8373ffffffffffffffffffffffffffffffffffffffff1673ffffffffffffffffffffffffffffffffffffffff1681526020019081526020015f205f815480929190600101919050559050919050565b5f61275661275061327f565b83613335565b9050919050565b5f808473ffffffffffffffffffffffffffffffffffffffff163b036127f4575f806127888585613375565b50915091505f60038111156127a05761279f614d45565b5b8160038111156127b3576127b2614d45565b5b1480156127eb57508573ffffffffffffffffffffffffffffffffffffffff168273ffffffffffffffffffffffffffffffffffffffff16145b92505050612802565b6127ff8484846133ca565b90505b9392505050565b5f61281d866128186001612187565b6121ab565b505f6128328661282c89611231565b85612dde565b90505f61284288888885886134e9565b90505f8451036128a5578673ffffffffffffffffffffffffffffffffffffffff167fb8e138887d0aa13bab447e82de9d5c1777041ecd21ca36ba824ff1e6c07ddda48988848960405161289894939291906161c3565b60405180910390a26128fc565b8673ffffffffffffffffffffffffffffffffffffffff167fe2babfbac5889a709b63bb7f598b324e08bc5a4fb9ec647fb3cbc9ec07eb871289888489896040516128f3959493929190616255565b60405180910390a25b612905886136de565b809250505095945050505050565b5f805f61291f856136e1565b9250925050838265ffffffffffff1611156129545761294f61294085613770565b866137c990919063ffffffff16565b612956565b805b79ffffffffffffffffffffffffffffffffffffffffffffffffffff169250505092915050565b7fc565b045403dc03c2eea82b81a0465edad9e2e7fc4d97e11421c209da93d7a9360085f9054906101000a900465ffffffffffff16826040516129c09291906162b4565b60405180910390a18060085f6101000a81548165ffffffffffff021916908365ffffffffffff16021790555050565b5f80825190506034811015612a08576001915050612acf565b5f612a1684603484036138b6565b90507f2370726f706f7365723d0000000000000000000000000000000000000000000075ffffffffffffffffffffffffffffffffffffffffffff19168175ffffffffffffffffffffffffffffffffffffffffffff191614612a7c57600192505050612acf565b5f80612a8c86602a8603866138c6565b91509150811580612ac857508673ffffffffffffffffffffffffffffffffffffffff168173ffffffffffffffffffffffffffffffffffffffff16145b9450505050505b92915050565b5f612ae98686868680519060200120611bde565b905084518651141580612afe57508351865114155b80612b0957505f8651145b15612b52578551845186516040517f447b05d0000000000000000000000000000000000000000000000000000000008152600401612b4993929190614e0f565b60405180910390fd5b5f60045f8381526020019081526020015f205f0160149054906101000a900465ffffffffffff1665ffffffffffff1614612bd15780612b9082611299565b5f801b6040517f31b75e4d000000000000000000000000000000000000000000000000000000008152600401612bc893929190615f35565b60405180910390fd5b5f612bda61128b565b612be2611b0a565b65ffffffffffff16612bf49190615fb0565b90505f612bff610def565b90505f60045f8581526020019081526020015f20905084815f015f6101000a81548173ffffffffffffffffffffffffffffffffffffffff021916908373ffffffffffffffffffffffffffffffffffffffff160217905550612c5f83613770565b815f0160146101000a81548165ffffffffffff021916908365ffffffffffff160217905550612c8d826139d7565b815f01601a6101000a81548163ffffffff021916908363ffffffff1602179055507f7d84a6263ae0d98d3329bd7b46bb4e8d6f98cd35a7adb45c274c8b7fd5ebd5e084868b8b8d5167ffffffffffffffff811115612cee57612ced614804565b5b604051908082528060200260200182016040528015612d2157816020015b6060815260200190600190039081612d0c5790505b508c89898b612d309190615fb0565b8e604051612d46999897969594939291906163de565b60405180910390a150505095945050505050565b6060612d8f5f7f0000000000000000000000000000000000000000000000000000000000000000613a2e90919063ffffffff16565b905090565b6060612dca60017f0000000000000000000000000000000000000000000000000000000000000000613a2e90919063ffffffff16565b905090565b5f612dd943613770565b905090565b5f612de7611f21565b73ffffffffffffffffffffffffffffffffffffffff16633a46b1a885856040518363ffffffff1660e01b8152600401612e2192919061648c565b602060405180830381865afa158015612e3c573d5f803e3d5ffd5b505050506040513d601f19601f82011682018060405250810190612e6091906164c7565b90509392505050565b5f80825f018054905090505f8114612ec157612e93835f01600183612e8e9190616190565b613adb565b5f0160069054906101000a900479ffffffffffffffffffffffffffffffffffffffffffffffffffff16612ec3565b5f5b915050919050565b5f600754905090565b606082612ee957612ee482613aed565b612ef1565b819050612ef2565b5b92915050565b5f8163ffffffff1603612f42575f6040517ff1cfbf05000000000000000000000000000000000000000000000000000000008152600401612f39919061652b565b60405180910390fd5b7f7e3f7f0708a84de9203036abaa450dccc85ad5ff52f78c170f3edb55cf5e8828600860069054906101000a900463ffffffff1682604051612f85929190616574565b60405180910390a180600860066101000a81548163ffffffff021916908363ffffffff16021790555050565b606060405180602001604052805f815250905090565b7fccb45da8d5717e6c4544694297c4ba5cf151d455c9bb0ed4fc7a38411bc0546160075482604051612ffa929190615f0e565b60405180910390a18060078190555050565b5f6130a5613018611f21565b73ffffffffffffffffffffffffffffffffffffffff16638e539e8c846040518263ffffffff1660e01b81526004016130509190614662565b602060405180830381865afa15801561306b573d5f803e3d5ffd5b505050506040513d601f19601f8201168201806040525081019061308f91906164c7565b613098846117c8565b6130a0611b95565b613b31565b9050919050565b365f8036915091509091565b5f80825f015f9054906101000a90046fffffffffffffffffffffffffffffffff169050825f0160109054906101000a90046fffffffffffffffffffffffffffffffff166fffffffffffffffffffffffffffffffff16816fffffffffffffffffffffffffffffffff16036131305761312f603161326e565b5b826001015f826fffffffffffffffffffffffffffffffff166fffffffffffffffffffffffffffffffff1681526020019081526020015f20549150826001015f826fffffffffffffffffffffffffffffffff166fffffffffffffffffffffffffffffffff1681526020019081526020015f205f905560018101835f015f6101000a8154816fffffffffffffffffffffffffffffffff02191690836fffffffffffffffffffffffffffffffff16021790555050919050565b5f79ffffffffffffffffffffffffffffffffffffffffffffffffffff801682111561324b5760d0826040517f6dfcc6500000000000000000000000000000000000000000000000000000000081526004016132429291906165d4565b60405180910390fd5b819050919050565b5f80613262855f018585613c10565b91509150935093915050565b634e487b715f52806020526024601cfd5b5f7f000000000000000000000000000000000000000000000000000000000000000073ffffffffffffffffffffffffffffffffffffffff163073ffffffffffffffffffffffffffffffffffffffff161480156132fa57507f000000000000000000000000000000000000000000000000000000000000000046145b15613327577f00000000000000000000000000000000000000000000000000000000000000009050613332565b61332f613f04565b90505b90565b5f6040517f190100000000000000000000000000000000000000000000000000000000000081528360028201528260228201526042812091505092915050565b5f805f60418451036133b5575f805f602087015192506040870151915060608701515f1a90506133a788828585613f99565b9550955095505050506133c3565b5f600285515f1b9250925092505b9250925092565b5f805f8573ffffffffffffffffffffffffffffffffffffffff1685856040516024016133f79291906165fb565b604051602081830303815290604052631626ba7e60e01b6020820180517bffffffffffffffffffffffffffffffffffffffffffffffffffffffff83818316178352505050506040516134499190615f9a565b5f60405180830381855afa9150503d805f8114613481576040519150601f19603f3d011682016040523d82523d5f602084013e613486565b606091505b509150915081801561349a57506020815110155b80156134de5750631626ba7e60e01b7bffffffffffffffffffffffffffffffffffffffffffffffffffffffff1916818060200190518101906134dc919061663d565b145b925050509392505050565b5f8060095f8881526020019081526020015f209050806003015f8773ffffffffffffffffffffffffffffffffffffffff1673ffffffffffffffffffffffffffffffffffffffff1681526020019081526020015f205f9054906101000a900460ff161561358c57856040517f71c6af4900000000000000000000000000000000000000000000000000000000815260040161358391906147b9565b60405180910390fd5b6001816003015f8873ffffffffffffffffffffffffffffffffffffffff1673ffffffffffffffffffffffffffffffffffffffff1681526020019081526020015f205f6101000a81548160ff0219169083151502179055505f60028111156135f6576135f5614d45565b5b60ff168560ff16036136205783815f015f8282546136149190615fb0565b925050819055506136d1565b6001600281111561363457613633614d45565b5b60ff168560ff160361365f5783816001015f8282546136539190615fb0565b925050819055506136d0565b60028081111561367257613671614d45565b5b60ff168560ff160361369d5783816002015f8282546136919190615fb0565b925050819055506136cf565b6040517f06b337c200000000000000000000000000000000000000000000000000000000815260040160405180910390fd5b5b5b8391505095945050505050565b50565b5f805f80845f018054905090505f8103613704575f805f93509350935050613769565b5f61371d865f016001846137189190616190565b613adb565b90506001815f015f9054906101000a900465ffffffffffff16825f0160069054906101000a900479ffffffffffffffffffffffffffffffffffffffffffffffffffff1694509450945050505b9193909250565b5f65ffffffffffff80168211156137c1576030826040517f6dfcc6500000000000000000000000000000000000000000000000000000000081526004016137b89291906166a1565b60405180910390fd5b819050919050565b5f80835f018054905090505f80829050600583111561384a575f6137ec84614080565b846137f79190616190565b9050613805875f0182613adb565b5f015f9054906101000a900465ffffffffffff1665ffffffffffff168665ffffffffffff16101561383857809150613848565b6001816138459190615fb0565b92505b505b5f613859875f0187858561421a565b90505f81146138a85761387a875f016001836138759190616190565b613adb565b5f0160069054906101000a900479ffffffffffffffffffffffffffffffffffffffffffffffffffff166138aa565b5f5b94505050505092915050565b5f81602001830151905092915050565b5f8084518311806138d657508284115b156138e6575f80915091506139cf565b5f6001856138f49190615fb0565b8411801561396c57507f30780000000000000000000000000000000000000000000000000000000000007dffffffffffffffffffffffffffffffffffffffffffffffffffffffffffff1916613949878761428f565b7dffffffffffffffffffffffffffffffffffffffffffffffffffffffffffff1916145b90505f600261397c83151561429f565b61398691906166c8565b60286139929190615fb0565b90508086866139a19190616190565b036139c6575f806139b38989896142aa565b91509150818195509550505050506139cf565b5f809350935050505b935093915050565b5f63ffffffff8016821115613a26576020826040517f6dfcc650000000000000000000000000000000000000000000000000000000008152600401613a1d929190616742565b60405180910390fd5b819050919050565b606060ff5f1b8314613a4a57613a43836143db565b9050613ad5565b818054613a56906158f5565b80601f0160208091040260200160405190810160405280929190818152602001828054613a82906158f5565b8015613acd5780601f10613aa457610100808354040283529160200191613acd565b820191905f5260205f20905b815481529060010190602001808311613ab057829003601f168201915b505050505090505b92915050565b5f825f528160205f2001905092915050565b5f81511115613aff5780518082602001fd5b6040517fd6bda27500000000000000000000000000000000000000000000000000000000815260040160405180910390fd5b5f805f613b3e868661444d565b915091505f8203613b6357838181613b5957613b58616769565b5b0492505050613c09565b818411613b8257613b81613b7c5f86146012601161446a565b61326e565b5b5f8486880990508181118303925080820391505f855f038616905080860495508083049250600181825f0304019050808402831792505f600287600302189050808702600203810290508087026002038102905080870260020381029050808702600203810290508087026002038102905080870260020381029050808402955050505050505b9392505050565b5f805f858054905090505f811115613e1c575f613c3987600184613c349190616190565b613adb565b90505f815f015f9054906101000a900465ffffffffffff1690505f825f0160069054906101000a900479ffffffffffffffffffffffffffffffffffffffffffffffffffff1690508765ffffffffffff168265ffffffffffff161115613cca576040517f2520601d00000000000000000000000000000000000000000000000000000000815260040160405180910390fd5b8765ffffffffffff168265ffffffffffff1603613d345786835f0160066101000a81548179ffffffffffffffffffffffffffffffffffffffffffffffffffff021916908379ffffffffffffffffffffffffffffffffffffffffffffffffffff160217905550613e0d565b8860405180604001604052808a65ffffffffffff1681526020018979ffffffffffffffffffffffffffffffffffffffffffffffffffff16815250908060018154018082558091505060019003905f5260205f20015f909190919091505f820151815f015f6101000a81548165ffffffffffff021916908365ffffffffffff1602179055506020820151815f0160066101000a81548179ffffffffffffffffffffffffffffffffffffffffffffffffffff021916908379ffffffffffffffffffffffffffffffffffffffffffffffffffff16021790555050505b80879550955050505050613efc565b8560405180604001604052808765ffffffffffff1681526020018679ffffffffffffffffffffffffffffffffffffffffffffffffffff16815250908060018154018082558091505060019003905f5260205f20015f909190919091505f820151815f015f6101000a81548165ffffffffffff021916908365ffffffffffff1602179055506020820151815f0160066101000a81548179ffffffffffffffffffffffffffffffffffffffffffffffffffff021916908379ffffffffffffffffffffffffffffffffffffffffffffffffffff16021790555050505f8492509250505b935093915050565b5f7f8b73c3c69bb8fe3d512ecc4cf759cc79239f7b179b0ffacaa9a75d522b39400f7f00000000000000000000000000000000000000000000000000000000000000007f00000000000000000000000000000000000000000000000000000000000000004630604051602001613f7e959493929190616796565b60405160208183030381529060405280519060200120905090565b5f805f7f7fffffffffffffffffffffffffffffff5d576e7357a4501ddfe92f46681b20a0845f1c1115613fd5575f600385925092509250614076565b5f6001888888886040515f8152602001604052604051613ff894939291906167e7565b6020604051602081039080840390855afa158015614018573d5f803e3d5ffd5b5050506020604051035190505f73ffffffffffffffffffffffffffffffffffffffff168173ffffffffffffffffffffffffffffffffffffffff1603614069575f60015f801b93509350935050614076565b805f805f1b935093509350505b9450945094915050565b5f6001821161409157819050614215565b5f8290505f6001905070010000000000000000000000000000000082106140c157608082901c9150604081901b90505b6801000000000000000082106140e057604082901c9150602081901b90505b64010000000082106140fb57602082901c9150601081901b90505b62010000821061411457601082901c9150600881901b90505b610100821061412c57600882901c9150600481901b90505b6010821061414357600482901c9150600281901b90505b6004821061415357600181901b90505b600181600302901c9050600181858161416f5761416e616769565b5b048201901c9050600181858161418857614187616769565b5b048201901c905060018185816141a1576141a0616769565b5b048201901c905060018185816141ba576141b9616769565b5b048201901c905060018185816141d3576141d2616769565b5b048201901c905060018185816141ec576141eb616769565b5b048201901c905061420e81858161420657614205616769565b5b04821161429f565b8103925050505b919050565b5f5b81831015614284575f61422f8484614483565b90508465ffffffffffff166142448783613adb565b5f015f9054906101000a900465ffffffffffff1665ffffffffffff16111561426e5780925061427e565b60018161427b9190615fb0565b93505b5061421c565b819050949350505050565b5f81602001830151905092915050565b5f8115159050919050565b5f805f8590505f6001866142be9190615fb0565b8511801561433657507f30780000000000000000000000000000000000000000000000000000000000007dffffffffffffffffffffffffffffffffffffffffffffffffffffffffffff1916614313838861428f565b7dffffffffffffffffffffffffffffffffffffffffffffffffffffffffffff1916145b90505f600261434683151561429f565b61435091906166c8565b90505f8082896143609190615fb0565b90505b878110156143c6575f61437e614379878461428f565b6144a8565b9050600f8160ff16111561439d575f80975097505050505050506143d3565b6010836143aa91906166c8565b92508060ff168301925050806143bf906159d6565b9050614363565b5060018195509550505050505b935093915050565b60605f6143e783614538565b90505f602067ffffffffffffffff81111561440557614404614804565b5b6040519080825280601f01601f1916602001820160405280156144375781602001600182028036833780820191505090505b5090508181528360208201528092505050919050565b5f805f198385098385029150818110828203039250509250929050565b5f6144748461429f565b82841802821890509392505050565b5f6002828418614493919061682a565b8284166144a09190615fb0565b905092915050565b5f808260f81c9050602f8160ff161180156144c65750603a8160ff16105b156144d65760308103905061452e565b60608160ff161180156144ec575060678160ff16105b156144fc5760578103905061452d565b60408160ff16118015614512575060478160ff16105b156145225760378103905061452c565b60ff915050614533565b5b5b809150505b919050565b5f8060ff835f1c169050601f81111561457d576040517fb3512b0c00000000000000000000000000000000000000000000000000000000815260040160405180910390fd5b80915050919050565b5f604051905090565b5f80fd5b5f80fd5b5f7fffffffff0000000000000000000000000000000000000000000000000000000082169050919050565b6145cb81614597565b81146145d5575f80fd5b50565b5f813590506145e6816145c2565b92915050565b5f602082840312156146015761460061458f565b5b5f61460e848285016145d8565b91505092915050565b5f8115159050919050565b61462b81614617565b82525050565b5f6020820190506146445f830184614622565b92915050565b5f819050919050565b61465c8161464a565b82525050565b5f6020820190506146755f830184614653565b92915050565b6146848161464a565b811461468e575f80fd5b50565b5f8135905061469f8161467b565b92915050565b5f602082840312156146ba576146b961458f565b5b5f6146c784828501614691565b91505092915050565b5f81519050919050565b5f82825260208201905092915050565b5f5b838110156147075780820151818401526020810190506146ec565b5f8484015250505050565b5f601f19601f8301169050919050565b5f61472c826146d0565b61473681856146da565b93506147468185602086016146ea565b61474f81614712565b840191505092915050565b5f6020820190508181035f8301526147728184614722565b905092915050565b5f73ffffffffffffffffffffffffffffffffffffffff82169050919050565b5f6147a38261477a565b9050919050565b6147b381614799565b82525050565b5f6020820190506147cc5f8301846147aa565b92915050565b6147db81614799565b81146147e5575f80fd5b50565b5f813590506147f6816147d2565b92915050565b5f80fd5b5f80fd5b7f4e487b71000000000000000000000000000000000000000000000000000000005f52604160045260245ffd5b61483a82614712565b810181811067ffffffffffffffff8211171561485957614858614804565b5b80604052505050565b5f61486b614586565b90506148778282614831565b919050565b5f67ffffffffffffffff82111561489657614895614804565b5b61489f82614712565b9050602081019050919050565b828183375f83830152505050565b5f6148cc6148c78461487c565b614862565b9050828152602081018484840111156148e8576148e7614800565b5b6148f38482856148ac565b509392505050565b5f82601f83011261490f5761490e6147fc565b5b813561491f8482602086016148ba565b91505092915050565b5f805f80608085870312156149405761493f61458f565b5b5f61494d878288016147e8565b945050602061495e878288016147e8565b935050604061496f87828801614691565b925050606085013567ffffffffffffffff8111156149905761498f614593565b5b61499c878288016148fb565b91505092959194509250565b6149b181614597565b82525050565b5f6020820190506149ca5f8301846149a8565b92915050565b5f67ffffffffffffffff8211156149ea576149e9614804565b5b602082029050602081019050919050565b5f80fd5b5f614a11614a0c846149d0565b614862565b90508083825260208201905060208402830185811115614a3457614a336149fb565b5b835b81811015614a5d5780614a4988826147e8565b845260208401935050602081019050614a36565b5050509392505050565b5f82601f830112614a7b57614a7a6147fc565b5b8135614a8b8482602086016149ff565b91505092915050565b5f67ffffffffffffffff821115614aae57614aad614804565b5b602082029050602081019050919050565b5f614ad1614acc84614a94565b614862565b90508083825260208201905060208402830185811115614af457614af36149fb565b5b835b81811015614b1d5780614b098882614691565b845260208401935050602081019050614af6565b5050509392505050565b5f82601f830112614b3b57614b3a6147fc565b5b8135614b4b848260208601614abf565b91505092915050565b5f67ffffffffffffffff821115614b6e57614b6d614804565b5b602082029050602081019050919050565b5f614b91614b8c84614b54565b614862565b90508083825260208201905060208402830185811115614bb457614bb36149fb565b5b835b81811015614bfb57803567ffffffffffffffff811115614bd957614bd86147fc565b5b808601614be689826148fb565b85526020850194505050602081019050614bb6565b5050509392505050565b5f82601f830112614c1957614c186147fc565b5b8135614c29848260208601614b7f565b91505092915050565b5f819050919050565b614c4481614c32565b8114614c4e575f80fd5b50565b5f81359050614c5f81614c3b565b92915050565b5f805f8060808587031215614c7d57614c7c61458f565b5b5f85013567ffffffffffffffff811115614c9a57614c99614593565b5b614ca687828801614a67565b945050602085013567ffffffffffffffff811115614cc757614cc6614593565b5b614cd387828801614b27565b935050604085013567ffffffffffffffff811115614cf457614cf3614593565b5b614d0087828801614c05565b9250506060614d1187828801614c51565b91505092959194509250565b614d2681614c32565b82525050565b5f602082019050614d3f5f830184614d1d565b92915050565b7f4e487b71000000000000000000000000000000000000000000000000000000005f52602160045260245ffd5b60088110614d8357614d82614d45565b5b50565b5f819050614d9382614d72565b919050565b5f614da282614d86565b9050919050565b614db281614d98565b82525050565b5f602082019050614dcb5f830184614da9565b92915050565b5f8060408385031215614de757614de661458f565b5b5f614df485828601614691565b9250506020614e05858286016147e8565b9150509250929050565b5f606082019050614e225f830186614653565b614e2f6020830185614653565b614e3c6040830184614653565b949350505050565b5f60ff82169050919050565b614e5981614e44565b8114614e63575f80fd5b50565b5f81359050614e7481614e50565b92915050565b5f8060408385031215614e9057614e8f61458f565b5b5f614e9d85828601614691565b9250506020614eae85828601614e66565b9150509250929050565b5f80fd5b5f8083601f840112614ed157614ed06147fc565b5b8235905067ffffffffffffffff811115614eee57614eed614eb8565b5b602083019150836001820283011115614f0a57614f096149fb565b5b9250929050565b5f805f805f805f60c0888a031215614f2c57614f2b61458f565b5b5f614f398a828b01614691565b9750506020614f4a8a828b01614e66565b9650506040614f5b8a828b016147e8565b955050606088013567ffffffffffffffff811115614f7c57614f7b614593565b5b614f888a828b01614ebc565b9450945050608088013567ffffffffffffffff811115614fab57614faa614593565b5b614fb78a828b016148fb565b92505060a088013567ffffffffffffffff811115614fd857614fd7614593565b5b614fe48a828b016148fb565b91505092959891949750929550565b5f805f805f6080868803121561500c5761500b61458f565b5b5f61501988828901614691565b955050602061502a88828901614e66565b945050604086013567ffffffffffffffff81111561504b5761504a614593565b5b61505788828901614ebc565b9350935050606086013567ffffffffffffffff81111561507a57615079614593565b5b615086888289016148fb565b9150509295509295909350565b5f65ffffffffffff82169050919050565b6150ad81615093565b81146150b7575f80fd5b50565b5f813590506150c8816150a4565b92915050565b5f602082840312156150e3576150e261458f565b5b5f6150f0848285016150ba565b91505092915050565b5f805f80606085870312156151115761511061458f565b5b5f61511e87828801614691565b945050602061512f87828801614e66565b935050604085013567ffffffffffffffff8111156151505761514f614593565b5b61515c87828801614ebc565b925092505092959194509250565b5f67ffffffffffffffff82111561518457615183614804565b5b61518d82614712565b9050602081019050919050565b5f6151ac6151a78461516a565b614862565b9050828152602081018484840111156151c8576151c7614800565b5b6151d38482856148ac565b509392505050565b5f82601f8301126151ef576151ee6147fc565b5b81356151ff84826020860161519a565b91505092915050565b5f805f80608085870312156152205761521f61458f565b5b5f85013567ffffffffffffffff81111561523d5761523c614593565b5b61524987828801614a67565b945050602085013567ffffffffffffffff81111561526a57615269614593565b5b61527687828801614b27565b935050604085013567ffffffffffffffff81111561529757615296614593565b5b6152a387828801614c05565b925050606085013567ffffffffffffffff8111156152c4576152c3614593565b5b6152d0878288016151db565b91505092959194509250565b5f602082840312156152f1576152f061458f565b5b5f6152fe848285016147e8565b91505092915050565b5f7fff0000000000000000000000000000000000000000000000000000000000000082169050919050565b61533b81615307565b82525050565b5f81519050919050565b5f82825260208201905092915050565b5f819050602082019050919050565b6153738161464a565b82525050565b5f615384838361536a565b60208301905092915050565b5f602082019050919050565b5f6153a682615341565b6153b0818561534b565b93506153bb8361535b565b805f5b838110156153eb5781516153d28882615379565b97506153dd83615390565b9250506001810190506153be565b5085935050505092915050565b5f60e08201905061540b5f83018a615332565b818103602083015261541d8189614722565b905081810360408301526154318188614722565b90506154406060830187614653565b61544d60808301866147aa565b61545a60a0830185614d1d565b81810360c083015261546c818461539c565b905098975050505050505050565b5f805f80608085870312156154925761549161458f565b5b5f61549f87828801614691565b94505060206154b087828801614e66565b93505060406154c1878288016147e8565b925050606085013567ffffffffffffffff8111156154e2576154e1614593565b5b6154ee878288016148fb565b91505092959194509250565b61550381615093565b82525050565b5f60208201905061551c5f8301846154fa565b92915050565b5f805f606084860312156155395761553861458f565b5b5f615546868287016147e8565b935050602061555786828701614691565b925050604084013567ffffffffffffffff81111561557857615577614593565b5b615584868287016148fb565b9150509250925092565b5f805f805f60a086880312156155a7576155a661458f565b5b5f6155b4888289016147e8565b95505060206155c5888289016147e8565b945050604086013567ffffffffffffffff8111156155e6576155e5614593565b5b6155f288828901614b27565b935050606086013567ffffffffffffffff81111561561357615612614593565b5b61561f88828901614b27565b925050608086013567ffffffffffffffff8111156156405761563f614593565b5b61564c888289016148fb565b9150509295509295909350565b5f8083601f84011261566e5761566d6147fc565b5b8235905067ffffffffffffffff81111561568b5761568a614eb8565b5b6020830191508360018202830111156156a7576156a66149fb565b5b9250929050565b5f805f80606085870312156156c6576156c561458f565b5b5f6156d3878288016147e8565b94505060206156e487828801614691565b935050604085013567ffffffffffffffff81111561570557615704614593565b5b61571187828801615659565b925092505092959194509250565b5f63ffffffff82169050919050565b6157378161571f565b8114615741575f80fd5b50565b5f813590506157528161572e565b92915050565b5f6020828403121561576d5761576c61458f565b5b5f61577a84828501615744565b91505092915050565b5f80604083850312156157995761579861458f565b5b5f6157a6858286016147e8565b92505060206157b785828601614691565b9150509250929050565b5f805f805f60a086880312156157da576157d961458f565b5b5f6157e7888289016147e8565b95505060206157f8888289016147e8565b945050604061580988828901614691565b935050606061581a88828901614691565b925050608086013567ffffffffffffffff81111561583b5761583a614593565b5b615847888289016148fb565b9150509295509295909350565b5f819050919050565b5f61587761587261586d8461477a565b615854565b61477a565b9050919050565b5f6158888261585d565b9050919050565b5f6158998261587e565b9050919050565b6158a98161588f565b82525050565b5f6020820190506158c25f8301846158a0565b92915050565b7f4e487b71000000000000000000000000000000000000000000000000000000005f52602260045260245ffd5b5f600282049050600182168061590c57607f821691505b60208210810361591f5761591e6158c8565b5b50919050565b5f61593f61593a61593584615093565b615854565b61464a565b9050919050565b61594f81615925565b82525050565b5f6040820190506159685f830185614653565b6159756020830184615946565b9392505050565b7f4e487b71000000000000000000000000000000000000000000000000000000005f52603260045260245ffd5b7f4e487b71000000000000000000000000000000000000000000000000000000005f52601160045260245ffd5b5f6159e08261464a565b91507fffffffffffffffffffffffffffffffffffffffffffffffffffffffffffffffff8203615a1257615a116159a9565b5b600182019050919050565b5f604082019050615a305f830185614653565b615a3d60208301846147aa565b9392505050565b5f615a56615a518461516a565b614862565b905082815260208101848484011115615a7257615a71614800565b5b615a7d8482856146ea565b509392505050565b5f82601f830112615a9957615a986147fc565b5b8151615aa9848260208601615a44565b91505092915050565b5f60208284031215615ac757615ac661458f565b5b5f82015167ffffffffffffffff811115615ae457615ae3614593565b5b615af084828501615a85565b91505092915050565b5f81905092915050565b5f615b0e8385615af9565b9350615b1b8385846148ac565b82840190509392505050565b5f615b33828486615b03565b91508190509392505050565b615b4881614e44565b82525050565b5f60e082019050615b615f83018a614d1d565b615b6e6020830189614653565b615b7b6040830188615b3f565b615b8860608301876147aa565b615b956080830186614653565b615ba260a0830185614d1d565b615baf60c0830184614d1d565b98975050505050505050565b5f615bc582615093565b9150615bd083615093565b9250828203905065ffffffffffff811115615bee57615bed6159a9565b5b92915050565b5f606082019050615c075f8301866147aa565b615c146020830185614653565b615c216040830184614653565b949350505050565b5f60a082019050615c3c5f830188614d1d565b615c496020830187614653565b615c566040830186615b3f565b615c6360608301856147aa565b615c706080830184614653565b9695505050505050565b5f81519050615c88816150a4565b92915050565b5f60208284031215615ca357615ca261458f565b5b5f615cb084828501615c7a565b91505092915050565b5f615cc382615093565b9150615cce83615093565b9250828201905065ffffffffffff811115615cec57615ceb6159a9565b5b92915050565b5f81519050919050565b5f82825260208201905092915050565b5f819050602082019050919050565b615d2481614799565b82525050565b5f615d358383615d1b565b60208301905092915050565b5f602082019050919050565b5f615d5782615cf2565b615d618185615cfc565b9350615d6c83615d0c565b805f5b83811015615d9c578151615d838882615d2a565b9750615d8e83615d41565b925050600181019050615d6f565b5085935050505092915050565b5f81519050919050565b5f82825260208201905092915050565b5f819050602082019050919050565b5f81519050919050565b5f82825260208201905092915050565b5f615df682615dd2565b615e008185615ddc565b9350615e108185602086016146ea565b615e1981614712565b840191505092915050565b5f615e2f8383615dec565b905092915050565b5f602082019050919050565b5f615e4d82615da9565b615e578185615db3565b935083602082028501615e6985615dc3565b805f5b85811015615ea45784840389528151615e858582615e24565b9450615e9083615e37565b925060208a01995050600181019050615e6c565b50829750879550505050505092915050565b5f6080820190508181035f830152615ece8187615d4d565b90508181036020830152615ee2818661539c565b90508181036040830152615ef68185615e43565b9050615f056060830184614d1d565b95945050505050565b5f604082019050615f215f830185614653565b615f2e6020830184614653565b9392505050565b5f606082019050615f485f830186614653565b615f556020830185614da9565b615f626040830184614d1d565b949350505050565b5f615f7482615dd2565b615f7e8185615af9565b9350615f8e8185602086016146ea565b80840191505092915050565b5f615fa58284615f6a565b915081905092915050565b5f615fba8261464a565b9150615fc58361464a565b9250828201905080821115615fdd57615fdc6159a9565b5b92915050565b5f615fed82614e44565b9150615ff883614e44565b9250828201905060ff811115616011576160106159a9565b5b92915050565b5f8160011c9050919050565b5f808291508390505b600185111561606c57808604811115616048576160476159a9565b5b60018516156160575780820291505b808102905061606585616017565b945061602c565b94509492505050565b5f82616084576001905061613f565b81616091575f905061613f565b81600181146160a757600281146160b1576160e0565b600191505061613f565b60ff8411156160c3576160c26159a9565b5b8360020a9150848211156160da576160d96159a9565b5b5061613f565b5060208310610133831016604e8410600b84101617156161155782820a9050838111156161105761610f6159a9565b5b61613f565b6161228484846001616023565b92509050818404811115616139576161386159a9565b5b81810290505b9392505050565b5f6161508261464a565b915061615b83614e44565b92506161887fffffffffffffffffffffffffffffffffffffffffffffffffffffffffffffffff8484616075565b905092915050565b5f61619a8261464a565b91506161a58361464a565b92508282039050818111156161bd576161bc6159a9565b5b92915050565b5f6080820190506161d65f830187614653565b6161e36020830186615b3f565b6161f06040830185614653565b81810360608301526162028184614722565b905095945050505050565b5f82825260208201905092915050565b5f61622782615dd2565b616231818561620d565b93506162418185602086016146ea565b61624a81614712565b840191505092915050565b5f60a0820190506162685f830188614653565b6162756020830187615b3f565b6162826040830186614653565b81810360608301526162948185614722565b905081810360808301526162a8818461621d565b90509695505050505050565b5f6040820190506162c75f830185615946565b6162d46020830184615946565b9392505050565b5f81519050919050565b5f82825260208201905092915050565b5f819050602082019050919050565b5f82825260208201905092915050565b5f61631e826146d0565b6163288185616304565b93506163388185602086016146ea565b61634181614712565b840191505092915050565b5f6163578383616314565b905092915050565b5f602082019050919050565b5f616375826162db565b61637f81856162e5565b935083602082028501616391856162f5565b805f5b858110156163cc57848403895281516163ad858261634c565b94506163b88361635f565b925060208a01995050600181019050616394565b50829750879550505050505092915050565b5f610120820190506163f25f83018c614653565b6163ff602083018b6147aa565b8181036040830152616411818a615d4d565b90508181036060830152616425818961539c565b90508181036080830152616439818861636b565b905081810360a083015261644d8187615e43565b905061645c60c0830186614653565b61646960e0830185614653565b81810361010083015261647c8184614722565b90509a9950505050505050505050565b5f60408201905061649f5f8301856147aa565b6164ac6020830184614653565b9392505050565b5f815190506164c18161467b565b92915050565b5f602082840312156164dc576164db61458f565b5b5f6164e9848285016164b3565b91505092915050565b5f819050919050565b5f61651561651061650b846164f2565b615854565b61464a565b9050919050565b616525816164fb565b82525050565b5f60208201905061653e5f83018461651c565b92915050565b5f61655e6165596165548461571f565b615854565b61464a565b9050919050565b61656e81616544565b82525050565b5f6040820190506165875f830185616565565b6165946020830184616565565b9392505050565b5f819050919050565b5f6165be6165b96165b48461659b565b615854565b614e44565b9050919050565b6165ce816165a4565b82525050565b5f6040820190506165e75f8301856165c5565b6165f46020830184614653565b9392505050565b5f60408201905061660e5f830185614d1d565b8181036020830152616620818461621d565b90509392505050565b5f8151905061663781614c3b565b92915050565b5f602082840312156166525761665161458f565b5b5f61665f84828501616629565b91505092915050565b5f819050919050565b5f61668b61668661668184616668565b615854565b614e44565b9050919050565b61669b81616671565b82525050565b5f6040820190506166b45f830185616692565b6166c16020830184614653565b9392505050565b5f6166d28261464a565b91506166dd8361464a565b92508282026166eb8161464a565b91508282048414831517616702576167016159a9565b5b5092915050565b5f819050919050565b5f61672c61672761672284616709565b615854565b614e44565b9050919050565b61673c81616712565b82525050565b5f6040820190506167555f830185616733565b6167626020830184614653565b9392505050565b7f4e487b71000000000000000000000000000000000000000000000000000000005f52601260045260245ffd5b5f60a0820190506167a95f830188614d1d565b6167b66020830187614d1d565b6167c36040830186614d1d565b6167d06060830185614653565b6167dd60808301846147aa565b9695505050505050565b5f6080820190506167fa5f830187614d1d565b6168076020830186615b3f565b6168146040830185614d1d565b6168216060830184614d1d565b95945050505050565b5f6168348261464a565b915061683f8361464a565b92508261684f5761684e616769565b5b82820490509291505056fea264697066735822122005ac8245153b914a0abf0246d6053398bfe1061552165ee07d4ec5e42d3bbfd064736f6c63430008140033",
			"opcodes": "PUSH2 0x180 PUSH1 0x40 MSTORE CALLVALUE DUP1 ISZERO PUSH3 0x11 JUMPI PUSH0 DUP1 REVERT JUMPDEST POP PUSH1 0x40 MLOAD PUSH3 0x7CD5 CODESIZE SUB DUP1 PUSH3 0x7CD5 DUP4 CODECOPY DUP2 DUP2 ADD PUSH1 0x40 MSTORE DUP2 ADD SWAP1 PUSH3 0x37 SWAP2 SWAP1 PUSH3 0xB79 JUMP JUMPDEST PUSH1 0x4 DUP2 PUSH1 0x1 PUSH2 0xB2FA PUSH0 PUSH1 0x40 MLOAD DUP1 PUSH1 0x40 ADD PUSH1 0x40 MSTORE DUP1 PUSH1 0xE DUP2 MSTORE PUSH1 0x20 ADD PUSH32 0x4C6F776B6579476F7665726E6F72000000000000000000000000000000000000 DUP2 MSTORE POP DUP1 PUSH3 0x87 PUSH3 0x1CE PUSH1 0x20 SHL PUSH1 0x20 SHR JUMP JUMPDEST PUSH3 0x9C PUSH0 DUP4 PUSH3 0x20B PUSH1 0x20 SHL SWAP1 SWAP2 SWAP1 PUSH1 0x20 SHR JUMP JUMPDEST PUSH2 0x120 DUP2 DUP2 MSTORE POP POP PUSH3 0xBA PUSH1 0x1 DUP3 PUSH3 0x20B PUSH1 0x20 SHL SWAP1 SWAP2 SWAP1 PUSH1 0x20 SHR JUMP JUMPDEST PUSH2 0x140 DUP2 DUP2 MSTORE POP POP DUP2 DUP1 MLOAD SWAP1 PUSH1 0x20 ADD KECCAK256 PUSH1 0xE0 DUP2 DUP2 MSTORE POP POP DUP1 DUP1 MLOAD SWAP1 PUSH1 0x20 ADD KECCAK256 PUSH2 0x100 DUP2 DUP2 MSTORE POP POP CHAINID PUSH1 0xA0 DUP2 DUP2 MSTORE POP POP PUSH3 0xF9 PUSH3 0x260 PUSH1 0x20 SHL PUSH1 0x20 SHR JUMP JUMPDEST PUSH1 0x80 DUP2 DUP2 MSTORE POP POP ADDRESS PUSH20 0xFFFFFFFFFFFFFFFFFFFFFFFFFFFFFFFFFFFFFFFF AND PUSH1 0xC0 DUP2 PUSH20 0xFFFFFFFFFFFFFFFFFFFFFFFFFFFFFFFFFFFFFFFF AND DUP2 MSTORE POP POP POP POP DUP1 PUSH1 0x3 SWAP1 DUP2 PUSH3 0x147 SWAP2 SWAP1 PUSH3 0xE0D JUMP JUMPDEST POP POP PUSH3 0x15A DUP4 PUSH3 0x2BC PUSH1 0x20 SHL PUSH1 0x20 SHR JUMP JUMPDEST PUSH3 0x16B DUP3 PUSH3 0x331 PUSH1 0x20 SHL PUSH1 0x20 SHR JUMP JUMPDEST PUSH3 0x17C DUP2 PUSH3 0x3EF PUSH1 0x20 SHL PUSH1 0x20 SHR JUMP JUMPDEST POP POP POP DUP1 PUSH20 0xFFFFFFFFFFFFFFFFFFFFFFFFFFFFFFFFFFFFFFFF AND PUSH2 0x160 DUP2 PUSH20 0xFFFFFFFFFFFFFFFFFFFFFFFFFFFFFFFFFFFFFFFF AND DUP2 MSTORE POP POP POP PUSH3 0x1C6 DUP2 PUSH3 0x436 PUSH1 0x20 SHL PUSH1 0x20 SHR JUMP JUMPDEST POP POP PUSH3 0x13E9 JUMP JUMPDEST PUSH1 0x60 PUSH1 0x40 MLOAD DUP1 PUSH1 0x40 ADD PUSH1 0x40 MSTORE DUP1 PUSH1 0x1 DUP2 MSTORE PUSH1 0x20 ADD PUSH32 0x3100000000000000000000000000000000000000000000000000000000000000 DUP2 MSTORE POP SWAP1 POP SWAP1 JUMP JUMPDEST PUSH0 PUSH1 0x20 DUP4 MLOAD LT ISZERO PUSH3 0x230 JUMPI PUSH3 0x228 DUP4 PUSH3 0x51F PUSH1 0x20 SHL PUSH1 0x20 SHR JUMP JUMPDEST SWAP1 POP PUSH3 0x25A JUMP JUMPDEST DUP3 PUSH3 0x242 DUP4 PUSH3 0x589 PUSH1 0x20 SHL PUSH1 0x20 SHR JUMP JUMPDEST PUSH0 ADD SWAP1 DUP2 PUSH3 0x252 SWAP2 SWAP1 PUSH3 0xE0D JUMP JUMPDEST POP PUSH1 0xFF PUSH0 SHL SWAP1 POP JUMPDEST SWAP3 SWAP2 POP POP JUMP JUMPDEST PUSH0 PUSH32 0x8B73C3C69BB8FE3D512ECC4CF759CC79239F7B179B0FFACAA9A75D522B39400F PUSH1 0xE0 MLOAD PUSH2 0x100 MLOAD CHAINID ADDRESS PUSH1 0x40 MLOAD PUSH1 0x20 ADD PUSH3 0x2A1 SWAP6 SWAP5 SWAP4 SWAP3 SWAP2 SWAP1 PUSH3 0xF2D JUMP JUMPDEST PUSH1 0x40 MLOAD PUSH1 0x20 DUP2 DUP4 SUB SUB DUP2 MSTORE SWAP1 PUSH1 0x40 MSTORE DUP1 MLOAD SWAP1 PUSH1 0x20 ADD KECCAK256 SWAP1 POP SWAP1 JUMP JUMPDEST PUSH32 0xC565B045403DC03C2EEA82B81A0465EDAD9E2E7FC4D97E11421C209DA93D7A93 PUSH1 0x8 PUSH0 SWAP1 SLOAD SWAP1 PUSH2 0x100 EXP SWAP1 DIV PUSH6 0xFFFFFFFFFFFF AND DUP3 PUSH1 0x40 MLOAD PUSH3 0x302 SWAP3 SWAP2 SWAP1 PUSH3 0xFD1 JUMP JUMPDEST PUSH1 0x40 MLOAD DUP1 SWAP2 SUB SWAP1 LOG1 DUP1 PUSH1 0x8 PUSH0 PUSH2 0x100 EXP DUP2 SLOAD DUP2 PUSH6 0xFFFFFFFFFFFF MUL NOT AND SWAP1 DUP4 PUSH6 0xFFFFFFFFFFFF AND MUL OR SWAP1 SSTORE POP POP JUMP JUMPDEST PUSH0 DUP2 PUSH4 0xFFFFFFFF AND SUB PUSH3 0x37E JUMPI PUSH0 PUSH1 0x40 MLOAD PUSH32 0xF1CFBF0500000000000000000000000000000000000000000000000000000000 DUP2 MSTORE PUSH1 0x4 ADD PUSH3 0x375 SWAP2 SWAP1 PUSH3 0x103D JUMP JUMPDEST PUSH1 0x40 MLOAD DUP1 SWAP2 SUB SWAP1 REVERT JUMPDEST PUSH32 0x7E3F7F0708A84DE9203036ABAA450DCCC85AD5FF52F78C170F3EDB55CF5E8828 PUSH1 0x8 PUSH1 0x6 SWAP1 SLOAD SWAP1 PUSH2 0x100 EXP SWAP1 DIV PUSH4 0xFFFFFFFF AND DUP3 PUSH1 0x40 MLOAD PUSH3 0x3C3 SWAP3 SWAP2 SWAP1 PUSH3 0x109F JUMP JUMPDEST PUSH1 0x40 MLOAD DUP1 SWAP2 SUB SWAP1 LOG1 DUP1 PUSH1 0x8 PUSH1 0x6 PUSH2 0x100 EXP DUP2 SLOAD DUP2 PUSH4 0xFFFFFFFF MUL NOT AND SWAP1 DUP4 PUSH4 0xFFFFFFFF AND MUL OR SWAP1 SSTORE POP POP JUMP JUMPDEST PUSH32 0xCCB45DA8D5717E6C4544694297C4BA5CF151D455C9BB0ED4FC7A38411BC05461 PUSH1 0x7 SLOAD DUP3 PUSH1 0x40 MLOAD PUSH3 0x424 SWAP3 SWAP2 SWAP1 PUSH3 0x10CA JUMP JUMPDEST PUSH1 0x40 MLOAD DUP1 SWAP2 SUB SWAP1 LOG1 DUP1 PUSH1 0x7 DUP2 SWAP1 SSTORE POP POP JUMP JUMPDEST PUSH0 PUSH3 0x447 PUSH3 0x592 PUSH1 0x20 SHL PUSH1 0x20 SHR JUMP JUMPDEST SWAP1 POP DUP1 DUP3 GT ISZERO PUSH3 0x493 JUMPI DUP2 DUP2 PUSH1 0x40 MLOAD PUSH32 0x243E544500000000000000000000000000000000000000000000000000000000 DUP2 MSTORE PUSH1 0x4 ADD PUSH3 0x48A SWAP3 SWAP2 SWAP1 PUSH3 0x10CA JUMP JUMPDEST PUSH1 0x40 MLOAD DUP1 SWAP2 SUB SWAP1 REVERT JUMPDEST PUSH0 PUSH3 0x4A4 PUSH3 0x59A PUSH1 0x20 SHL PUSH1 0x20 SHR JUMP JUMPDEST SWAP1 POP PUSH3 0x4DD PUSH3 0x4BA PUSH3 0x5CE PUSH1 0x20 SHL PUSH1 0x20 SHR JUMP JUMPDEST PUSH3 0x4CB DUP6 PUSH3 0x66E PUSH1 0x20 SHL PUSH1 0x20 SHR JUMP JUMPDEST PUSH1 0xA PUSH3 0x6DE PUSH1 0x20 SHL SWAP1 SWAP3 SWAP2 SWAP1 PUSH1 0x20 SHR JUMP JUMPDEST POP POP PUSH32 0x553476BF02EF2726E8CE5CED78D63E26E602E4A2257B1F559418E24B4633997 DUP2 DUP5 PUSH1 0x40 MLOAD PUSH3 0x512 SWAP3 SWAP2 SWAP1 PUSH3 0x10CA JUMP JUMPDEST PUSH1 0x40 MLOAD DUP1 SWAP2 SUB SWAP1 LOG1 POP POP POP JUMP JUMPDEST PUSH0 DUP1 DUP3 SWAP1 POP PUSH1 0x1F DUP2 MLOAD GT ISZERO PUSH3 0x56E JUMPI DUP3 PUSH1 0x40 MLOAD PUSH32 0x305A27A900000000000000000000000000000000000000000000000000000000 DUP2 MSTORE PUSH1 0x4 ADD PUSH3 0x565 SWAP2 SWAP1 PUSH3 0x117F JUMP JUMPDEST PUSH1 0x40 MLOAD DUP1 SWAP2 SUB SWAP1 REVERT JUMPDEST DUP1 MLOAD DUP2 PUSH3 0x57C SWAP1 PUSH3 0x11D0 JUMP JUMPDEST PUSH0 SHR OR PUSH0 SHL SWAP2 POP POP SWAP2 SWAP1 POP JUMP JUMPDEST PUSH0 DUP2 SWAP1 POP SWAP2 SWAP1 POP JUMP JUMPDEST PUSH0 PUSH1 0x64 SWAP1 POP SWAP1 JUMP JUMPDEST PUSH0 PUSH3 0x5AD PUSH1 0xA PUSH3 0x701 PUSH1 0x20 SHL PUSH1 0x20 SHR JUMP JUMPDEST PUSH26 0xFFFFFFFFFFFFFFFFFFFFFFFFFFFFFFFFFFFFFFFFFFFFFFFFFFFF AND SWAP1 POP SWAP1 JUMP JUMPDEST PUSH0 PUSH3 0x5DF PUSH3 0x76F PUSH1 0x20 SHL PUSH1 0x20 SHR JUMP JUMPDEST PUSH20 0xFFFFFFFFFFFFFFFFFFFFFFFFFFFFFFFFFFFFFFFF AND PUSH4 0x91DDADF4 PUSH1 0x40 MLOAD DUP2 PUSH4 0xFFFFFFFF AND PUSH1 0xE0 SHL DUP2 MSTORE PUSH1 0x4 ADD PUSH1 0x20 PUSH1 0x40 MLOAD DUP1 DUP4 SUB DUP2 DUP7 GAS STATICCALL SWAP3 POP POP POP DUP1 ISZERO PUSH3 0x649 JUMPI POP PUSH1 0x40 MLOAD RETURNDATASIZE PUSH1 0x1F NOT PUSH1 0x1F DUP3 ADD AND DUP3 ADD DUP1 PUSH1 0x40 MSTORE POP DUP2 ADD SWAP1 PUSH3 0x646 SWAP2 SWAP1 PUSH3 0x126E JUMP JUMPDEST PUSH1 0x1 JUMPDEST PUSH3 0x666 JUMPI PUSH3 0x65E PUSH3 0x779 PUSH1 0x20 SHL PUSH1 0x20 SHR JUMP JUMPDEST SWAP1 POP PUSH3 0x66B JUMP JUMPDEST DUP1 SWAP2 POP POP JUMPDEST SWAP1 JUMP JUMPDEST PUSH0 PUSH26 0xFFFFFFFFFFFFFFFFFFFFFFFFFFFFFFFFFFFFFFFFFFFFFFFFFFFF DUP1 AND DUP3 GT ISZERO PUSH3 0x6D6 JUMPI PUSH1 0xD0 DUP3 PUSH1 0x40 MLOAD PUSH32 0x6DFCC65000000000000000000000000000000000000000000000000000000000 DUP2 MSTORE PUSH1 0x4 ADD PUSH3 0x6CD SWAP3 SWAP2 SWAP1 PUSH3 0x12EB JUMP JUMPDEST PUSH1 0x40 MLOAD DUP1 SWAP2 SUB SWAP1 REVERT JUMPDEST DUP2 SWAP1 POP SWAP2 SWAP1 POP JUMP JUMPDEST PUSH0 DUP1 PUSH3 0x6F5 DUP6 PUSH0 ADD DUP6 DUP6 PUSH3 0x790 PUSH1 0x20 SHL PUSH1 0x20 SHR JUMP JUMPDEST SWAP2 POP SWAP2 POP SWAP4 POP SWAP4 SWAP2 POP POP JUMP JUMPDEST PUSH0 DUP1 DUP3 PUSH0 ADD DUP1 SLOAD SWAP1 POP SWAP1 POP PUSH0 DUP2 EQ PUSH3 0x765 JUMPI PUSH3 0x736 DUP4 PUSH0 ADD PUSH1 0x1 DUP4 PUSH3 0x72A SWAP2 SWAP1 PUSH3 0x1343 JUMP JUMPDEST PUSH3 0xA93 PUSH1 0x20 SHL PUSH1 0x20 SHR JUMP JUMPDEST PUSH0 ADD PUSH1 0x6 SWAP1 SLOAD SWAP1 PUSH2 0x100 EXP SWAP1 DIV PUSH26 0xFFFFFFFFFFFFFFFFFFFFFFFFFFFFFFFFFFFFFFFFFFFFFFFFFFFF AND PUSH3 0x767 JUMP JUMPDEST PUSH0 JUMPDEST SWAP2 POP POP SWAP2 SWAP1 POP JUMP JUMPDEST PUSH0 PUSH2 0x160 MLOAD SWAP1 POP SWAP1 JUMP JUMPDEST PUSH0 PUSH3 0x78B NUMBER PUSH3 0xAA5 PUSH1 0x20 SHL PUSH1 0x20 SHR JUMP JUMPDEST SWAP1 POP SWAP1 JUMP JUMPDEST PUSH0 DUP1 PUSH0 DUP6 DUP1 SLOAD SWAP1 POP SWAP1 POP PUSH0 DUP2 GT ISZERO PUSH3 0x9AB JUMPI PUSH0 PUSH3 0x7C4 DUP8 PUSH1 0x1 DUP5 PUSH3 0x7B8 SWAP2 SWAP1 PUSH3 0x1343 JUMP JUMPDEST PUSH3 0xA93 PUSH1 0x20 SHL PUSH1 0x20 SHR JUMP JUMPDEST SWAP1 POP PUSH0 DUP2 PUSH0 ADD PUSH0 SWAP1 SLOAD SWAP1 PUSH2 0x100 EXP SWAP1 DIV PUSH6 0xFFFFFFFFFFFF AND SWAP1 POP PUSH0 DUP3 PUSH0 ADD PUSH1 0x6 SWAP1 SLOAD SWAP1 PUSH2 0x100 EXP SWAP1 DIV PUSH26 0xFFFFFFFFFFFFFFFFFFFFFFFFFFFFFFFFFFFFFFFFFFFFFFFFFFFF AND SWAP1 POP DUP8 PUSH6 0xFFFFFFFFFFFF AND DUP3 PUSH6 0xFFFFFFFFFFFF AND GT ISZERO PUSH3 0x856 JUMPI PUSH1 0x40 MLOAD PUSH32 0x2520601D00000000000000000000000000000000000000000000000000000000 DUP2 MSTORE PUSH1 0x4 ADD PUSH1 0x40 MLOAD DUP1 SWAP2 SUB SWAP1 REVERT JUMPDEST DUP8 PUSH6 0xFFFFFFFFFFFF AND DUP3 PUSH6 0xFFFFFFFFFFFF AND SUB PUSH3 0x8C2 JUMPI DUP7 DUP4 PUSH0 ADD PUSH1 0x6 PUSH2 0x100 EXP DUP2 SLOAD DUP2 PUSH26 0xFFFFFFFFFFFFFFFFFFFFFFFFFFFFFFFFFFFFFFFFFFFFFFFFFFFF MUL NOT AND SWAP1 DUP4 PUSH26 0xFFFFFFFFFFFFFFFFFFFFFFFFFFFFFFFFFFFFFFFFFFFFFFFFFFFF AND MUL OR SWAP1 SSTORE POP PUSH3 0x99B JUMP JUMPDEST DUP9 PUSH1 0x40 MLOAD DUP1 PUSH1 0x40 ADD PUSH1 0x40 MSTORE DUP1 DUP11 PUSH6 0xFFFFFFFFFFFF AND DUP2 MSTORE PUSH1 0x20 ADD DUP10 PUSH26 0xFFFFFFFFFFFFFFFFFFFFFFFFFFFFFFFFFFFFFFFFFFFFFFFFFFFF AND DUP2 MSTORE POP SWAP1 DUP1 PUSH1 0x1 DUP2 SLOAD ADD DUP1 DUP3 SSTORE DUP1 SWAP2 POP POP PUSH1 0x1 SWAP1 SUB SWAP1 PUSH0 MSTORE PUSH1 0x20 PUSH0 KECCAK256 ADD PUSH0 SWAP1 SWAP2 SWAP1 SWAP2 SWAP1 SWAP2 POP PUSH0 DUP3 ADD MLOAD DUP2 PUSH0 ADD PUSH0 PUSH2 0x100 EXP DUP2 SLOAD DUP2 PUSH6 0xFFFFFFFFFFFF MUL NOT AND SWAP1 DUP4 PUSH6 0xFFFFFFFFFFFF AND MUL OR SWAP1 SSTORE POP PUSH1 0x20 DUP3 ADD MLOAD DUP2 PUSH0 ADD PUSH1 0x6 PUSH2 0x100 EXP DUP2 SLOAD DUP2 PUSH26 0xFFFFFFFFFFFFFFFFFFFFFFFFFFFFFFFFFFFFFFFFFFFFFFFFFFFF MUL NOT AND SWAP1 DUP4 PUSH26 0xFFFFFFFFFFFFFFFFFFFFFFFFFFFFFFFFFFFFFFFFFFFFFFFFFFFF AND MUL OR SWAP1 SSTORE POP POP POP JUMPDEST DUP1 DUP8 SWAP6 POP SWAP6 POP POP POP POP POP PUSH3 0xA8B JUMP JUMPDEST DUP6 PUSH1 0x40 MLOAD DUP1 PUSH1 0x40 ADD PUSH1 0x40 MSTORE DUP1 DUP8 PUSH6 0xFFFFFFFFFFFF AND DUP2 MSTORE PUSH1 0x20 ADD DUP7 PUSH26 0xFFFFFFFFFFFFFFFFFFFFFFFFFFFFFFFFFFFFFFFFFFFFFFFFFFFF AND DUP2 MSTORE POP SWAP1 DUP1 PUSH1 0x1 DUP2 SLOAD ADD DUP1 DUP3 SSTORE DUP1 SWAP2 POP POP PUSH1 0x1 SWAP1 SUB SWAP1 PUSH0 MSTORE PUSH1 0x20 PUSH0 KECCAK256 ADD PUSH0 SWAP1 SWAP2 SWAP1 SWAP2 SWAP1 SWAP2 POP PUSH0 DUP3 ADD MLOAD DUP2 PUSH0 ADD PUSH0 PUSH2 0x100 EXP DUP2 SLOAD DUP2 PUSH6 0xFFFFFFFFFFFF MUL NOT AND SWAP1 DUP4 PUSH6 0xFFFFFFFFFFFF AND MUL OR SWAP1 SSTORE POP PUSH1 0x20 DUP3 ADD MLOAD DUP2 PUSH0 ADD PUSH1 0x6 PUSH2 0x100 EXP DUP2 SLOAD DUP2 PUSH26 0xFFFFFFFFFFFFFFFFFFFFFFFFFFFFFFFFFFFFFFFFFFFFFFFFFFFF MUL NOT AND SWAP1 DUP4 PUSH26 0xFFFFFFFFFFFFFFFFFFFFFFFFFFFFFFFFFFFFFFFFFFFFFFFFFFFF AND MUL OR SWAP1 SSTORE POP POP POP PUSH0 DUP5 SWAP3 POP SWAP3 POP POP JUMPDEST SWAP4 POP SWAP4 SWAP2 POP POP JUMP JUMPDEST PUSH0 DUP3 PUSH0 MSTORE DUP2 PUSH1 0x20 PUSH0 KECCAK256 ADD SWAP1 POP SWAP3 SWAP2 POP POP JUMP JUMPDEST PUSH0 PUSH6 0xFFFFFFFFFFFF DUP1 AND DUP3 GT ISZERO PUSH3 0xAF9 JUMPI PUSH1 0x30 DUP3 PUSH1 0x40 MLOAD PUSH32 0x6DFCC65000000000000000000000000000000000000000000000000000000000 DUP2 MSTORE PUSH1 0x4 ADD PUSH3 0xAF0 SWAP3 SWAP2 SWAP1 PUSH3 0x13BE JUMP JUMPDEST PUSH1 0x40 MLOAD DUP1 SWAP2 SUB SWAP1 REVERT JUMPDEST DUP2 SWAP1 POP SWAP2 SWAP1 POP JUMP JUMPDEST PUSH0 DUP1 REVERT JUMPDEST PUSH0 PUSH20 0xFFFFFFFFFFFFFFFFFFFFFFFFFFFFFFFFFFFFFFFF DUP3 AND SWAP1 POP SWAP2 SWAP1 POP JUMP JUMPDEST PUSH0 PUSH3 0xB30 DUP3 PUSH3 0xB05 JUMP JUMPDEST SWAP1 POP SWAP2 SWAP1 POP JUMP JUMPDEST PUSH0 PUSH3 0xB43 DUP3 PUSH3 0xB24 JUMP JUMPDEST SWAP1 POP SWAP2 SWAP1 POP JUMP JUMPDEST PUSH3 0xB55 DUP2 PUSH3 0xB37 JUMP JUMPDEST DUP2 EQ PUSH3 0xB60 JUMPI PUSH0 DUP1 REVERT JUMPDEST POP JUMP JUMPDEST PUSH0 DUP2 MLOAD SWAP1 POP PUSH3 0xB73 DUP2 PUSH3 0xB4A JUMP JUMPDEST SWAP3 SWAP2 POP POP JUMP JUMPDEST PUSH0 PUSH1 0x20 DUP3 DUP5 SUB SLT ISZERO PUSH3 0xB91 JUMPI PUSH3 0xB90 PUSH3 0xB01 JUMP JUMPDEST JUMPDEST PUSH0 PUSH3 0xBA0 DUP5 DUP3 DUP6 ADD PUSH3 0xB63 JUMP JUMPDEST SWAP2 POP POP SWAP3 SWAP2 POP POP JUMP JUMPDEST PUSH0 DUP2 MLOAD SWAP1 POP SWAP2 SWAP1 POP JUMP JUMPDEST PUSH32 0x4E487B7100000000000000000000000000000000000000000000000000000000 PUSH0 MSTORE PUSH1 0x41 PUSH1 0x4 MSTORE PUSH1 0x24 PUSH0 REVERT JUMPDEST PUSH32 0x4E487B7100000000000000000000000000000000000000000000000000000000 PUSH0 MSTORE PUSH1 0x22 PUSH1 0x4 MSTORE PUSH1 0x24 PUSH0 REVERT JUMPDEST PUSH0 PUSH1 0x2 DUP3 DIV SWAP1 POP PUSH1 0x1 DUP3 AND DUP1 PUSH3 0xC25 JUMPI PUSH1 0x7F DUP3 AND SWAP2 POP JUMPDEST PUSH1 0x20 DUP3 LT DUP2 SUB PUSH3 0xC3B JUMPI PUSH3 0xC3A PUSH3 0xBE0 JUMP JUMPDEST JUMPDEST POP SWAP2 SWAP1 POP JUMP JUMPDEST PUSH0 DUP2 SWAP1 POP DUP2 PUSH0 MSTORE PUSH1 0x20 PUSH0 KECCAK256 SWAP1 POP SWAP2 SWAP1 POP JUMP JUMPDEST PUSH0 PUSH1 0x20 PUSH1 0x1F DUP4 ADD DIV SWAP1 POP SWAP2 SWAP1 POP JUMP JUMPDEST PUSH0 DUP3 DUP3 SHL SWAP1 POP SWAP3 SWAP2 POP POP JUMP JUMPDEST PUSH0 PUSH1 0x8 DUP4 MUL PUSH3 0xC9F PUSH32 0xFFFFFFFFFFFFFFFFFFFFFFFFFFFFFFFFFFFFFFFFFFFFFFFFFFFFFFFFFFFFFFFF DUP3 PUSH3 0xC62 JUMP JUMPDEST PUSH3 0xCAB DUP7 DUP4 PUSH3 0xC62 JUMP JUMPDEST SWAP6 POP DUP1 NOT DUP5 AND SWAP4 POP DUP1 DUP7 AND DUP5 OR SWAP3 POP POP POP SWAP4 SWAP3 POP POP POP JUMP JUMPDEST PUSH0 DUP2 SWAP1 POP SWAP2 SWAP1 POP JUMP JUMPDEST PUSH0 DUP2 SWAP1 POP SWAP2 SWAP1 POP JUMP JUMPDEST PUSH0 PUSH3 0xCF5 PUSH3 0xCEF PUSH3 0xCE9 DUP5 PUSH3 0xCC3 JUMP JUMPDEST PUSH3 0xCCC JUMP JUMPDEST PUSH3 0xCC3 JUMP JUMPDEST SWAP1 POP SWAP2 SWAP1 POP JUMP JUMPDEST PUSH0 DUP2 SWAP1 POP SWAP2 SWAP1 POP JUMP JUMPDEST PUSH3 0xD10 DUP4 PUSH3 0xCD5 JUMP JUMPDEST PUSH3 0xD28 PUSH3 0xD1F DUP3 PUSH3 0xCFC JUMP JUMPDEST DUP5 DUP5 SLOAD PUSH3 0xC6E JUMP JUMPDEST DUP3 SSTORE POP POP POP POP JUMP JUMPDEST PUSH0 SWAP1 JUMP JUMPDEST PUSH3 0xD3E PUSH3 0xD30 JUMP JUMPDEST PUSH3 0xD4B DUP2 DUP5 DUP5 PUSH3 0xD05 JUMP JUMPDEST POP POP POP JUMP JUMPDEST JUMPDEST DUP2 DUP2 LT ISZERO PUSH3 0xD72 JUMPI PUSH3 0xD66 PUSH0 DUP3 PUSH3 0xD34 JUMP JUMPDEST PUSH1 0x1 DUP2 ADD SWAP1 POP PUSH3 0xD51 JUMP JUMPDEST POP POP JUMP JUMPDEST PUSH1 0x1F DUP3 GT ISZERO PUSH3 0xDC1 JUMPI PUSH3 0xD8B DUP2 PUSH3 0xC41 JUMP JUMPDEST PUSH3 0xD96 DUP5 PUSH3 0xC53 JUMP JUMPDEST DUP2 ADD PUSH1 0x20 DUP6 LT ISZERO PUSH3 0xDA6 JUMPI DUP2 SWAP1 POP JUMPDEST PUSH3 0xDBE PUSH3 0xDB5 DUP6 PUSH3 0xC53 JUMP JUMPDEST DUP4 ADD DUP3 PUSH3 0xD50 JUMP JUMPDEST POP POP JUMPDEST POP POP POP JUMP JUMPDEST PUSH0 DUP3 DUP3 SHR SWAP1 POP SWAP3 SWAP2 POP POP JUMP JUMPDEST PUSH0 PUSH3 0xDE3 PUSH0 NOT DUP5 PUSH1 0x8 MUL PUSH3 0xDC6 JUMP JUMPDEST NOT DUP1 DUP4 AND SWAP2 POP POP SWAP3 SWAP2 POP POP JUMP JUMPDEST PUSH0 PUSH3 0xDFD DUP4 DUP4 PUSH3 0xDD2 JUMP JUMPDEST SWAP2 POP DUP3 PUSH1 0x2 MUL DUP3 OR SWAP1 POP SWAP3 SWAP2 POP POP JUMP JUMPDEST PUSH3 0xE18 DUP3 PUSH3 0xBA9 JUMP JUMPDEST PUSH8 0xFFFFFFFFFFFFFFFF DUP2 GT ISZERO PUSH3 0xE34 JUMPI PUSH3 0xE33 PUSH3 0xBB3 JUMP JUMPDEST JUMPDEST PUSH3 0xE40 DUP3 SLOAD PUSH3 0xC0D JUMP JUMPDEST PUSH3 0xE4D DUP3 DUP3 DUP6 PUSH3 0xD76 JUMP JUMPDEST PUSH0 PUSH1 0x20 SWAP1 POP PUSH1 0x1F DUP4 GT PUSH1 0x1 DUP2 EQ PUSH3 0xE83 JUMPI PUSH0 DUP5 ISZERO PUSH3 0xE6E JUMPI DUP3 DUP8 ADD MLOAD SWAP1 POP JUMPDEST PUSH3 0xE7A DUP6 DUP3 PUSH3 0xDF0 JUMP JUMPDEST DUP7 SSTORE POP PUSH3 0xEE9 JUMP JUMPDEST PUSH1 0x1F NOT DUP5 AND PUSH3 0xE93 DUP7 PUSH3 0xC41 JUMP JUMPDEST PUSH0 JUMPDEST DUP3 DUP2 LT ISZERO PUSH3 0xEBC JUMPI DUP5 DUP10 ADD MLOAD DUP3 SSTORE PUSH1 0x1 DUP3 ADD SWAP2 POP PUSH1 0x20 DUP6 ADD SWAP5 POP PUSH1 0x20 DUP2 ADD SWAP1 POP PUSH3 0xE95 JUMP JUMPDEST DUP7 DUP4 LT ISZERO PUSH3 0xEDC JUMPI DUP5 DUP10 ADD MLOAD PUSH3 0xED8 PUSH1 0x1F DUP10 AND DUP3 PUSH3 0xDD2 JUMP JUMPDEST DUP4 SSTORE POP JUMPDEST PUSH1 0x1 PUSH1 0x2 DUP9 MUL ADD DUP9 SSTORE POP POP POP JUMPDEST POP POP POP POP POP POP JUMP JUMPDEST PUSH0 DUP2 SWAP1 POP SWAP2 SWAP1 POP JUMP JUMPDEST PUSH3 0xF05 DUP2 PUSH3 0xEF1 JUMP JUMPDEST DUP3 MSTORE POP POP JUMP JUMPDEST PUSH3 0xF16 DUP2 PUSH3 0xCC3 JUMP JUMPDEST DUP3 MSTORE POP POP JUMP JUMPDEST PUSH3 0xF27 DUP2 PUSH3 0xB24 JUMP JUMPDEST DUP3 MSTORE POP POP JUMP JUMPDEST PUSH0 PUSH1 0xA0 DUP3 ADD SWAP1 POP PUSH3 0xF42 PUSH0 DUP4 ADD DUP9 PUSH3 0xEFA JUMP JUMPDEST PUSH3 0xF51 PUSH1 0x20 DUP4 ADD DUP8 PUSH3 0xEFA JUMP JUMPDEST PUSH3 0xF60 PUSH1 0x40 DUP4 ADD DUP7 PUSH3 0xEFA JUMP JUMPDEST PUSH3 0xF6F PUSH1 0x60 DUP4 ADD DUP6 PUSH3 0xF0B JUMP JUMPDEST PUSH3 0xF7E PUSH1 0x80 DUP4 ADD DUP5 PUSH3 0xF1C JUMP JUMPDEST SWAP7 SWAP6 POP POP POP POP POP POP JUMP JUMPDEST PUSH0 PUSH6 0xFFFFFFFFFFFF DUP3 AND SWAP1 POP SWAP2 SWAP1 POP JUMP JUMPDEST PUSH0 PUSH3 0xFB9 PUSH3 0xFB3 PUSH3 0xFAD DUP5 PUSH3 0xF88 JUMP JUMPDEST PUSH3 0xCCC JUMP JUMPDEST PUSH3 0xCC3 JUMP JUMPDEST SWAP1 POP SWAP2 SWAP1 POP JUMP JUMPDEST PUSH3 0xFCB DUP2 PUSH3 0xF99 JUMP JUMPDEST DUP3 MSTORE POP POP JUMP JUMPDEST PUSH0 PUSH1 0x40 DUP3 ADD SWAP1 POP PUSH3 0xFE6 PUSH0 DUP4 ADD DUP6 PUSH3 0xFC0 JUMP JUMPDEST PUSH3 0xFF5 PUSH1 0x20 DUP4 ADD DUP5 PUSH3 0xFC0 JUMP JUMPDEST SWAP4 SWAP3 POP POP POP JUMP JUMPDEST PUSH0 DUP2 SWAP1 POP SWAP2 SWAP1 POP JUMP JUMPDEST PUSH0 PUSH3 0x1025 PUSH3 0x101F PUSH3 0x1019 DUP5 PUSH3 0xFFC JUMP JUMPDEST PUSH3 0xCCC JUMP JUMPDEST PUSH3 0xCC3 JUMP JUMPDEST SWAP1 POP SWAP2 SWAP1 POP JUMP JUMPDEST PUSH3 0x1037 DUP2 PUSH3 0x1005 JUMP JUMPDEST DUP3 MSTORE POP POP JUMP JUMPDEST PUSH0 PUSH1 0x20 DUP3 ADD SWAP1 POP PUSH3 0x1052 PUSH0 DUP4 ADD DUP5 PUSH3 0x102C JUMP JUMPDEST SWAP3 SWAP2 POP POP JUMP JUMPDEST PUSH0 PUSH4 0xFFFFFFFF DUP3 AND SWAP1 POP SWAP2 SWAP1 POP JUMP JUMPDEST PUSH0 PUSH3 0x1087 PUSH3 0x1081 PUSH3 0x107B DUP5 PUSH3 0x1058 JUMP JUMPDEST PUSH3 0xCCC JUMP JUMPDEST PUSH3 0xCC3 JUMP JUMPDEST SWAP1 POP SWAP2 SWAP1 POP JUMP JUMPDEST PUSH3 0x1099 DUP2 PUSH3 0x1067 JUMP JUMPDEST DUP3 MSTORE POP POP JUMP JUMPDEST PUSH0 PUSH1 0x40 DUP3 ADD SWAP1 POP PUSH3 0x10B4 PUSH0 DUP4 ADD DUP6 PUSH3 0x108E JUMP JUMPDEST PUSH3 0x10C3 PUSH1 0x20 DUP4 ADD DUP5 PUSH3 0x108E JUMP JUMPDEST SWAP4 SWAP3 POP POP POP JUMP JUMPDEST PUSH0 PUSH1 0x40 DUP3 ADD SWAP1 POP PUSH3 0x10DF PUSH0 DUP4 ADD DUP6 PUSH3 0xF0B JUMP JUMPDEST PUSH3 0x10EE PUSH1 0x20 DUP4 ADD DUP5 PUSH3 0xF0B JUMP JUMPDEST SWAP4 SWAP3 POP POP POP JUMP JUMPDEST PUSH0 DUP3 DUP3 MSTORE PUSH1 0x20 DUP3 ADD SWAP1 POP SWAP3 SWAP2 POP POP JUMP JUMPDEST PUSH0 JUMPDEST DUP4 DUP2 LT ISZERO PUSH3 0x1124 JUMPI DUP1 DUP3 ADD MLOAD DUP2 DUP5 ADD MSTORE PUSH1 0x20 DUP2 ADD SWAP1 POP PUSH3 0x1107 JUMP JUMPDEST PUSH0 DUP5 DUP5 ADD MSTORE POP POP POP POP JUMP JUMPDEST PUSH0 PUSH1 0x1F NOT PUSH1 0x1F DUP4 ADD AND SWAP1 POP SWAP2 SWAP1 POP JUMP JUMPDEST PUSH0 PUSH3 0x114B DUP3 PUSH3 0xBA9 JUMP JUMPDEST PUSH3 0x1157 DUP2 DUP6 PUSH3 0x10F5 JUMP JUMPDEST SWAP4 POP PUSH3 0x1169 DUP2 DUP6 PUSH1 0x20 DUP7 ADD PUSH3 0x1105 JUMP JUMPDEST PUSH3 0x1174 DUP2 PUSH3 0x112F JUMP JUMPDEST DUP5 ADD SWAP2 POP POP SWAP3 SWAP2 POP POP JUMP JUMPDEST PUSH0 PUSH1 0x20 DUP3 ADD SWAP1 POP DUP2 DUP2 SUB PUSH0 DUP4 ADD MSTORE PUSH3 0x1199 DUP2 DUP5 PUSH3 0x113F JUMP JUMPDEST SWAP1 POP SWAP3 SWAP2 POP POP JUMP JUMPDEST PUSH0 DUP2 MLOAD SWAP1 POP SWAP2 SWAP1 POP JUMP JUMPDEST PUSH0 DUP2 SWAP1 POP PUSH1 0x20 DUP3 ADD SWAP1 POP SWAP2 SWAP1 POP JUMP JUMPDEST PUSH0 PUSH3 0x11C7 DUP3 MLOAD PUSH3 0xEF1 JUMP JUMPDEST DUP1 SWAP2 POP POP SWAP2 SWAP1 POP JUMP JUMPDEST PUSH0 PUSH3 0x11DC DUP3 PUSH3 0x11A1 JUMP JUMPDEST DUP3 PUSH3 0x11E8 DUP5 PUSH3 0x11AB JUMP JUMPDEST SWAP1 POP PUSH3 0x11F5 DUP2 PUSH3 0x11BA JUMP JUMPDEST SWAP3 POP PUSH1 0x20 DUP3 LT ISZERO PUSH3 0x1238 JUMPI PUSH3 0x1233 PUSH32 0xFFFFFFFFFFFFFFFFFFFFFFFFFFFFFFFFFFFFFFFFFFFFFFFFFFFFFFFFFFFFFFFF DUP4 PUSH1 0x20 SUB PUSH1 0x8 MUL PUSH3 0xC62 JUMP JUMPDEST DUP4 AND SWAP3 POP JUMPDEST POP POP SWAP2 SWAP1 POP JUMP JUMPDEST PUSH3 0x124A DUP2 PUSH3 0xF88 JUMP JUMPDEST DUP2 EQ PUSH3 0x1255 JUMPI PUSH0 DUP1 REVERT JUMPDEST POP JUMP JUMPDEST PUSH0 DUP2 MLOAD SWAP1 POP PUSH3 0x1268 DUP2 PUSH3 0x123F JUMP JUMPDEST SWAP3 SWAP2 POP POP JUMP JUMPDEST PUSH0 PUSH1 0x20 DUP3 DUP5 SUB SLT ISZERO PUSH3 0x1286 JUMPI PUSH3 0x1285 PUSH3 0xB01 JUMP JUMPDEST JUMPDEST PUSH0 PUSH3 0x1295 DUP5 DUP3 DUP6 ADD PUSH3 0x1258 JUMP JUMPDEST SWAP2 POP POP SWAP3 SWAP2 POP POP JUMP JUMPDEST PUSH0 DUP2 SWAP1 POP SWAP2 SWAP1 POP JUMP JUMPDEST PUSH0 PUSH1 0xFF DUP3 AND SWAP1 POP SWAP2 SWAP1 POP JUMP JUMPDEST PUSH0 PUSH3 0x12D3 PUSH3 0x12CD PUSH3 0x12C7 DUP5 PUSH3 0x129E JUMP JUMPDEST PUSH3 0xCCC JUMP JUMPDEST PUSH3 0x12A7 JUMP JUMPDEST SWAP1 POP SWAP2 SWAP1 POP JUMP JUMPDEST PUSH3 0x12E5 DUP2 PUSH3 0x12B3 JUMP JUMPDEST DUP3 MSTORE POP POP JUMP JUMPDEST PUSH0 PUSH1 0x40 DUP3 ADD SWAP1 POP PUSH3 0x1300 PUSH0 DUP4 ADD DUP6 PUSH3 0x12DA JUMP JUMPDEST PUSH3 0x130F PUSH1 0x20 DUP4 ADD DUP5 PUSH3 0xF0B JUMP JUMPDEST SWAP4 SWAP3 POP POP POP JUMP JUMPDEST PUSH32 0x4E487B7100000000000000000000000000000000000000000000000000000000 PUSH0 MSTORE PUSH1 0x11 PUSH1 0x4 MSTORE PUSH1 0x24 PUSH0 REVERT JUMPDEST PUSH0 PUSH3 0x134F DUP3 PUSH3 0xCC3 JUMP JUMPDEST SWAP2 POP PUSH3 0x135C DUP4 PUSH3 0xCC3 JUMP JUMPDEST SWAP3 POP DUP3 DUP3 SUB SWAP1 POP DUP2 DUP2 GT ISZERO PUSH3 0x1377 JUMPI PUSH3 0x1376 PUSH3 0x1316 JUMP JUMPDEST JUMPDEST SWAP3 SWAP2 POP POP JUMP JUMPDEST PUSH0 DUP2 SWAP1 POP SWAP2 SWAP1 POP JUMP JUMPDEST PUSH0 PUSH3 0x13A6 PUSH3 0x13A0 PUSH3 0x139A DUP5 PUSH3 0x137D JUMP JUMPDEST PUSH3 0xCCC JUMP JUMPDEST PUSH3 0x12A7 JUMP JUMPDEST SWAP1 POP SWAP2 SWAP1 POP JUMP JUMPDEST PUSH3 0x13B8 DUP2 PUSH3 0x1386 JUMP JUMPDEST DUP3 MSTORE POP POP JUMP JUMPDEST PUSH0 PUSH1 0x40 DUP3 ADD SWAP1 POP PUSH3 0x13D3 PUSH0 DUP4 ADD DUP6 PUSH3 0x13AD JUMP JUMPDEST PUSH3 0x13E2 PUSH1 0x20 DUP4 ADD DUP5 PUSH3 0xF0B JUMP JUMPDEST SWAP4 SWAP3 POP POP POP JUMP JUMPDEST PUSH1 0x80 MLOAD PUSH1 0xA0 MLOAD PUSH1 0xC0 MLOAD PUSH1 0xE0 MLOAD PUSH2 0x100 MLOAD PUSH2 0x120 MLOAD PUSH2 0x140 MLOAD PUSH2 0x160 MLOAD PUSH2 0x6890 PUSH3 0x1445 PUSH0 CODECOPY PUSH0 PUSH2 0x1F24 ADD MSTORE PUSH0 PUSH2 0x2D9D ADD MSTORE PUSH0 PUSH2 0x2D62 ADD MSTORE PUSH0 PUSH2 0x3F49 ADD MSTORE PUSH0 PUSH2 0x3F28 ADD MSTORE PUSH0 PUSH2 0x3282 ADD MSTORE PUSH0 PUSH2 0x32D8 ADD MSTORE PUSH0 PUSH2 0x3301 ADD MSTORE PUSH2 0x6890 PUSH0 RETURN INVALID PUSH1 0x80 PUSH1 0x40 MSTORE PUSH1 0x4 CALLDATASIZE LT PUSH2 0x28B JUMPI PUSH0 CALLDATALOAD PUSH1 0xE0 SHR DUP1 PUSH4 0x7D5E81E2 GT PUSH2 0x159 JUMPI DUP1 PUSH4 0xBC197C81 GT PUSH2 0xC0 JUMPI DUP1 PUSH4 0xE540D01D GT PUSH2 0x79 JUMPI DUP1 PUSH4 0xE540D01D EQ PUSH2 0xB68 JUMPI DUP1 PUSH4 0xEB9019D4 EQ PUSH2 0xB90 JUMPI DUP1 PUSH4 0xECE40CC1 EQ PUSH2 0xBCC JUMPI DUP1 PUSH4 0xF23A6E61 EQ PUSH2 0xBF4 JUMPI DUP1 PUSH4 0xF8CE560A EQ PUSH2 0xC30 JUMPI DUP1 PUSH4 0xFC0C546A EQ PUSH2 0xC6C JUMPI PUSH2 0x2FE JUMP JUMPDEST DUP1 PUSH4 0xBC197C81 EQ PUSH2 0xA44 JUMPI DUP1 PUSH4 0xC01F9E37 EQ PUSH2 0xA80 JUMPI DUP1 PUSH4 0xC28BC2FA EQ PUSH2 0xABC JUMPI DUP1 PUSH4 0xC59057E4 EQ PUSH2 0xAD8 JUMPI DUP1 PUSH4 0xDD4E2BA5 EQ PUSH2 0xB14 JUMPI DUP1 PUSH4 0xDEAAA7CC EQ PUSH2 0xB3E JUMPI PUSH2 0x2FE JUMP JUMPDEST DUP1 PUSH4 0x9A802A6D GT PUSH2 0x112 JUMPI DUP1 PUSH4 0x9A802A6D EQ PUSH2 0x900 JUMPI DUP1 PUSH4 0xA7713A70 EQ PUSH2 0x93C JUMPI DUP1 PUSH4 0xA8F8A668 EQ PUSH2 0x966 JUMPI DUP1 PUSH4 0xA9A95294 EQ PUSH2 0x9A2 JUMPI DUP1 PUSH4 0xAB58FB8E EQ PUSH2 0x9DE JUMPI DUP1 PUSH4 0xB58131B0 EQ PUSH2 0xA1A JUMPI PUSH2 0x2FE JUMP JUMPDEST DUP1 PUSH4 0x7D5E81E2 EQ PUSH2 0x7C8 JUMPI DUP1 PUSH4 0x7ECEBE00 EQ PUSH2 0x804 JUMPI DUP1 PUSH4 0x84B0196E EQ PUSH2 0x840 JUMPI DUP1 PUSH4 0x8FF262E3 EQ PUSH2 0x870 JUMPI DUP1 PUSH4 0x91DDADF4 EQ PUSH2 0x8AC JUMPI DUP1 PUSH4 0x97C3D334 EQ PUSH2 0x8D6 JUMPI PUSH2 0x2FE JUMP JUMPDEST DUP1 PUSH4 0x3E4F49E6 GT PUSH2 0x1FD JUMPI DUP1 PUSH4 0x56781388 GT PUSH2 0x1B6 JUMPI DUP1 PUSH4 0x56781388 EQ PUSH2 0x674 JUMPI DUP1 PUSH4 0x5B8D0E0D EQ PUSH2 0x6B0 JUMPI DUP1 PUSH4 0x5F398A14 EQ PUSH2 0x6EC JUMPI DUP1 PUSH4 0x60C4247F EQ PUSH2 0x728 JUMPI DUP1 PUSH4 0x79051887 EQ PUSH2 0x764 JUMPI DUP1 PUSH4 0x7B3C71D3 EQ PUSH2 0x78C JUMPI PUSH2 0x2FE JUMP JUMPDEST DUP1 PUSH4 0x3E4F49E6 EQ PUSH2 0x52E JUMPI DUP1 PUSH4 0x43859632 EQ PUSH2 0x56A JUMPI DUP1 PUSH4 0x452115D6 EQ PUSH2 0x5A6 JUMPI DUP1 PUSH4 0x4BF5D7E9 EQ PUSH2 0x5E2 JUMPI DUP1 PUSH4 0x544FFC9C EQ PUSH2 0x60C JUMPI DUP1 PUSH4 0x54FD4D50 EQ PUSH2 0x64A JUMPI PUSH2 0x2FE JUMP JUMPDEST DUP1 PUSH4 0x150B7A02 GT PUSH2 0x24F JUMPI DUP1 PUSH4 0x150B7A02 EQ PUSH2 0x3F6 JUMPI DUP1 PUSH4 0x160CBED7 EQ PUSH2 0x432 JUMPI DUP1 PUSH4 0x2656227D EQ PUSH2 0x46E JUMPI DUP1 PUSH4 0x2D63F693 EQ PUSH2 0x49E JUMPI DUP1 PUSH4 0x2FE3E261 EQ PUSH2 0x4DA JUMPI DUP1 PUSH4 0x3932ABB1 EQ PUSH2 0x504 JUMPI PUSH2 0x2FE JUMP JUMPDEST DUP1 PUSH4 0x1FFC9A7 EQ PUSH2 0x302 JUMPI DUP1 PUSH4 0x2A251A3 EQ PUSH2 0x33E JUMPI DUP1 PUSH4 0x6F3F9E6 EQ PUSH2 0x368 JUMPI DUP1 PUSH4 0x6FDDE03 EQ PUSH2 0x390 JUMPI DUP1 PUSH4 0x143489D0 EQ PUSH2 0x3BA JUMPI PUSH2 0x2FE JUMP JUMPDEST CALLDATASIZE PUSH2 0x2FE JUMPI ADDRESS PUSH20 0xFFFFFFFFFFFFFFFFFFFFFFFFFFFFFFFFFFFFFFFF AND PUSH2 0x2AF PUSH2 0xC96 JUMP JUMPDEST PUSH20 0xFFFFFFFFFFFFFFFFFFFFFFFFFFFFFFFFFFFFFFFF AND EQ PUSH2 0x2FC JUMPI PUSH1 0x40 MLOAD PUSH32 0xE90A651E00000000000000000000000000000000000000000000000000000000 DUP2 MSTORE PUSH1 0x4 ADD PUSH1 0x40 MLOAD DUP1 SWAP2 SUB SWAP1 REVERT JUMPDEST STOP JUMPDEST PUSH0 DUP1 REVERT JUMPDEST CALLVALUE DUP1 ISZERO PUSH2 0x30D JUMPI PUSH0 DUP1 REVERT JUMPDEST POP PUSH2 0x328 PUSH1 0x4 DUP1 CALLDATASIZE SUB DUP2 ADD SWAP1 PUSH2 0x323 SWAP2 SWAP1 PUSH2 0x45EC JUMP JUMPDEST PUSH2 0xC9D JUMP JUMPDEST PUSH1 0x40 MLOAD PUSH2 0x335 SWAP2 SWAP1 PUSH2 0x4631 JUMP JUMPDEST PUSH1 0x40 MLOAD DUP1 SWAP2 SUB SWAP1 RETURN JUMPDEST CALLVALUE DUP1 ISZERO PUSH2 0x349 JUMPI PUSH0 DUP1 REVERT JUMPDEST POP PUSH2 0x352 PUSH2 0xDEF JUMP JUMPDEST PUSH1 0x40 MLOAD PUSH2 0x35F SWAP2 SWAP1 PUSH2 0x4662 JUMP JUMPDEST PUSH1 0x40 MLOAD DUP1 SWAP2 SUB SWAP1 RETURN JUMPDEST CALLVALUE DUP1 ISZERO PUSH2 0x373 JUMPI PUSH0 DUP1 REVERT JUMPDEST POP PUSH2 0x38E PUSH1 0x4 DUP1 CALLDATASIZE SUB DUP2 ADD SWAP1 PUSH2 0x389 SWAP2 SWAP1 PUSH2 0x46A5 JUMP JUMPDEST PUSH2 0xDFD JUMP JUMPDEST STOP JUMPDEST CALLVALUE DUP1 ISZERO PUSH2 0x39B JUMPI PUSH0 DUP1 REVERT JUMPDEST POP PUSH2 0x3A4 PUSH2 0xE11 JUMP JUMPDEST PUSH1 0x40 MLOAD PUSH2 0x3B1 SWAP2 SWAP1 PUSH2 0x475A JUMP JUMPDEST PUSH1 0x40 MLOAD DUP1 SWAP2 SUB SWAP1 RETURN JUMPDEST CALLVALUE DUP1 ISZERO PUSH2 0x3C5 JUMPI PUSH0 DUP1 REVERT JUMPDEST POP PUSH2 0x3E0 PUSH1 0x4 DUP1 CALLDATASIZE SUB DUP2 ADD SWAP1 PUSH2 0x3DB SWAP2 SWAP1 PUSH2 0x46A5 JUMP JUMPDEST PUSH2 0xEA1 JUMP JUMPDEST PUSH1 0x40 MLOAD PUSH2 0x3ED SWAP2 SWAP1 PUSH2 0x47B9 JUMP JUMPDEST PUSH1 0x40 MLOAD DUP1 SWAP2 SUB SWAP1 RETURN JUMPDEST CALLVALUE DUP1 ISZERO PUSH2 0x401 JUMPI PUSH0 DUP1 REVERT JUMPDEST POP PUSH2 0x41C PUSH1 0x4 DUP1 CALLDATASIZE SUB DUP2 ADD SWAP1 PUSH2 0x417 SWAP2 SWAP1 PUSH2 0x4928 JUMP JUMPDEST PUSH2 0xEDC JUMP JUMPDEST PUSH1 0x40 MLOAD PUSH2 0x429 SWAP2 SWAP1 PUSH2 0x49B7 JUMP JUMPDEST PUSH1 0x40 MLOAD DUP1 SWAP2 SUB SWAP1 RETURN JUMPDEST CALLVALUE DUP1 ISZERO PUSH2 0x43D JUMPI PUSH0 DUP1 REVERT JUMPDEST POP PUSH2 0x458 PUSH1 0x4 DUP1 CALLDATASIZE SUB DUP2 ADD SWAP1 PUSH2 0x453 SWAP2 SWAP1 PUSH2 0x4C65 JUMP JUMPDEST PUSH2 0xF5B JUMP JUMPDEST PUSH1 0x40 MLOAD PUSH2 0x465 SWAP2 SWAP1 PUSH2 0x4662 JUMP JUMPDEST PUSH1 0x40 MLOAD DUP1 SWAP2 SUB SWAP1 RETURN JUMPDEST PUSH2 0x488 PUSH1 0x4 DUP1 CALLDATASIZE SUB DUP2 ADD SWAP1 PUSH2 0x483 SWAP2 SWAP1 PUSH2 0x4C65 JUMP JUMPDEST PUSH2 0x1051 JUMP JUMPDEST PUSH1 0x40 MLOAD PUSH2 0x495 SWAP2 SWAP1 PUSH2 0x4662 JUMP JUMPDEST PUSH1 0x40 MLOAD DUP1 SWAP2 SUB SWAP1 RETURN JUMPDEST CALLVALUE DUP1 ISZERO PUSH2 0x4A9 JUMPI PUSH0 DUP1 REVERT JUMPDEST POP PUSH2 0x4C4 PUSH1 0x4 DUP1 CALLDATASIZE SUB DUP2 ADD SWAP1 PUSH2 0x4BF SWAP2 SWAP1 PUSH2 0x46A5 JUMP JUMPDEST PUSH2 0x1231 JUMP JUMPDEST PUSH1 0x40 MLOAD PUSH2 0x4D1 SWAP2 SWAP1 PUSH2 0x4662 JUMP JUMPDEST PUSH1 0x40 MLOAD DUP1 SWAP2 SUB SWAP1 RETURN JUMPDEST CALLVALUE DUP1 ISZERO PUSH2 0x4E5 JUMPI PUSH0 DUP1 REVERT JUMPDEST POP PUSH2 0x4EE PUSH2 0x1267 JUMP JUMPDEST PUSH1 0x40 MLOAD PUSH2 0x4FB SWAP2 SWAP1 PUSH2 0x4D2C JUMP JUMPDEST PUSH1 0x40 MLOAD DUP1 SWAP2 SUB SWAP1 RETURN JUMPDEST CALLVALUE DUP1 ISZERO PUSH2 0x50F JUMPI PUSH0 DUP1 REVERT JUMPDEST POP PUSH2 0x518 PUSH2 0x128B JUMP JUMPDEST PUSH1 0x40 MLOAD PUSH2 0x525 SWAP2 SWAP1 PUSH2 0x4662 JUMP JUMPDEST PUSH1 0x40 MLOAD DUP1 SWAP2 SUB SWAP1 RETURN JUMPDEST CALLVALUE DUP1 ISZERO PUSH2 0x539 JUMPI PUSH0 DUP1 REVERT JUMPDEST POP PUSH2 0x554 PUSH1 0x4 DUP1 CALLDATASIZE SUB DUP2 ADD SWAP1 PUSH2 0x54F SWAP2 SWAP1 PUSH2 0x46A5 JUMP JUMPDEST PUSH2 0x1299 JUMP JUMPDEST PUSH1 0x40 MLOAD PUSH2 0x561 SWAP2 SWAP1 PUSH2 0x4DB8 JUMP JUMPDEST PUSH1 0x40 MLOAD DUP1 SWAP2 SUB SWAP1 RETURN JUMPDEST CALLVALUE DUP1 ISZERO PUSH2 0x575 JUMPI PUSH0 DUP1 REVERT JUMPDEST POP PUSH2 0x590 PUSH1 0x4 DUP1 CALLDATASIZE SUB DUP2 ADD SWAP1 PUSH2 0x58B SWAP2 SWAP1 PUSH2 0x4DD1 JUMP JUMPDEST PUSH2 0x13F0 JUMP JUMPDEST PUSH1 0x40 MLOAD PUSH2 0x59D SWAP2 SWAP1 PUSH2 0x4631 JUMP JUMPDEST PUSH1 0x40 MLOAD DUP1 SWAP2 SUB SWAP1 RETURN JUMPDEST CALLVALUE DUP1 ISZERO PUSH2 0x5B1 JUMPI PUSH0 DUP1 REVERT JUMPDEST POP PUSH2 0x5CC PUSH1 0x4 DUP1 CALLDATASIZE SUB DUP2 ADD SWAP1 PUSH2 0x5C7 SWAP2 SWAP1 PUSH2 0x4C65 JUMP JUMPDEST PUSH2 0x1455 JUMP JUMPDEST PUSH1 0x40 MLOAD PUSH2 0x5D9 SWAP2 SWAP1 PUSH2 0x4662 JUMP JUMPDEST PUSH1 0x40 MLOAD DUP1 SWAP2 SUB SWAP1 RETURN JUMPDEST CALLVALUE DUP1 ISZERO PUSH2 0x5ED JUMPI PUSH0 DUP1 REVERT JUMPDEST POP PUSH2 0x5F6 PUSH2 0x14D5 JUMP JUMPDEST PUSH1 0x40 MLOAD PUSH2 0x603 SWAP2 SWAP1 PUSH2 0x475A JUMP JUMPDEST PUSH1 0x40 MLOAD DUP1 SWAP2 SUB SWAP1 RETURN JUMPDEST CALLVALUE DUP1 ISZERO PUSH2 0x617 JUMPI PUSH0 DUP1 REVERT JUMPDEST POP PUSH2 0x632 PUSH1 0x4 DUP1 CALLDATASIZE SUB DUP2 ADD SWAP1 PUSH2 0x62D SWAP2 SWAP1 PUSH2 0x46A5 JUMP JUMPDEST PUSH2 0x1592 JUMP JUMPDEST PUSH1 0x40 MLOAD PUSH2 0x641 SWAP4 SWAP3 SWAP2 SWAP1 PUSH2 0x4E0F JUMP JUMPDEST PUSH1 0x40 MLOAD DUP1 SWAP2 SUB SWAP1 RETURN JUMPDEST CALLVALUE DUP1 ISZERO PUSH2 0x655 JUMPI PUSH0 DUP1 REVERT JUMPDEST POP PUSH2 0x65E PUSH2 0x15C5 JUMP JUMPDEST PUSH1 0x40 MLOAD PUSH2 0x66B SWAP2 SWAP1 PUSH2 0x475A JUMP JUMPDEST PUSH1 0x40 MLOAD DUP1 SWAP2 SUB SWAP1 RETURN JUMPDEST CALLVALUE DUP1 ISZERO PUSH2 0x67F JUMPI PUSH0 DUP1 REVERT JUMPDEST POP PUSH2 0x69A PUSH1 0x4 DUP1 CALLDATASIZE SUB DUP2 ADD SWAP1 PUSH2 0x695 SWAP2 SWAP1 PUSH2 0x4E7A JUMP JUMPDEST PUSH2 0x1602 JUMP JUMPDEST PUSH1 0x40 MLOAD PUSH2 0x6A7 SWAP2 SWAP1 PUSH2 0x4662 JUMP JUMPDEST PUSH1 0x40 MLOAD DUP1 SWAP2 SUB SWAP1 RETURN JUMPDEST CALLVALUE DUP1 ISZERO PUSH2 0x6BB JUMPI PUSH0 DUP1 REVERT JUMPDEST POP PUSH2 0x6D6 PUSH1 0x4 DUP1 CALLDATASIZE SUB DUP2 ADD SWAP1 PUSH2 0x6D1 SWAP2 SWAP1 PUSH2 0x4F11 JUMP JUMPDEST PUSH2 0x1631 JUMP JUMPDEST PUSH1 0x40 MLOAD PUSH2 0x6E3 SWAP2 SWAP1 PUSH2 0x4662 JUMP JUMPDEST PUSH1 0x40 MLOAD DUP1 SWAP2 SUB SWAP1 RETURN JUMPDEST CALLVALUE DUP1 ISZERO PUSH2 0x6F7 JUMPI PUSH0 DUP1 REVERT JUMPDEST POP PUSH2 0x712 PUSH1 0x4 DUP1 CALLDATASIZE SUB DUP2 ADD SWAP1 PUSH2 0x70D SWAP2 SWAP1 PUSH2 0x4FF3 JUMP JUMPDEST PUSH2 0x1760 JUMP JUMPDEST PUSH1 0x40 MLOAD PUSH2 0x71F SWAP2 SWAP1 PUSH2 0x4662 JUMP JUMPDEST PUSH1 0x40 MLOAD DUP1 SWAP2 SUB SWAP1 RETURN JUMPDEST CALLVALUE DUP1 ISZERO PUSH2 0x733 JUMPI PUSH0 DUP1 REVERT JUMPDEST POP PUSH2 0x74E PUSH1 0x4 DUP1 CALLDATASIZE SUB DUP2 ADD SWAP1 PUSH2 0x749 SWAP2 SWAP1 PUSH2 0x46A5 JUMP JUMPDEST PUSH2 0x17C8 JUMP JUMPDEST PUSH1 0x40 MLOAD PUSH2 0x75B SWAP2 SWAP1 PUSH2 0x4662 JUMP JUMPDEST PUSH1 0x40 MLOAD DUP1 SWAP2 SUB SWAP1 RETURN JUMPDEST CALLVALUE DUP1 ISZERO PUSH2 0x76F JUMPI PUSH0 DUP1 REVERT JUMPDEST POP PUSH2 0x78A PUSH1 0x4 DUP1 CALLDATASIZE SUB DUP2 ADD SWAP1 PUSH2 0x785 SWAP2 SWAP1 PUSH2 0x50CE JUMP JUMPDEST PUSH2 0x17DB JUMP JUMPDEST STOP JUMPDEST CALLVALUE DUP1 ISZERO PUSH2 0x797 JUMPI PUSH0 DUP1 REVERT JUMPDEST POP PUSH2 0x7B2 PUSH1 0x4 DUP1 CALLDATASIZE SUB DUP2 ADD SWAP1 PUSH2 0x7AD SWAP2 SWAP1 PUSH2 0x50F9 JUMP JUMPDEST PUSH2 0x17EF JUMP JUMPDEST PUSH1 0x40 MLOAD PUSH2 0x7BF SWAP2 SWAP1 PUSH2 0x4662 JUMP JUMPDEST PUSH1 0x40 MLOAD DUP1 SWAP2 SUB SWAP1 RETURN JUMPDEST CALLVALUE DUP1 ISZERO PUSH2 0x7D3 JUMPI PUSH0 DUP1 REVERT JUMPDEST POP PUSH2 0x7EE PUSH1 0x4 DUP1 CALLDATASIZE SUB DUP2 ADD SWAP1 PUSH2 0x7E9 SWAP2 SWAP1 PUSH2 0x5208 JUMP JUMPDEST PUSH2 0x1855 JUMP JUMPDEST PUSH1 0x40 MLOAD PUSH2 0x7FB SWAP2 SWAP1 PUSH2 0x4662 JUMP JUMPDEST PUSH1 0x40 MLOAD DUP1 SWAP2 SUB SWAP1 RETURN JUMPDEST CALLVALUE DUP1 ISZERO PUSH2 0x80F JUMPI PUSH0 DUP1 REVERT JUMPDEST POP PUSH2 0x82A PUSH1 0x4 DUP1 CALLDATASIZE SUB DUP2 ADD SWAP1 PUSH2 0x825 SWAP2 SWAP1 PUSH2 0x52DC JUMP JUMPDEST PUSH2 0x194B JUMP JUMPDEST PUSH1 0x40 MLOAD PUSH2 0x837 SWAP2 SWAP1 PUSH2 0x4662 JUMP JUMPDEST PUSH1 0x40 MLOAD DUP1 SWAP2 SUB SWAP1 RETURN JUMPDEST CALLVALUE DUP1 ISZERO PUSH2 0x84B JUMPI PUSH0 DUP1 REVERT JUMPDEST POP PUSH2 0x854 PUSH2 0x1991 JUMP JUMPDEST PUSH1 0x40 MLOAD PUSH2 0x867 SWAP8 SWAP7 SWAP6 SWAP5 SWAP4 SWAP3 SWAP2 SWAP1 PUSH2 0x53F8 JUMP JUMPDEST PUSH1 0x40 MLOAD DUP1 SWAP2 SUB SWAP1 RETURN JUMPDEST CALLVALUE DUP1 ISZERO PUSH2 0x87B JUMPI PUSH0 DUP1 REVERT JUMPDEST POP PUSH2 0x896 PUSH1 0x4 DUP1 CALLDATASIZE SUB DUP2 ADD SWAP1 PUSH2 0x891 SWAP2 SWAP1 PUSH2 0x547A JUMP JUMPDEST PUSH2 0x1A36 JUMP JUMPDEST PUSH1 0x40 MLOAD PUSH2 0x8A3 SWAP2 SWAP1 PUSH2 0x4662 JUMP JUMPDEST PUSH1 0x40 MLOAD DUP1 SWAP2 SUB SWAP1 RETURN JUMPDEST CALLVALUE DUP1 ISZERO PUSH2 0x8B7 JUMPI PUSH0 DUP1 REVERT JUMPDEST POP PUSH2 0x8C0 PUSH2 0x1B0A JUMP JUMPDEST PUSH1 0x40 MLOAD PUSH2 0x8CD SWAP2 SWAP1 PUSH2 0x5509 JUMP JUMPDEST PUSH1 0x40 MLOAD DUP1 SWAP2 SUB SWAP1 RETURN JUMPDEST CALLVALUE DUP1 ISZERO PUSH2 0x8E1 JUMPI PUSH0 DUP1 REVERT JUMPDEST POP PUSH2 0x8EA PUSH2 0x1B95 JUMP JUMPDEST PUSH1 0x40 MLOAD PUSH2 0x8F7 SWAP2 SWAP1 PUSH2 0x4662 JUMP JUMPDEST PUSH1 0x40 MLOAD DUP1 SWAP2 SUB SWAP1 RETURN JUMPDEST CALLVALUE DUP1 ISZERO PUSH2 0x90B JUMPI PUSH0 DUP1 REVERT JUMPDEST POP PUSH2 0x926 PUSH1 0x4 DUP1 CALLDATASIZE SUB DUP2 ADD SWAP1 PUSH2 0x921 SWAP2 SWAP1 PUSH2 0x5522 JUMP JUMPDEST PUSH2 0x1B9D JUMP JUMPDEST PUSH1 0x40 MLOAD PUSH2 0x933 SWAP2 SWAP1 PUSH2 0x4662 JUMP JUMPDEST PUSH1 0x40 MLOAD DUP1 SWAP2 SUB SWAP1 RETURN JUMPDEST CALLVALUE DUP1 ISZERO PUSH2 0x947 JUMPI PUSH0 DUP1 REVERT JUMPDEST POP PUSH2 0x950 PUSH2 0x1BB2 JUMP JUMPDEST PUSH1 0x40 MLOAD PUSH2 0x95D SWAP2 SWAP1 PUSH2 0x4662 JUMP JUMPDEST PUSH1 0x40 MLOAD DUP1 SWAP2 SUB SWAP1 RETURN JUMPDEST CALLVALUE DUP1 ISZERO PUSH2 0x971 JUMPI PUSH0 DUP1 REVERT JUMPDEST POP PUSH2 0x98C PUSH1 0x4 DUP1 CALLDATASIZE SUB DUP2 ADD SWAP1 PUSH2 0x987 SWAP2 SWAP1 PUSH2 0x4C65 JUMP JUMPDEST PUSH2 0x1BDE JUMP JUMPDEST PUSH1 0x40 MLOAD PUSH2 0x999 SWAP2 SWAP1 PUSH2 0x4662 JUMP JUMPDEST PUSH1 0x40 MLOAD DUP1 SWAP2 SUB SWAP1 RETURN JUMPDEST CALLVALUE DUP1 ISZERO PUSH2 0x9AD JUMPI PUSH0 DUP1 REVERT JUMPDEST POP PUSH2 0x9C8 PUSH1 0x4 DUP1 CALLDATASIZE SUB DUP2 ADD SWAP1 PUSH2 0x9C3 SWAP2 SWAP1 PUSH2 0x46A5 JUMP JUMPDEST PUSH2 0x1BF5 JUMP JUMPDEST PUSH1 0x40 MLOAD PUSH2 0x9D5 SWAP2 SWAP1 PUSH2 0x4631 JUMP JUMPDEST PUSH1 0x40 MLOAD DUP1 SWAP2 SUB SWAP1 RETURN JUMPDEST CALLVALUE DUP1 ISZERO PUSH2 0x9E9 JUMPI PUSH0 DUP1 REVERT JUMPDEST POP PUSH2 0xA04 PUSH1 0x4 DUP1 CALLDATASIZE SUB DUP2 ADD SWAP1 PUSH2 0x9FF SWAP2 SWAP1 PUSH2 0x46A5 JUMP JUMPDEST PUSH2 0x1BFB JUMP JUMPDEST PUSH1 0x40 MLOAD PUSH2 0xA11 SWAP2 SWAP1 PUSH2 0x4662 JUMP JUMPDEST PUSH1 0x40 MLOAD DUP1 SWAP2 SUB SWAP1 RETURN JUMPDEST CALLVALUE DUP1 ISZERO PUSH2 0xA25 JUMPI PUSH0 DUP1 REVERT JUMPDEST POP PUSH2 0xA2E PUSH2 0x1C31 JUMP JUMPDEST PUSH1 0x40 MLOAD PUSH2 0xA3B SWAP2 SWAP1 PUSH2 0x4662 JUMP JUMPDEST PUSH1 0x40 MLOAD DUP1 SWAP2 SUB SWAP1 RETURN JUMPDEST CALLVALUE DUP1 ISZERO PUSH2 0xA4F JUMPI PUSH0 DUP1 REVERT JUMPDEST POP PUSH2 0xA6A PUSH1 0x4 DUP1 CALLDATASIZE SUB DUP2 ADD SWAP1 PUSH2 0xA65 SWAP2 SWAP1 PUSH2 0x558E JUMP JUMPDEST PUSH2 0x1C3F JUMP JUMPDEST PUSH1 0x40 MLOAD PUSH2 0xA77 SWAP2 SWAP1 PUSH2 0x49B7 JUMP JUMPDEST PUSH1 0x40 MLOAD DUP1 SWAP2 SUB SWAP1 RETURN JUMPDEST CALLVALUE DUP1 ISZERO PUSH2 0xA8B JUMPI PUSH0 DUP1 REVERT JUMPDEST POP PUSH2 0xAA6 PUSH1 0x4 DUP1 CALLDATASIZE SUB DUP2 ADD SWAP1 PUSH2 0xAA1 SWAP2 SWAP1 PUSH2 0x46A5 JUMP JUMPDEST PUSH2 0x1CBF JUMP JUMPDEST PUSH1 0x40 MLOAD PUSH2 0xAB3 SWAP2 SWAP1 PUSH2 0x4662 JUMP JUMPDEST PUSH1 0x40 MLOAD DUP1 SWAP2 SUB SWAP1 RETURN JUMPDEST PUSH2 0xAD6 PUSH1 0x4 DUP1 CALLDATASIZE SUB DUP2 ADD SWAP1 PUSH2 0xAD1 SWAP2 SWAP1 PUSH2 0x56AE JUMP JUMPDEST PUSH2 0x1D29 JUMP JUMPDEST STOP JUMPDEST CALLVALUE DUP1 ISZERO PUSH2 0xAE3 JUMPI PUSH0 DUP1 REVERT JUMPDEST POP PUSH2 0xAFE PUSH1 0x4 DUP1 CALLDATASIZE SUB DUP2 ADD SWAP1 PUSH2 0xAF9 SWAP2 SWAP1 PUSH2 0x4C65 JUMP JUMPDEST PUSH2 0x1DB2 JUMP JUMPDEST PUSH1 0x40 MLOAD PUSH2 0xB0B SWAP2 SWAP1 PUSH2 0x4662 JUMP JUMPDEST PUSH1 0x40 MLOAD DUP1 SWAP2 SUB SWAP1 RETURN JUMPDEST CALLVALUE DUP1 ISZERO PUSH2 0xB1F JUMPI PUSH0 DUP1 REVERT JUMPDEST POP PUSH2 0xB28 PUSH2 0x1DEC JUMP JUMPDEST PUSH1 0x40 MLOAD PUSH2 0xB35 SWAP2 SWAP1 PUSH2 0x475A JUMP JUMPDEST PUSH1 0x40 MLOAD DUP1 SWAP2 SUB SWAP1 RETURN JUMPDEST CALLVALUE DUP1 ISZERO PUSH2 0xB49 JUMPI PUSH0 DUP1 REVERT JUMPDEST POP PUSH2 0xB52 PUSH2 0x1E29 JUMP JUMPDEST PUSH1 0x40 MLOAD PUSH2 0xB5F SWAP2 SWAP1 PUSH2 0x4D2C JUMP JUMPDEST PUSH1 0x40 MLOAD DUP1 SWAP2 SUB SWAP1 RETURN JUMPDEST CALLVALUE DUP1 ISZERO PUSH2 0xB73 JUMPI PUSH0 DUP1 REVERT JUMPDEST POP PUSH2 0xB8E PUSH1 0x4 DUP1 CALLDATASIZE SUB DUP2 ADD SWAP1 PUSH2 0xB89 SWAP2 SWAP1 PUSH2 0x5758 JUMP JUMPDEST PUSH2 0x1E4D JUMP JUMPDEST STOP JUMPDEST CALLVALUE DUP1 ISZERO PUSH2 0xB9B JUMPI PUSH0 DUP1 REVERT JUMPDEST POP PUSH2 0xBB6 PUSH1 0x4 DUP1 CALLDATASIZE SUB DUP2 ADD SWAP1 PUSH2 0xBB1 SWAP2 SWAP1 PUSH2 0x5783 JUMP JUMPDEST PUSH2 0x1E61 JUMP JUMPDEST PUSH1 0x40 MLOAD PUSH2 0xBC3 SWAP2 SWAP1 PUSH2 0x4662 JUMP JUMPDEST PUSH1 0x40 MLOAD DUP1 SWAP2 SUB SWAP1 RETURN JUMPDEST CALLVALUE DUP1 ISZERO PUSH2 0xBD7 JUMPI PUSH0 DUP1 REVERT JUMPDEST POP PUSH2 0xBF2 PUSH1 0x4 DUP1 CALLDATASIZE SUB DUP2 ADD SWAP1 PUSH2 0xBED SWAP2 SWAP1 PUSH2 0x46A5 JUMP JUMPDEST PUSH2 0x1E7C JUMP JUMPDEST STOP JUMPDEST CALLVALUE DUP1 ISZERO PUSH2 0xBFF JUMPI PUSH0 DUP1 REVERT JUMPDEST POP PUSH2 0xC1A PUSH1 0x4 DUP1 CALLDATASIZE SUB DUP2 ADD SWAP1 PUSH2 0xC15 SWAP2 SWAP1 PUSH2 0x57C1 JUMP JUMPDEST PUSH2 0x1E90 JUMP JUMPDEST PUSH1 0x40 MLOAD PUSH2 0xC27 SWAP2 SWAP1 PUSH2 0x49B7 JUMP JUMPDEST PUSH1 0x40 MLOAD DUP1 SWAP2 SUB SWAP1 RETURN JUMPDEST CALLVALUE DUP1 ISZERO PUSH2 0xC3B JUMPI PUSH0 DUP1 REVERT JUMPDEST POP PUSH2 0xC56 PUSH1 0x4 DUP1 CALLDATASIZE SUB DUP2 ADD SWAP1 PUSH2 0xC51 SWAP2 SWAP1 PUSH2 0x46A5 JUMP JUMPDEST PUSH2 0x1F10 JUMP JUMPDEST PUSH1 0x40 MLOAD PUSH2 0xC63 SWAP2 SWAP1 PUSH2 0x4662 JUMP JUMPDEST PUSH1 0x40 MLOAD DUP1 SWAP2 SUB SWAP1 RETURN JUMPDEST CALLVALUE DUP1 ISZERO PUSH2 0xC77 JUMPI PUSH0 DUP1 REVERT JUMPDEST POP PUSH2 0xC80 PUSH2 0x1F21 JUMP JUMPDEST PUSH1 0x40 MLOAD PUSH2 0xC8D SWAP2 SWAP1 PUSH2 0x58AF JUMP JUMPDEST PUSH1 0x40 MLOAD DUP1 SWAP2 SUB SWAP1 RETURN JUMPDEST PUSH0 ADDRESS SWAP1 POP SWAP1 JUMP JUMPDEST PUSH0 PUSH32 0xCDBDFCEE00000000000000000000000000000000000000000000000000000000 PUSH28 0xFFFFFFFFFFFFFFFFFFFFFFFFFFFFFFFFFFFFFFFFFFFFFFFFFFFFFFFF NOT AND DUP3 PUSH28 0xFFFFFFFFFFFFFFFFFFFFFFFFFFFFFFFFFFFFFFFFFFFFFFFFFFFFFFFF NOT AND EQ DUP1 PUSH2 0xD70 JUMPI POP PUSH4 0xA8F8A668 PUSH1 0xE0 SHL PUSH32 0xCDBDFCEE00000000000000000000000000000000000000000000000000000000 XOR PUSH28 0xFFFFFFFFFFFFFFFFFFFFFFFFFFFFFFFFFFFFFFFFFFFFFFFFFFFFFFFF NOT AND DUP3 PUSH28 0xFFFFFFFFFFFFFFFFFFFFFFFFFFFFFFFFFFFFFFFFFFFFFFFFFFFFFFFF NOT AND EQ JUMPDEST DUP1 PUSH2 0xDD8 JUMPI POP PUSH32 0x4E2312E000000000000000000000000000000000000000000000000000000000 PUSH28 0xFFFFFFFFFFFFFFFFFFFFFFFFFFFFFFFFFFFFFFFFFFFFFFFFFFFFFFFF NOT AND DUP3 PUSH28 0xFFFFFFFFFFFFFFFFFFFFFFFFFFFFFFFFFFFFFFFFFFFFFFFFFFFFFFFF NOT AND EQ JUMPDEST DUP1 PUSH2 0xDE8 JUMPI POP PUSH2 0xDE7 DUP3 PUSH2 0x1F48 JUMP JUMPDEST JUMPDEST SWAP1 POP SWAP2 SWAP1 POP JUMP JUMPDEST PUSH0 PUSH2 0xDF8 PUSH2 0x1FB1 JUMP JUMPDEST SWAP1 POP SWAP1 JUMP JUMPDEST PUSH2 0xE05 PUSH2 0x1FD0 JUMP JUMPDEST PUSH2 0xE0E DUP2 PUSH2 0x20C5 JUMP JUMPDEST POP JUMP JUMPDEST PUSH1 0x60 PUSH1 0x3 DUP1 SLOAD PUSH2 0xE20 SWAP1 PUSH2 0x58F5 JUMP JUMPDEST DUP1 PUSH1 0x1F ADD PUSH1 0x20 DUP1 SWAP2 DIV MUL PUSH1 0x20 ADD PUSH1 0x40 MLOAD SWAP1 DUP2 ADD PUSH1 0x40 MSTORE DUP1 SWAP3 SWAP2 SWAP1 DUP2 DUP2 MSTORE PUSH1 0x20 ADD DUP3 DUP1 SLOAD PUSH2 0xE4C SWAP1 PUSH2 0x58F5 JUMP JUMPDEST DUP1 ISZERO PUSH2 0xE97 JUMPI DUP1 PUSH1 0x1F LT PUSH2 0xE6E JUMPI PUSH2 0x100 DUP1 DUP4 SLOAD DIV MUL DUP4 MSTORE SWAP2 PUSH1 0x20 ADD SWAP2 PUSH2 0xE97 JUMP JUMPDEST DUP3 ADD SWAP2 SWAP1 PUSH0 MSTORE PUSH1 0x20 PUSH0 KECCAK256 SWAP1 JUMPDEST DUP2 SLOAD DUP2 MSTORE SWAP1 PUSH1 0x1 ADD SWAP1 PUSH1 0x20 ADD DUP1 DUP4 GT PUSH2 0xE7A JUMPI DUP3 SWAP1 SUB PUSH1 0x1F AND DUP3 ADD SWAP2 JUMPDEST POP POP POP POP POP SWAP1 POP SWAP1 JUMP JUMPDEST PUSH0 PUSH1 0x4 PUSH0 DUP4 DUP2 MSTORE PUSH1 0x20 ADD SWAP1 DUP2 MSTORE PUSH1 0x20 ADD PUSH0 KECCAK256 PUSH0 ADD PUSH0 SWAP1 SLOAD SWAP1 PUSH2 0x100 EXP SWAP1 DIV PUSH20 0xFFFFFFFFFFFFFFFFFFFFFFFFFFFFFFFFFFFFFFFF AND SWAP1 POP SWAP2 SWAP1 POP JUMP JUMPDEST PUSH0 ADDRESS PUSH20 0xFFFFFFFFFFFFFFFFFFFFFFFFFFFFFFFFFFFFFFFF AND PUSH2 0xEFC PUSH2 0xC96 JUMP JUMPDEST PUSH20 0xFFFFFFFFFFFFFFFFFFFFFFFFFFFFFFFFFFFFFFFF AND EQ PUSH2 0xF49 JUMPI PUSH1 0x40 MLOAD PUSH32 0xE90A651E00000000000000000000000000000000000000000000000000000000 DUP2 MSTORE PUSH1 0x4 ADD PUSH1 0x40 MLOAD DUP1 SWAP2 SUB SWAP1 REVERT JUMPDEST PUSH4 0x150B7A02 PUSH1 0xE0 SHL SWAP1 POP SWAP5 SWAP4 POP POP POP POP JUMP JUMPDEST PUSH0 DUP1 PUSH2 0xF69 DUP7 DUP7 DUP7 DUP7 PUSH2 0x1BDE JUMP JUMPDEST SWAP1 POP PUSH2 0xF7E DUP2 PUSH2 0xF79 PUSH1 0x4 PUSH2 0x2187 JUMP JUMPDEST PUSH2 0x21AB JUMP JUMPDEST POP PUSH0 PUSH2 0xF8D DUP3 DUP9 DUP9 DUP9 DUP9 PUSH2 0x2216 JUMP JUMPDEST SWAP1 POP PUSH0 DUP2 PUSH6 0xFFFFFFFFFFFF AND EQ PUSH2 0x1012 JUMPI DUP1 PUSH1 0x4 PUSH0 DUP5 DUP2 MSTORE PUSH1 0x20 ADD SWAP1 DUP2 MSTORE PUSH1 0x20 ADD PUSH0 KECCAK256 PUSH1 0x1 ADD PUSH0 PUSH2 0x100 EXP DUP2 SLOAD DUP2 PUSH6 0xFFFFFFFFFFFF MUL NOT AND SWAP1 DUP4 PUSH6 0xFFFFFFFFFFFF AND MUL OR SWAP1 SSTORE POP PUSH32 0x9A2E42FD6722813D69113E7D0079D3D940171428DF7373DF9C7F7617CFDA2892 DUP3 DUP3 PUSH1 0x40 MLOAD PUSH2 0x1005 SWAP3 SWAP2 SWAP1 PUSH2 0x5955 JUMP JUMPDEST PUSH1 0x40 MLOAD DUP1 SWAP2 SUB SWAP1 LOG1 PUSH2 0x1044 JUMP JUMPDEST PUSH1 0x40 MLOAD PUSH32 0x90884A4600000000000000000000000000000000000000000000000000000000 DUP2 MSTORE PUSH1 0x4 ADD PUSH1 0x40 MLOAD DUP1 SWAP2 SUB SWAP1 REVERT JUMPDEST DUP2 SWAP3 POP POP POP SWAP5 SWAP4 POP POP POP POP JUMP JUMPDEST PUSH0 DUP1 PUSH2 0x105F DUP7 DUP7 DUP7 DUP7 PUSH2 0x1BDE JUMP JUMPDEST SWAP1 POP PUSH2 0x107F DUP2 PUSH2 0x106F PUSH1 0x5 PUSH2 0x2187 JUMP JUMPDEST PUSH2 0x1079 PUSH1 0x4 PUSH2 0x2187 JUMP JUMPDEST OR PUSH2 0x21AB JUMP JUMPDEST POP PUSH1 0x1 PUSH1 0x4 PUSH0 DUP4 DUP2 MSTORE PUSH1 0x20 ADD SWAP1 DUP2 MSTORE PUSH1 0x20 ADD PUSH0 KECCAK256 PUSH0 ADD PUSH1 0x1E PUSH2 0x100 EXP DUP2 SLOAD DUP2 PUSH1 0xFF MUL NOT AND SWAP1 DUP4 ISZERO ISZERO MUL OR SWAP1 SSTORE POP ADDRESS PUSH20 0xFFFFFFFFFFFFFFFFFFFFFFFFFFFFFFFFFFFFFFFF AND PUSH2 0x10CB PUSH2 0xC96 JUMP JUMPDEST PUSH20 0xFFFFFFFFFFFFFFFFFFFFFFFFFFFFFFFFFFFFFFFF AND EQ PUSH2 0x1187 JUMPI PUSH0 JUMPDEST DUP7 MLOAD DUP2 LT ISZERO PUSH2 0x1185 JUMPI ADDRESS PUSH20 0xFFFFFFFFFFFFFFFFFFFFFFFFFFFFFFFFFFFFFFFF AND DUP8 DUP3 DUP2 MLOAD DUP2 LT PUSH2 0x111B JUMPI PUSH2 0x111A PUSH2 0x597C JUMP JUMPDEST JUMPDEST PUSH1 0x20 MUL PUSH1 0x20 ADD ADD MLOAD PUSH20 0xFFFFFFFFFFFFFFFFFFFFFFFFFFFFFFFFFFFFFFFF AND SUB PUSH2 0x1174 JUMPI PUSH2 0x1173 DUP6 DUP3 DUP2 MLOAD DUP2 LT PUSH2 0x1154 JUMPI PUSH2 0x1153 PUSH2 0x597C JUMP JUMPDEST JUMPDEST PUSH1 0x20 MUL PUSH1 0x20 ADD ADD MLOAD DUP1 MLOAD SWAP1 PUSH1 0x20 ADD KECCAK256 PUSH1 0x5 PUSH2 0x2220 SWAP1 SWAP2 SWAP1 PUSH4 0xFFFFFFFF AND JUMP JUMPDEST JUMPDEST DUP1 PUSH2 0x117E SWAP1 PUSH2 0x59D6 JUMP JUMPDEST SWAP1 POP PUSH2 0x10E8 JUMP JUMPDEST POP JUMPDEST PUSH2 0x1194 DUP2 DUP8 DUP8 DUP8 DUP8 PUSH2 0x2318 JUMP JUMPDEST ADDRESS PUSH20 0xFFFFFFFFFFFFFFFFFFFFFFFFFFFFFFFFFFFFFFFF AND PUSH2 0x11B3 PUSH2 0xC96 JUMP JUMPDEST PUSH20 0xFFFFFFFFFFFFFFFFFFFFFFFFFFFFFFFFFFFFFFFF AND EQ ISZERO DUP1 ISZERO PUSH2 0x11DE JUMPI POP PUSH2 0x11DC PUSH1 0x5 PUSH2 0x2403 JUMP JUMPDEST ISZERO JUMPDEST ISZERO PUSH2 0x11EE JUMPI PUSH2 0x11ED PUSH1 0x5 PUSH2 0x246F JUMP JUMPDEST JUMPDEST PUSH32 0x712AE1383F79AC853F8D882153778E0260EF8F03B504E2866E0593E04D2B291F DUP2 PUSH1 0x40 MLOAD PUSH2 0x121D SWAP2 SWAP1 PUSH2 0x4662 JUMP JUMPDEST PUSH1 0x40 MLOAD DUP1 SWAP2 SUB SWAP1 LOG1 DUP1 SWAP2 POP POP SWAP5 SWAP4 POP POP POP POP JUMP JUMPDEST PUSH0 PUSH1 0x4 PUSH0 DUP4 DUP2 MSTORE PUSH1 0x20 ADD SWAP1 DUP2 MSTORE PUSH1 0x20 ADD PUSH0 KECCAK256 PUSH0 ADD PUSH1 0x14 SWAP1 SLOAD SWAP1 PUSH2 0x100 EXP SWAP1 DIV PUSH6 0xFFFFFFFFFFFF AND PUSH6 0xFFFFFFFFFFFF AND SWAP1 POP SWAP2 SWAP1 POP JUMP JUMPDEST PUSH32 0x3E83946653575F9A39005E1545185629E92736B7528AB20CA3816F315424A811 DUP2 JUMP JUMPDEST PUSH0 PUSH2 0x1294 PUSH2 0x24E5 JUMP JUMPDEST SWAP1 POP SWAP1 JUMP JUMPDEST PUSH0 DUP1 PUSH1 0x4 PUSH0 DUP5 DUP2 MSTORE PUSH1 0x20 ADD SWAP1 DUP2 MSTORE PUSH1 0x20 ADD PUSH0 KECCAK256 SWAP1 POP PUSH0 DUP2 PUSH0 ADD PUSH1 0x1E SWAP1 SLOAD SWAP1 PUSH2 0x100 EXP SWAP1 DIV PUSH1 0xFF AND SWAP1 POP PUSH0 DUP3 PUSH0 ADD PUSH1 0x1F SWAP1 SLOAD SWAP1 PUSH2 0x100 EXP SWAP1 DIV PUSH1 0xFF AND SWAP1 POP DUP2 ISZERO PUSH2 0x12E8 JUMPI PUSH1 0x7 SWAP4 POP POP POP POP PUSH2 0x13EB JUMP JUMPDEST DUP1 ISZERO PUSH2 0x12FA JUMPI PUSH1 0x2 SWAP4 POP POP POP POP PUSH2 0x13EB JUMP JUMPDEST PUSH0 PUSH2 0x1304 DUP7 PUSH2 0x1231 JUMP JUMPDEST SWAP1 POP PUSH0 DUP2 SUB PUSH2 0x134A JUMPI DUP6 PUSH1 0x40 MLOAD PUSH32 0x6AD0607500000000000000000000000000000000000000000000000000000000 DUP2 MSTORE PUSH1 0x4 ADD PUSH2 0x1341 SWAP2 SWAP1 PUSH2 0x4662 JUMP JUMPDEST PUSH1 0x40 MLOAD DUP1 SWAP2 SUB SWAP1 REVERT JUMPDEST PUSH0 PUSH2 0x1353 PUSH2 0x1B0A JUMP JUMPDEST PUSH6 0xFFFFFFFFFFFF AND SWAP1 POP DUP1 DUP3 LT PUSH2 0x1371 JUMPI PUSH0 SWAP6 POP POP POP POP POP POP PUSH2 0x13EB JUMP JUMPDEST PUSH0 PUSH2 0x137B DUP9 PUSH2 0x1CBF JUMP JUMPDEST SWAP1 POP DUP2 DUP2 LT PUSH2 0x1393 JUMPI PUSH1 0x1 SWAP7 POP POP POP POP POP POP POP PUSH2 0x13EB JUMP JUMPDEST PUSH2 0x139C DUP9 PUSH2 0x2507 JUMP JUMPDEST ISZERO DUP1 PUSH2 0x13AE JUMPI POP PUSH2 0x13AC DUP9 PUSH2 0x254B JUMP JUMPDEST ISZERO JUMPDEST ISZERO PUSH2 0x13C2 JUMPI PUSH1 0x3 SWAP7 POP POP POP POP POP POP POP PUSH2 0x13EB JUMP JUMPDEST PUSH0 PUSH2 0x13CC DUP10 PUSH2 0x1BFB JUMP JUMPDEST SUB PUSH2 0x13E0 JUMPI PUSH1 0x4 SWAP7 POP POP POP POP POP POP POP PUSH2 0x13EB JUMP JUMPDEST PUSH1 0x5 SWAP7 POP POP POP POP POP POP POP JUMPDEST SWAP2 SWAP1 POP JUMP JUMPDEST PUSH0 PUSH1 0x9 PUSH0 DUP5 DUP2 MSTORE PUSH1 0x20 ADD SWAP1 DUP2 MSTORE PUSH1 0x20 ADD PUSH0 KECCAK256 PUSH1 0x3 ADD PUSH0 DUP4 PUSH20 0xFFFFFFFFFFFFFFFFFFFFFFFFFFFFFFFFFFFFFFFF AND PUSH20 0xFFFFFFFFFFFFFFFFFFFFFFFFFFFFFFFFFFFFFFFF AND DUP2 MSTORE PUSH1 0x20 ADD SWAP1 DUP2 MSTORE PUSH1 0x20 ADD PUSH0 KECCAK256 PUSH0 SWAP1 SLOAD SWAP1 PUSH2 0x100 EXP SWAP1 DIV PUSH1 0xFF AND SWAP1 POP SWAP3 SWAP2 POP POP JUMP JUMPDEST PUSH0 DUP1 PUSH2 0x1463 DUP7 DUP7 DUP7 DUP7 PUSH2 0x1BDE JUMP JUMPDEST SWAP1 POP PUSH0 PUSH2 0x146E PUSH2 0x2572 JUMP JUMPDEST SWAP1 POP PUSH2 0x147A DUP3 DUP3 PUSH2 0x2579 JUMP JUMPDEST PUSH2 0x14BD JUMPI DUP2 DUP2 PUSH1 0x40 MLOAD PUSH32 0x8FE5D8A900000000000000000000000000000000000000000000000000000000 DUP2 MSTORE PUSH1 0x4 ADD PUSH2 0x14B4 SWAP3 SWAP2 SWAP1 PUSH2 0x5A1D JUMP JUMPDEST PUSH1 0x40 MLOAD DUP1 SWAP2 SUB SWAP1 REVERT JUMPDEST PUSH2 0x14C9 DUP8 DUP8 DUP8 DUP8 PUSH2 0x25F0 JUMP JUMPDEST SWAP3 POP POP POP SWAP5 SWAP4 POP POP POP POP JUMP JUMPDEST PUSH1 0x60 PUSH2 0x14DF PUSH2 0x1F21 JUMP JUMPDEST PUSH20 0xFFFFFFFFFFFFFFFFFFFFFFFFFFFFFFFFFFFFFFFF AND PUSH4 0x4BF5D7E9 PUSH1 0x40 MLOAD DUP2 PUSH4 0xFFFFFFFF AND PUSH1 0xE0 SHL DUP2 MSTORE PUSH1 0x4 ADD PUSH0 PUSH1 0x40 MLOAD DUP1 DUP4 SUB DUP2 DUP7 GAS STATICCALL SWAP3 POP POP POP DUP1 ISZERO PUSH2 0x1549 JUMPI POP PUSH1 0x40 MLOAD RETURNDATASIZE PUSH0 DUP3 RETURNDATACOPY RETURNDATASIZE PUSH1 0x1F NOT PUSH1 0x1F DUP3 ADD AND DUP3 ADD DUP1 PUSH1 0x40 MSTORE POP DUP2 ADD SWAP1 PUSH2 0x1546 SWAP2 SWAP1 PUSH2 0x5AB2 JUMP JUMPDEST PUSH1 0x1 JUMPDEST PUSH2 0x158A JUMPI PUSH1 0x40 MLOAD DUP1 PUSH1 0x40 ADD PUSH1 0x40 MSTORE DUP1 PUSH1 0x1D DUP2 MSTORE PUSH1 0x20 ADD PUSH32 0x6D6F64653D626C6F636B6E756D6265722666726F6D3D64656661756C74000000 DUP2 MSTORE POP SWAP1 POP PUSH2 0x158F JUMP JUMPDEST DUP1 SWAP2 POP POP JUMPDEST SWAP1 JUMP JUMPDEST PUSH0 DUP1 PUSH0 DUP1 PUSH1 0x9 PUSH0 DUP7 DUP2 MSTORE PUSH1 0x20 ADD SWAP1 DUP2 MSTORE PUSH1 0x20 ADD PUSH0 KECCAK256 SWAP1 POP DUP1 PUSH0 ADD SLOAD DUP2 PUSH1 0x1 ADD SLOAD DUP3 PUSH1 0x2 ADD SLOAD SWAP4 POP SWAP4 POP SWAP4 POP POP SWAP2 SWAP4 SWAP1 SWAP3 POP JUMP JUMPDEST PUSH1 0x60 PUSH1 0x40 MLOAD DUP1 PUSH1 0x40 ADD PUSH1 0x40 MSTORE DUP1 PUSH1 0x1 DUP2 MSTORE PUSH1 0x20 ADD PUSH32 0x3100000000000000000000000000000000000000000000000000000000000000 DUP2 MSTORE POP SWAP1 POP SWAP1 JUMP JUMPDEST PUSH0 DUP1 PUSH2 0x160C PUSH2 0x2572 JUMP JUMPDEST SWAP1 POP PUSH2 0x1628 DUP5 DUP3 DUP6 PUSH1 0x40 MLOAD DUP1 PUSH1 0x20 ADD PUSH1 0x40 MSTORE DUP1 PUSH0 DUP2 MSTORE POP PUSH2 0x26D2 JUMP JUMPDEST SWAP2 POP POP SWAP3 SWAP2 POP POP JUMP JUMPDEST PUSH0 DUP1 PUSH2 0x16BE DUP8 PUSH2 0x16B8 PUSH32 0x3E83946653575F9A39005E1545185629E92736B7528AB20CA3816F315424A811 DUP13 DUP13 DUP13 PUSH2 0x1667 DUP15 PUSH2 0x26F1 JUMP JUMPDEST DUP14 DUP14 PUSH1 0x40 MLOAD PUSH2 0x1677 SWAP3 SWAP2 SWAP1 PUSH2 0x5B27 JUMP JUMPDEST PUSH1 0x40 MLOAD DUP1 SWAP2 SUB SWAP1 KECCAK256 DUP13 DUP1 MLOAD SWAP1 PUSH1 0x20 ADD KECCAK256 PUSH1 0x40 MLOAD PUSH1 0x20 ADD PUSH2 0x169D SWAP8 SWAP7 SWAP6 SWAP5 SWAP4 SWAP3 SWAP2 SWAP1 PUSH2 0x5B4E JUMP JUMPDEST PUSH1 0x40 MLOAD PUSH1 0x20 DUP2 DUP4 SUB SUB DUP2 MSTORE SWAP1 PUSH1 0x40 MSTORE DUP1 MLOAD SWAP1 PUSH1 0x20 ADD KECCAK256 PUSH2 0x2744 JUMP JUMPDEST DUP6 PUSH2 0x275D JUMP JUMPDEST SWAP1 POP DUP1 PUSH2 0x1702 JUMPI DUP7 PUSH1 0x40 MLOAD PUSH32 0x94AB6C0700000000000000000000000000000000000000000000000000000000 DUP2 MSTORE PUSH1 0x4 ADD PUSH2 0x16F9 SWAP2 SWAP1 PUSH2 0x47B9 JUMP JUMPDEST PUSH1 0x40 MLOAD DUP1 SWAP2 SUB SWAP1 REVERT JUMPDEST PUSH2 0x1752 DUP10 DUP9 DUP11 DUP10 DUP10 DUP1 DUP1 PUSH1 0x1F ADD PUSH1 0x20 DUP1 SWAP2 DIV MUL PUSH1 0x20 ADD PUSH1 0x40 MLOAD SWAP1 DUP2 ADD PUSH1 0x40 MSTORE DUP1 SWAP4 SWAP3 SWAP2 SWAP1 DUP2 DUP2 MSTORE PUSH1 0x20 ADD DUP4 DUP4 DUP1 DUP3 DUP5 CALLDATACOPY PUSH0 DUP2 DUP5 ADD MSTORE PUSH1 0x1F NOT PUSH1 0x1F DUP3 ADD AND SWAP1 POP DUP1 DUP4 ADD SWAP3 POP POP POP POP POP POP POP DUP9 PUSH2 0x2809 JUMP JUMPDEST SWAP2 POP POP SWAP8 SWAP7 POP POP POP POP POP POP POP JUMP JUMPDEST PUSH0 DUP1 PUSH2 0x176A PUSH2 0x2572 JUMP JUMPDEST SWAP1 POP PUSH2 0x17BC DUP8 DUP3 DUP9 DUP9 DUP9 DUP1 DUP1 PUSH1 0x1F ADD PUSH1 0x20 DUP1 SWAP2 DIV MUL PUSH1 0x20 ADD PUSH1 0x40 MLOAD SWAP1 DUP2 ADD PUSH1 0x40 MSTORE DUP1 SWAP4 SWAP3 SWAP2 SWAP1 DUP2 DUP2 MSTORE PUSH1 0x20 ADD DUP4 DUP4 DUP1 DUP3 DUP5 CALLDATACOPY PUSH0 DUP2 DUP5 ADD MSTORE PUSH1 0x1F NOT PUSH1 0x1F DUP3 ADD AND SWAP1 POP DUP1 DUP4 ADD SWAP3 POP POP POP POP POP POP POP DUP8 PUSH2 0x2809 JUMP JUMPDEST SWAP2 POP POP SWAP6 SWAP5 POP POP POP POP POP JUMP JUMPDEST PUSH0 PUSH2 0x17D4 PUSH1 0xA DUP4 PUSH2 0x2913 JUMP JUMPDEST SWAP1 POP SWAP2 SWAP1 POP JUMP JUMPDEST PUSH2 0x17E3 PUSH2 0x1FD0 JUMP JUMPDEST PUSH2 0x17EC DUP2 PUSH2 0x297C JUMP JUMPDEST POP JUMP JUMPDEST PUSH0 DUP1 PUSH2 0x17F9 PUSH2 0x2572 JUMP JUMPDEST SWAP1 POP PUSH2 0x184A DUP7 DUP3 DUP8 DUP8 DUP8 DUP1 DUP1 PUSH1 0x1F ADD PUSH1 0x20 DUP1 SWAP2 DIV MUL PUSH1 0x20 ADD PUSH1 0x40 MLOAD SWAP1 DUP2 ADD PUSH1 0x40 MSTORE DUP1 SWAP4 SWAP3 SWAP2 SWAP1 DUP2 DUP2 MSTORE PUSH1 0x20 ADD DUP4 DUP4 DUP1 DUP3 DUP5 CALLDATACOPY PUSH0 DUP2 DUP5 ADD MSTORE PUSH1 0x1F NOT PUSH1 0x1F DUP3 ADD AND SWAP1 POP DUP1 DUP4 ADD SWAP3 POP POP POP POP POP POP POP PUSH2 0x26D2 JUMP JUMPDEST SWAP2 POP POP SWAP5 SWAP4 POP POP POP POP JUMP JUMPDEST PUSH0 DUP1 PUSH2 0x185F PUSH2 0x2572 JUMP JUMPDEST SWAP1 POP PUSH2 0x186B DUP2 DUP5 PUSH2 0x29EF JUMP JUMPDEST PUSH2 0x18AC JUMPI DUP1 PUSH1 0x40 MLOAD PUSH32 0xD9B3955700000000000000000000000000000000000000000000000000000000 DUP2 MSTORE PUSH1 0x4 ADD PUSH2 0x18A3 SWAP2 SWAP1 PUSH2 0x47B9 JUMP JUMPDEST PUSH1 0x40 MLOAD DUP1 SWAP2 SUB SWAP1 REVERT JUMPDEST PUSH0 PUSH2 0x18B5 PUSH2 0x1C31 JUMP JUMPDEST SWAP1 POP PUSH0 DUP2 GT ISZERO PUSH2 0x1932 JUMPI PUSH0 PUSH2 0x18E5 DUP4 PUSH1 0x1 PUSH2 0x18CE PUSH2 0x1B0A JUMP JUMPDEST PUSH2 0x18D8 SWAP2 SWAP1 PUSH2 0x5BBB JUMP JUMPDEST PUSH6 0xFFFFFFFFFFFF AND PUSH2 0x1E61 JUMP JUMPDEST SWAP1 POP DUP2 DUP2 LT ISZERO PUSH2 0x1930 JUMPI DUP3 DUP2 DUP4 PUSH1 0x40 MLOAD PUSH32 0xC242EE1600000000000000000000000000000000000000000000000000000000 DUP2 MSTORE PUSH1 0x4 ADD PUSH2 0x1927 SWAP4 SWAP3 SWAP2 SWAP1 PUSH2 0x5BF4 JUMP JUMPDEST PUSH1 0x40 MLOAD DUP1 SWAP2 SUB SWAP1 REVERT JUMPDEST POP JUMPDEST PUSH2 0x193F DUP8 DUP8 DUP8 DUP8 DUP7 PUSH2 0x2AD5 JUMP JUMPDEST SWAP3 POP POP POP SWAP5 SWAP4 POP POP POP POP JUMP JUMPDEST PUSH0 PUSH1 0x2 PUSH0 DUP4 PUSH20 0xFFFFFFFFFFFFFFFFFFFFFFFFFFFFFFFFFFFFFFFF AND PUSH20 0xFFFFFFFFFFFFFFFFFFFFFFFFFFFFFFFFFFFFFFFF AND DUP2 MSTORE PUSH1 0x20 ADD SWAP1 DUP2 MSTORE PUSH1 0x20 ADD PUSH0 KECCAK256 SLOAD SWAP1 POP SWAP2 SWAP1 POP JUMP JUMPDEST PUSH0 PUSH1 0x60 DUP1 PUSH0 DUP1 PUSH0 PUSH1 0x60 PUSH2 0x19A2 PUSH2 0x2D5A JUMP JUMPDEST PUSH2 0x19AA PUSH2 0x2D94 JUMP JUMPDEST CHAINID ADDRESS PUSH0 DUP1 SHL PUSH0 PUSH8 0xFFFFFFFFFFFFFFFF DUP2 GT ISZERO PUSH2 0x19C9 JUMPI PUSH2 0x19C8 PUSH2 0x4804 JUMP JUMPDEST JUMPDEST PUSH1 0x40 MLOAD SWAP1 DUP1 DUP3 MSTORE DUP1 PUSH1 0x20 MUL PUSH1 0x20 ADD DUP3 ADD PUSH1 0x40 MSTORE DUP1 ISZERO PUSH2 0x19F7 JUMPI DUP2 PUSH1 0x20 ADD PUSH1 0x20 DUP3 MUL DUP1 CALLDATASIZE DUP4 CALLDATACOPY DUP1 DUP3 ADD SWAP2 POP POP SWAP1 POP JUMPDEST POP PUSH32 0xF00000000000000000000000000000000000000000000000000000000000000 SWAP6 SWAP5 SWAP4 SWAP3 SWAP2 SWAP1 SWAP7 POP SWAP7 POP SWAP7 POP SWAP7 POP SWAP7 POP SWAP7 POP SWAP7 POP SWAP1 SWAP2 SWAP3 SWAP4 SWAP5 SWAP6 SWAP7 JUMP JUMPDEST PUSH0 DUP1 PUSH2 0x1AA1 DUP5 PUSH2 0x1A9B PUSH32 0xF2AAD550CF55F045CB27E9C559F9889FDFB6E6CDAA032301D6EA397784AE51D7 DUP10 DUP10 DUP10 PUSH2 0x1A6C DUP12 PUSH2 0x26F1 JUMP JUMPDEST PUSH1 0x40 MLOAD PUSH1 0x20 ADD PUSH2 0x1A80 SWAP6 SWAP5 SWAP4 SWAP3 SWAP2 SWAP1 PUSH2 0x5C29 JUMP JUMPDEST PUSH1 0x40 MLOAD PUSH1 0x20 DUP2 DUP4 SUB SUB DUP2 MSTORE SWAP1 PUSH1 0x40 MSTORE DUP1 MLOAD SWAP1 PUSH1 0x20 ADD KECCAK256 PUSH2 0x2744 JUMP JUMPDEST DUP6 PUSH2 0x275D JUMP JUMPDEST SWAP1 POP DUP1 PUSH2 0x1AE5 JUMPI DUP4 PUSH1 0x40 MLOAD PUSH32 0x94AB6C0700000000000000000000000000000000000000000000000000000000 DUP2 MSTORE PUSH1 0x4 ADD PUSH2 0x1ADC SWAP2 SWAP1 PUSH2 0x47B9 JUMP JUMPDEST PUSH1 0x40 MLOAD DUP1 SWAP2 SUB SWAP1 REVERT JUMPDEST PUSH2 0x1AFF DUP7 DUP6 DUP8 PUSH1 0x40 MLOAD DUP1 PUSH1 0x20 ADD PUSH1 0x40 MSTORE DUP1 PUSH0 DUP2 MSTORE POP PUSH2 0x26D2 JUMP JUMPDEST SWAP2 POP POP SWAP5 SWAP4 POP POP POP POP JUMP JUMPDEST PUSH0 PUSH2 0x1B13 PUSH2 0x1F21 JUMP JUMPDEST PUSH20 0xFFFFFFFFFFFFFFFFFFFFFFFFFFFFFFFFFFFFFFFF AND PUSH4 0x91DDADF4 PUSH1 0x40 MLOAD DUP2 PUSH4 0xFFFFFFFF AND PUSH1 0xE0 SHL DUP2 MSTORE PUSH1 0x4 ADD PUSH1 0x20 PUSH1 0x40 MLOAD DUP1 DUP4 SUB DUP2 DUP7 GAS STATICCALL SWAP3 POP POP POP DUP1 ISZERO PUSH2 0x1B7A JUMPI POP PUSH1 0x40 MLOAD RETURNDATASIZE PUSH1 0x1F NOT PUSH1 0x1F DUP3 ADD AND DUP3 ADD DUP1 PUSH1 0x40 MSTORE POP DUP2 ADD SWAP1 PUSH2 0x1B77 SWAP2 SWAP1 PUSH2 0x5C8E JUMP JUMPDEST PUSH1 0x1 JUMPDEST PUSH2 0x1B8D JUMPI PUSH2 0x1B86 PUSH2 0x2DCF JUMP JUMPDEST SWAP1 POP PUSH2 0x1B92 JUMP JUMPDEST DUP1 SWAP2 POP POP JUMPDEST SWAP1 JUMP JUMPDEST PUSH0 PUSH1 0x64 SWAP1 POP SWAP1 JUMP JUMPDEST PUSH0 PUSH2 0x1BA9 DUP5 DUP5 DUP5 PUSH2 0x2DDE JUMP JUMPDEST SWAP1 POP SWAP4 SWAP3 POP POP POP JUMP JUMPDEST PUSH0 PUSH2 0x1BBD PUSH1 0xA PUSH2 0x2E69 JUMP JUMPDEST PUSH26 0xFFFFFFFFFFFFFFFFFFFFFFFFFFFFFFFFFFFFFFFFFFFFFFFFFFFF AND SWAP1 POP SWAP1 JUMP JUMPDEST PUSH0 PUSH2 0x1BEB DUP6 DUP6 DUP6 DUP6 PUSH2 0x1DB2 JUMP JUMPDEST SWAP1 POP SWAP5 SWAP4 POP POP POP POP JUMP JUMPDEST PUSH0 SWAP2 SWAP1 POP JUMP JUMPDEST PUSH0 PUSH1 0x4 PUSH0 DUP4 DUP2 MSTORE PUSH1 0x20 ADD SWAP1 DUP2 MSTORE PUSH1 0x20 ADD PUSH0 KECCAK256 PUSH1 0x1 ADD PUSH0 SWAP1 SLOAD SWAP1 PUSH2 0x100 EXP SWAP1 DIV PUSH6 0xFFFFFFFFFFFF AND PUSH6 0xFFFFFFFFFFFF AND SWAP1 POP SWAP2 SWAP1 POP JUMP JUMPDEST PUSH0 PUSH2 0x1C3A PUSH2 0x2ECB JUMP JUMPDEST SWAP1 POP SWAP1 JUMP JUMPDEST PUSH0 ADDRESS PUSH20 0xFFFFFFFFFFFFFFFFFFFFFFFFFFFFFFFFFFFFFFFF AND PUSH2 0x1C5F PUSH2 0xC96 JUMP JUMPDEST PUSH20 0xFFFFFFFFFFFFFFFFFFFFFFFFFFFFFFFFFFFFFFFF AND EQ PUSH2 0x1CAC JUMPI PUSH1 0x40 MLOAD PUSH32 0xE90A651E00000000000000000000000000000000000000000000000000000000 DUP2 MSTORE PUSH1 0x4 ADD PUSH1 0x40 MLOAD DUP1 SWAP2 SUB SWAP1 REVERT JUMPDEST PUSH4 0xBC197C81 PUSH1 0xE0 SHL SWAP1 POP SWAP6 SWAP5 POP POP POP POP POP JUMP JUMPDEST PUSH0 PUSH1 0x4 PUSH0 DUP4 DUP2 MSTORE PUSH1 0x20 ADD SWAP1 DUP2 MSTORE PUSH1 0x20 ADD PUSH0 KECCAK256 PUSH0 ADD PUSH1 0x1A SWAP1 SLOAD SWAP1 PUSH2 0x100 EXP SWAP1 DIV PUSH4 0xFFFFFFFF AND PUSH4 0xFFFFFFFF AND PUSH1 0x4 PUSH0 DUP5 DUP2 MSTORE PUSH1 0x20 ADD SWAP1 DUP2 MSTORE PUSH1 0x20 ADD PUSH0 KECCAK256 PUSH0 ADD PUSH1 0x14 SWAP1 SLOAD SWAP1 PUSH2 0x100 EXP SWAP1 DIV PUSH6 0xFFFFFFFFFFFF AND PUSH2 0x1D1A SWAP2 SWAP1 PUSH2 0x5CB9 JUMP JUMPDEST PUSH6 0xFFFFFFFFFFFF AND SWAP1 POP SWAP2 SWAP1 POP JUMP JUMPDEST PUSH2 0x1D31 PUSH2 0x1FD0 JUMP JUMPDEST PUSH0 DUP1 DUP6 PUSH20 0xFFFFFFFFFFFFFFFFFFFFFFFFFFFFFFFFFFFFFFFF AND DUP6 DUP6 DUP6 PUSH1 0x40 MLOAD PUSH2 0x1D5B SWAP3 SWAP2 SWAP1 PUSH2 0x5B27 JUMP JUMPDEST PUSH0 PUSH1 0x40 MLOAD DUP1 DUP4 SUB DUP2 DUP6 DUP8 GAS CALL SWAP3 POP POP POP RETURNDATASIZE DUP1 PUSH0 DUP2 EQ PUSH2 0x1D95 JUMPI PUSH1 0x40 MLOAD SWAP2 POP PUSH1 0x1F NOT PUSH1 0x3F RETURNDATASIZE ADD AND DUP3 ADD PUSH1 0x40 MSTORE RETURNDATASIZE DUP3 MSTORE RETURNDATASIZE PUSH0 PUSH1 0x20 DUP5 ADD RETURNDATACOPY PUSH2 0x1D9A JUMP JUMPDEST PUSH1 0x60 SWAP2 POP JUMPDEST POP SWAP2 POP SWAP2 POP PUSH2 0x1DA9 DUP3 DUP3 PUSH2 0x2ED4 JUMP JUMPDEST POP POP POP POP POP POP POP JUMP JUMPDEST PUSH0 DUP5 DUP5 DUP5 DUP5 PUSH1 0x40 MLOAD PUSH1 0x20 ADD PUSH2 0x1DCA SWAP5 SWAP4 SWAP3 SWAP2 SWAP1 PUSH2 0x5EB6 JUMP JUMPDEST PUSH1 0x40 MLOAD PUSH1 0x20 DUP2 DUP4 SUB SUB DUP2 MSTORE SWAP1 PUSH1 0x40 MSTORE DUP1 MLOAD SWAP1 PUSH1 0x20 ADD KECCAK256 PUSH0 SHR SWAP1 POP SWAP5 SWAP4 POP POP POP POP JUMP JUMPDEST PUSH1 0x60 PUSH1 0x40 MLOAD DUP1 PUSH1 0x40 ADD PUSH1 0x40 MSTORE DUP1 PUSH1 0x20 DUP2 MSTORE PUSH1 0x20 ADD PUSH32 0x737570706F72743D627261766F2671756F72756D3D666F722C6162737461696E DUP2 MSTORE POP SWAP1 POP SWAP1 JUMP JUMPDEST PUSH32 0xF2AAD550CF55F045CB27E9C559F9889FDFB6E6CDAA032301D6EA397784AE51D7 DUP2 JUMP JUMPDEST PUSH2 0x1E55 PUSH2 0x1FD0 JUMP JUMPDEST PUSH2 0x1E5E DUP2 PUSH2 0x2EF8 JUMP JUMPDEST POP JUMP JUMPDEST PUSH0 PUSH2 0x1E74 DUP4 DUP4 PUSH2 0x1E6F PUSH2 0x2FB1 JUMP JUMPDEST PUSH2 0x2DDE JUMP JUMPDEST SWAP1 POP SWAP3 SWAP2 POP POP JUMP JUMPDEST PUSH2 0x1E84 PUSH2 0x1FD0 JUMP JUMPDEST PUSH2 0x1E8D DUP2 PUSH2 0x2FC7 JUMP JUMPDEST POP JUMP JUMPDEST PUSH0 ADDRESS PUSH20 0xFFFFFFFFFFFFFFFFFFFFFFFFFFFFFFFFFFFFFFFF AND PUSH2 0x1EB0 PUSH2 0xC96 JUMP JUMPDEST PUSH20 0xFFFFFFFFFFFFFFFFFFFFFFFFFFFFFFFFFFFFFFFF AND EQ PUSH2 0x1EFD JUMPI PUSH1 0x40 MLOAD PUSH32 0xE90A651E00000000000000000000000000000000000000000000000000000000 DUP2 MSTORE PUSH1 0x4 ADD PUSH1 0x40 MLOAD DUP1 SWAP2 SUB SWAP1 REVERT JUMPDEST PUSH4 0xF23A6E61 PUSH1 0xE0 SHL SWAP1 POP SWAP6 SWAP5 POP POP POP POP POP JUMP JUMPDEST PUSH0 PUSH2 0x1F1A DUP3 PUSH2 0x300C JUMP JUMPDEST SWAP1 POP SWAP2 SWAP1 POP JUMP JUMPDEST PUSH0 PUSH32 0x0 SWAP1 POP SWAP1 JUMP JUMPDEST PUSH0 PUSH32 0x1FFC9A700000000000000000000000000000000000000000000000000000000 PUSH28 0xFFFFFFFFFFFFFFFFFFFFFFFFFFFFFFFFFFFFFFFFFFFFFFFFFFFFFFFF NOT AND DUP3 PUSH28 0xFFFFFFFFFFFFFFFFFFFFFFFFFFFFFFFFFFFFFFFFFFFFFFFFFFFFFFFF NOT AND EQ SWAP1 POP SWAP2 SWAP1 POP JUMP JUMPDEST PUSH0 PUSH1 0x8 PUSH1 0x6 SWAP1 SLOAD SWAP1 PUSH2 0x100 EXP SWAP1 DIV PUSH4 0xFFFFFFFF AND PUSH4 0xFFFFFFFF AND SWAP1 POP SWAP1 JUMP JUMPDEST PUSH2 0x1FD8 PUSH2 0x2572 JUMP JUMPDEST PUSH20 0xFFFFFFFFFFFFFFFFFFFFFFFFFFFFFFFFFFFFFFFF AND PUSH2 0x1FF6 PUSH2 0xC96 JUMP JUMPDEST PUSH20 0xFFFFFFFFFFFFFFFFFFFFFFFFFFFFFFFFFFFFFFFF AND EQ PUSH2 0x2055 JUMPI PUSH2 0x2019 PUSH2 0x2572 JUMP JUMPDEST PUSH1 0x40 MLOAD PUSH32 0x47096E4700000000000000000000000000000000000000000000000000000000 DUP2 MSTORE PUSH1 0x4 ADD PUSH2 0x204C SWAP2 SWAP1 PUSH2 0x47B9 JUMP JUMPDEST PUSH1 0x40 MLOAD DUP1 SWAP2 SUB SWAP1 REVERT JUMPDEST ADDRESS PUSH20 0xFFFFFFFFFFFFFFFFFFFFFFFFFFFFFFFFFFFFFFFF AND PUSH2 0x2074 PUSH2 0xC96 JUMP JUMPDEST PUSH20 0xFFFFFFFFFFFFFFFFFFFFFFFFFFFFFFFFFFFFFFFF AND EQ PUSH2 0x20C3 JUMPI PUSH0 PUSH2 0x2098 PUSH2 0x30AC JUMP JUMPDEST PUSH1 0x40 MLOAD PUSH2 0x20A6 SWAP3 SWAP2 SWAP1 PUSH2 0x5B27 JUMP JUMPDEST PUSH1 0x40 MLOAD DUP1 SWAP2 SUB SWAP1 KECCAK256 SWAP1 POP JUMPDEST DUP1 PUSH2 0x20BC PUSH1 0x5 PUSH2 0x30B8 JUMP JUMPDEST SUB PUSH2 0x20B1 JUMPI POP JUMPDEST JUMP JUMPDEST PUSH0 PUSH2 0x20CE PUSH2 0x1B95 JUMP JUMPDEST SWAP1 POP DUP1 DUP3 GT ISZERO PUSH2 0x2117 JUMPI DUP2 DUP2 PUSH1 0x40 MLOAD PUSH32 0x243E544500000000000000000000000000000000000000000000000000000000 DUP2 MSTORE PUSH1 0x4 ADD PUSH2 0x210E SWAP3 SWAP2 SWAP1 PUSH2 0x5F0E JUMP JUMPDEST PUSH1 0x40 MLOAD DUP1 SWAP2 SUB SWAP1 REVERT JUMPDEST PUSH0 PUSH2 0x2120 PUSH2 0x1BB2 JUMP JUMPDEST SWAP1 POP PUSH2 0x2147 PUSH2 0x212D PUSH2 0x1B0A JUMP JUMPDEST PUSH2 0x2136 DUP6 PUSH2 0x31E6 JUMP JUMPDEST PUSH1 0xA PUSH2 0x3253 SWAP1 SWAP3 SWAP2 SWAP1 PUSH4 0xFFFFFFFF AND JUMP JUMPDEST POP POP PUSH32 0x553476BF02EF2726E8CE5CED78D63E26E602E4A2257B1F559418E24B4633997 DUP2 DUP5 PUSH1 0x40 MLOAD PUSH2 0x217A SWAP3 SWAP2 SWAP1 PUSH2 0x5F0E JUMP JUMPDEST PUSH1 0x40 MLOAD DUP1 SWAP2 SUB SWAP1 LOG1 POP POP POP JUMP JUMPDEST PUSH0 DUP2 PUSH1 0x7 DUP2 GT ISZERO PUSH2 0x219B JUMPI PUSH2 0x219A PUSH2 0x4D45 JUMP JUMPDEST JUMPDEST PUSH1 0xFF AND PUSH1 0x1 SWAP1 SHL PUSH0 SHL SWAP1 POP SWAP2 SWAP1 POP JUMP JUMPDEST PUSH0 DUP1 PUSH2 0x21B6 DUP5 PUSH2 0x1299 JUMP JUMPDEST SWAP1 POP PUSH0 DUP1 SHL DUP4 PUSH2 0x21C5 DUP4 PUSH2 0x2187 JUMP JUMPDEST AND SUB PUSH2 0x220C JUMPI DUP4 DUP2 DUP5 PUSH1 0x40 MLOAD PUSH32 0x31B75E4D00000000000000000000000000000000000000000000000000000000 DUP2 MSTORE PUSH1 0x4 ADD PUSH2 0x2203 SWAP4 SWAP3 SWAP2 SWAP1 PUSH2 0x5F35 JUMP JUMPDEST PUSH1 0x40 MLOAD DUP1 SWAP2 SUB SWAP1 REVERT JUMPDEST DUP1 SWAP2 POP POP SWAP3 SWAP2 POP POP JUMP JUMPDEST PUSH0 SWAP6 SWAP5 POP POP POP POP POP JUMP JUMPDEST PUSH0 DUP3 PUSH0 ADD PUSH1 0x10 SWAP1 SLOAD SWAP1 PUSH2 0x100 EXP SWAP1 DIV PUSH16 0xFFFFFFFFFFFFFFFFFFFFFFFFFFFFFFFF AND SWAP1 POP DUP3 PUSH0 ADD PUSH0 SWAP1 SLOAD SWAP1 PUSH2 0x100 EXP SWAP1 DIV PUSH16 0xFFFFFFFFFFFFFFFFFFFFFFFFFFFFFFFF AND PUSH16 0xFFFFFFFFFFFFFFFFFFFFFFFFFFFFFFFF AND PUSH1 0x1 DUP3 ADD PUSH16 0xFFFFFFFFFFFFFFFFFFFFFFFFFFFFFFFF AND SUB PUSH2 0x229A JUMPI PUSH2 0x2299 PUSH1 0x41 PUSH2 0x326E JUMP JUMPDEST JUMPDEST DUP2 DUP4 PUSH1 0x1 ADD PUSH0 DUP4 PUSH16 0xFFFFFFFFFFFFFFFFFFFFFFFFFFFFFFFF AND PUSH16 0xFFFFFFFFFFFFFFFFFFFFFFFFFFFFFFFF AND DUP2 MSTORE PUSH1 0x20 ADD SWAP1 DUP2 MSTORE PUSH1 0x20 ADD PUSH0 KECCAK256 DUP2 SWAP1 SSTORE POP PUSH1 0x1 DUP2 ADD DUP4 PUSH0 ADD PUSH1 0x10 PUSH2 0x100 EXP DUP2 SLOAD DUP2 PUSH16 0xFFFFFFFFFFFFFFFFFFFFFFFFFFFFFFFF MUL NOT AND SWAP1 DUP4 PUSH16 0xFFFFFFFFFFFFFFFFFFFFFFFFFFFFFFFF AND MUL OR SWAP1 SSTORE POP POP POP POP JUMP JUMPDEST PUSH0 JUMPDEST DUP5 MLOAD DUP2 LT ISZERO PUSH2 0x23FB JUMPI PUSH0 DUP1 DUP7 DUP4 DUP2 MLOAD DUP2 LT PUSH2 0x2338 JUMPI PUSH2 0x2337 PUSH2 0x597C JUMP JUMPDEST JUMPDEST PUSH1 0x20 MUL PUSH1 0x20 ADD ADD MLOAD PUSH20 0xFFFFFFFFFFFFFFFFFFFFFFFFFFFFFFFFFFFFFFFF AND DUP7 DUP5 DUP2 MLOAD DUP2 LT PUSH2 0x2369 JUMPI PUSH2 0x2368 PUSH2 0x597C JUMP JUMPDEST JUMPDEST PUSH1 0x20 MUL PUSH1 0x20 ADD ADD MLOAD DUP7 DUP6 DUP2 MLOAD DUP2 LT PUSH2 0x2384 JUMPI PUSH2 0x2383 PUSH2 0x597C JUMP JUMPDEST JUMPDEST PUSH1 0x20 MUL PUSH1 0x20 ADD ADD MLOAD PUSH1 0x40 MLOAD PUSH2 0x2399 SWAP2 SWAP1 PUSH2 0x5F9A JUMP JUMPDEST PUSH0 PUSH1 0x40 MLOAD DUP1 DUP4 SUB DUP2 DUP6 DUP8 GAS CALL SWAP3 POP POP POP RETURNDATASIZE DUP1 PUSH0 DUP2 EQ PUSH2 0x23D3 JUMPI PUSH1 0x40 MLOAD SWAP2 POP PUSH1 0x1F NOT PUSH1 0x3F RETURNDATASIZE ADD AND DUP3 ADD PUSH1 0x40 MSTORE RETURNDATASIZE DUP3 MSTORE RETURNDATASIZE PUSH0 PUSH1 0x20 DUP5 ADD RETURNDATACOPY PUSH2 0x23D8 JUMP JUMPDEST PUSH1 0x60 SWAP2 POP JUMPDEST POP SWAP2 POP SWAP2 POP PUSH2 0x23E7 DUP3 DUP3 PUSH2 0x2ED4 JUMP JUMPDEST POP POP POP DUP1 PUSH2 0x23F4 SWAP1 PUSH2 0x59D6 JUMP JUMPDEST SWAP1 POP PUSH2 0x231A JUMP JUMPDEST POP POP POP POP POP POP JUMP JUMPDEST PUSH0 DUP2 PUSH0 ADD PUSH0 SWAP1 SLOAD SWAP1 PUSH2 0x100 EXP SWAP1 DIV PUSH16 0xFFFFFFFFFFFFFFFFFFFFFFFFFFFFFFFF AND PUSH16 0xFFFFFFFFFFFFFFFFFFFFFFFFFFFFFFFF AND DUP3 PUSH0 ADD PUSH1 0x10 SWAP1 SLOAD SWAP1 PUSH2 0x100 EXP SWAP1 DIV PUSH16 0xFFFFFFFFFFFFFFFFFFFFFFFFFFFFFFFF AND PUSH16 0xFFFFFFFFFFFFFFFFFFFFFFFFFFFFFFFF AND EQ SWAP1 POP SWAP2 SWAP1 POP JUMP JUMPDEST PUSH0 DUP2 PUSH0 ADD PUSH0 PUSH2 0x100 EXP DUP2 SLOAD DUP2 PUSH16 0xFFFFFFFFFFFFFFFFFFFFFFFFFFFFFFFF MUL NOT AND SWAP1 DUP4 PUSH16 0xFFFFFFFFFFFFFFFFFFFFFFFFFFFFFFFF AND MUL OR SWAP1 SSTORE POP PUSH0 DUP2 PUSH0 ADD PUSH1 0x10 PUSH2 0x100 EXP DUP2 SLOAD DUP2 PUSH16 0xFFFFFFFFFFFFFFFFFFFFFFFFFFFFFFFF MUL NOT AND SWAP1 DUP4 PUSH16 0xFFFFFFFFFFFFFFFFFFFFFFFFFFFFFFFF AND MUL OR SWAP1 SSTORE POP POP JUMP JUMPDEST PUSH0 PUSH1 0x8 PUSH0 SWAP1 SLOAD SWAP1 PUSH2 0x100 EXP SWAP1 DIV PUSH6 0xFFFFFFFFFFFF AND PUSH6 0xFFFFFFFFFFFF AND SWAP1 POP SWAP1 JUMP JUMPDEST PUSH0 DUP1 PUSH1 0x9 PUSH0 DUP5 DUP2 MSTORE PUSH1 0x20 ADD SWAP1 DUP2 MSTORE PUSH1 0x20 ADD PUSH0 KECCAK256 SWAP1 POP DUP1 PUSH1 0x2 ADD SLOAD DUP2 PUSH1 0x1 ADD SLOAD PUSH2 0x2530 SWAP2 SWAP1 PUSH2 0x5FB0 JUMP JUMPDEST PUSH2 0x2541 PUSH2 0x253C DUP6 PUSH2 0x1231 JUMP JUMPDEST PUSH2 0x1F10 JUMP JUMPDEST GT ISZERO SWAP2 POP POP SWAP2 SWAP1 POP JUMP JUMPDEST PUSH0 DUP1 PUSH1 0x9 PUSH0 DUP5 DUP2 MSTORE PUSH1 0x20 ADD SWAP1 DUP2 MSTORE PUSH1 0x20 ADD PUSH0 KECCAK256 SWAP1 POP DUP1 PUSH0 ADD SLOAD DUP2 PUSH1 0x1 ADD SLOAD GT SWAP2 POP POP SWAP2 SWAP1 POP JUMP JUMPDEST PUSH0 CALLER SWAP1 POP SWAP1 JUMP JUMPDEST PUSH0 DUP1 PUSH1 0x7 DUP2 GT ISZERO PUSH2 0x258D JUMPI PUSH2 0x258C PUSH2 0x4D45 JUMP JUMPDEST JUMPDEST PUSH2 0x2596 DUP5 PUSH2 0x1299 JUMP JUMPDEST PUSH1 0x7 DUP2 GT ISZERO PUSH2 0x25A8 JUMPI PUSH2 0x25A7 PUSH2 0x4D45 JUMP JUMPDEST JUMPDEST EQ DUP1 ISZERO PUSH2 0x25E8 JUMPI POP PUSH2 0x25B9 DUP4 PUSH2 0xEA1 JUMP JUMPDEST PUSH20 0xFFFFFFFFFFFFFFFFFFFFFFFFFFFFFFFFFFFFFFFF AND DUP3 PUSH20 0xFFFFFFFFFFFFFFFFFFFFFFFFFFFFFFFFFFFFFFFF AND EQ JUMPDEST SWAP1 POP SWAP3 SWAP2 POP POP JUMP JUMPDEST PUSH0 DUP1 PUSH2 0x25FE DUP7 DUP7 DUP7 DUP7 PUSH2 0x1BDE JUMP JUMPDEST SWAP1 POP PUSH2 0x2662 DUP2 PUSH2 0x260E PUSH1 0x7 PUSH2 0x2187 JUMP JUMPDEST PUSH2 0x2618 PUSH1 0x6 PUSH2 0x2187 JUMP JUMPDEST PUSH2 0x2622 PUSH1 0x2 PUSH2 0x2187 JUMP JUMPDEST PUSH1 0x1 DUP1 PUSH1 0x7 DUP1 DUP2 GT ISZERO PUSH2 0x2638 JUMPI PUSH2 0x2637 PUSH2 0x4D45 JUMP JUMPDEST JUMPDEST PUSH2 0x2642 SWAP2 SWAP1 PUSH2 0x5FE3 JUMP JUMPDEST PUSH1 0x2 PUSH2 0x264E SWAP2 SWAP1 PUSH2 0x6146 JUMP JUMPDEST PUSH2 0x2658 SWAP2 SWAP1 PUSH2 0x6190 JUMP JUMPDEST PUSH0 SHL XOR XOR XOR PUSH2 0x21AB JUMP JUMPDEST POP PUSH1 0x1 PUSH1 0x4 PUSH0 DUP4 DUP2 MSTORE PUSH1 0x20 ADD SWAP1 DUP2 MSTORE PUSH1 0x20 ADD PUSH0 KECCAK256 PUSH0 ADD PUSH1 0x1F PUSH2 0x100 EXP DUP2 SLOAD DUP2 PUSH1 0xFF MUL NOT AND SWAP1 DUP4 ISZERO ISZERO MUL OR SWAP1 SSTORE POP PUSH32 0x789CF55BE980739DAD1D0699B93B58E806B51C9D96619BFA8FE0A28ABAA7B30C DUP2 PUSH1 0x40 MLOAD PUSH2 0x26BE SWAP2 SWAP1 PUSH2 0x4662 JUMP JUMPDEST PUSH1 0x40 MLOAD DUP1 SWAP2 SUB SWAP1 LOG1 DUP1 SWAP2 POP POP SWAP5 SWAP4 POP POP POP POP JUMP JUMPDEST PUSH0 PUSH2 0x26E7 DUP6 DUP6 DUP6 DUP6 PUSH2 0x26E2 PUSH2 0x2FB1 JUMP JUMPDEST PUSH2 0x2809 JUMP JUMPDEST SWAP1 POP SWAP5 SWAP4 POP POP POP POP JUMP JUMPDEST PUSH0 PUSH1 0x2 PUSH0 DUP4 PUSH20 0xFFFFFFFFFFFFFFFFFFFFFFFFFFFFFFFFFFFFFFFF AND PUSH20 0xFFFFFFFFFFFFFFFFFFFFFFFFFFFFFFFFFFFFFFFF AND DUP2 MSTORE PUSH1 0x20 ADD SWAP1 DUP2 MSTORE PUSH1 0x20 ADD PUSH0 KECCAK256 PUSH0 DUP2 SLOAD DUP1 SWAP3 SWAP2 SWAP1 PUSH1 0x1 ADD SWAP2 SWAP1 POP SSTORE SWAP1 POP SWAP2 SWAP1 POP JUMP JUMPDEST PUSH0 PUSH2 0x2756 PUSH2 0x2750 PUSH2 0x327F JUMP JUMPDEST DUP4 PUSH2 0x3335 JUMP JUMPDEST SWAP1 POP SWAP2 SWAP1 POP JUMP JUMPDEST PUSH0 DUP1 DUP5 PUSH20 0xFFFFFFFFFFFFFFFFFFFFFFFFFFFFFFFFFFFFFFFF AND EXTCODESIZE SUB PUSH2 0x27F4 JUMPI PUSH0 DUP1 PUSH2 0x2788 DUP6 DUP6 PUSH2 0x3375 JUMP JUMPDEST POP SWAP2 POP SWAP2 POP PUSH0 PUSH1 0x3 DUP2 GT ISZERO PUSH2 0x27A0 JUMPI PUSH2 0x279F PUSH2 0x4D45 JUMP JUMPDEST JUMPDEST DUP2 PUSH1 0x3 DUP2 GT ISZERO PUSH2 0x27B3 JUMPI PUSH2 0x27B2 PUSH2 0x4D45 JUMP JUMPDEST JUMPDEST EQ DUP1 ISZERO PUSH2 0x27EB JUMPI POP DUP6 PUSH20 0xFFFFFFFFFFFFFFFFFFFFFFFFFFFFFFFFFFFFFFFF AND DUP3 PUSH20 0xFFFFFFFFFFFFFFFFFFFFFFFFFFFFFFFFFFFFFFFF AND EQ JUMPDEST SWAP3 POP POP POP PUSH2 0x2802 JUMP JUMPDEST PUSH2 0x27FF DUP5 DUP5 DUP5 PUSH2 0x33CA JUMP JUMPDEST SWAP1 POP JUMPDEST SWAP4 SWAP3 POP POP POP JUMP JUMPDEST PUSH0 PUSH2 0x281D DUP7 PUSH2 0x2818 PUSH1 0x1 PUSH2 0x2187 JUMP JUMPDEST PUSH2 0x21AB JUMP JUMPDEST POP PUSH0 PUSH2 0x2832 DUP7 PUSH2 0x282C DUP10 PUSH2 0x1231 JUMP JUMPDEST DUP6 PUSH2 0x2DDE JUMP JUMPDEST SWAP1 POP PUSH0 PUSH2 0x2842 DUP9 DUP9 DUP9 DUP6 DUP9 PUSH2 0x34E9 JUMP JUMPDEST SWAP1 POP PUSH0 DUP5 MLOAD SUB PUSH2 0x28A5 JUMPI DUP7 PUSH20 0xFFFFFFFFFFFFFFFFFFFFFFFFFFFFFFFFFFFFFFFF AND PUSH32 0xB8E138887D0AA13BAB447E82DE9D5C1777041ECD21CA36BA824FF1E6C07DDDA4 DUP10 DUP9 DUP5 DUP10 PUSH1 0x40 MLOAD PUSH2 0x2898 SWAP5 SWAP4 SWAP3 SWAP2 SWAP1 PUSH2 0x61C3 JUMP JUMPDEST PUSH1 0x40 MLOAD DUP1 SWAP2 SUB SWAP1 LOG2 PUSH2 0x28FC JUMP JUMPDEST DUP7 PUSH20 0xFFFFFFFFFFFFFFFFFFFFFFFFFFFFFFFFFFFFFFFF AND PUSH32 0xE2BABFBAC5889A709B63BB7F598B324E08BC5A4FB9EC647FB3CBC9EC07EB8712 DUP10 DUP9 DUP5 DUP10 DUP10 PUSH1 0x40 MLOAD PUSH2 0x28F3 SWAP6 SWAP5 SWAP4 SWAP3 SWAP2 SWAP1 PUSH2 0x6255 JUMP JUMPDEST PUSH1 0x40 MLOAD DUP1 SWAP2 SUB SWAP1 LOG2 JUMPDEST PUSH2 0x2905 DUP9 PUSH2 0x36DE JUMP JUMPDEST DUP1 SWAP3 POP POP POP SWAP6 SWAP5 POP POP POP POP POP JUMP JUMPDEST PUSH0 DUP1 PUSH0 PUSH2 0x291F DUP6 PUSH2 0x36E1 JUMP JUMPDEST SWAP3 POP SWAP3 POP POP DUP4 DUP3 PUSH6 0xFFFFFFFFFFFF AND GT ISZERO PUSH2 0x2954 JUMPI PUSH2 0x294F PUSH2 0x2940 DUP6 PUSH2 0x3770 JUMP JUMPDEST DUP7 PUSH2 0x37C9 SWAP1 SWAP2 SWAP1 PUSH4 0xFFFFFFFF AND JUMP JUMPDEST PUSH2 0x2956 JUMP JUMPDEST DUP1 JUMPDEST PUSH26 0xFFFFFFFFFFFFFFFFFFFFFFFFFFFFFFFFFFFFFFFFFFFFFFFFFFFF AND SWAP3 POP POP POP SWAP3 SWAP2 POP POP JUMP JUMPDEST PUSH32 0xC565B045403DC03C2EEA82B81A0465EDAD9E2E7FC4D97E11421C209DA93D7A93 PUSH1 0x8 PUSH0 SWAP1 SLOAD SWAP1 PUSH2 0x100 EXP SWAP1 DIV PUSH6 0xFFFFFFFFFFFF AND DUP3 PUSH1 0x40 MLOAD PUSH2 0x29C0 SWAP3 SWAP2 SWAP1 PUSH2 0x62B4 JUMP JUMPDEST PUSH1 0x40 MLOAD DUP1 SWAP2 SUB SWAP1 LOG1 DUP1 PUSH1 0x8 PUSH0 PUSH2 0x100 EXP DUP2 SLOAD DUP2 PUSH6 0xFFFFFFFFFFFF MUL NOT AND SWAP1 DUP4 PUSH6 0xFFFFFFFFFFFF AND MUL OR SWAP1 SSTORE POP POP JUMP JUMPDEST PUSH0 DUP1 DUP3 MLOAD SWAP1 POP PUSH1 0x34 DUP2 LT ISZERO PUSH2 0x2A08 JUMPI PUSH1 0x1 SWAP2 POP POP PUSH2 0x2ACF JUMP JUMPDEST PUSH0 PUSH2 0x2A16 DUP5 PUSH1 0x34 DUP5 SUB PUSH2 0x38B6 JUMP JUMPDEST SWAP1 POP PUSH32 0x2370726F706F7365723D00000000000000000000000000000000000000000000 PUSH22 0xFFFFFFFFFFFFFFFFFFFFFFFFFFFFFFFFFFFFFFFFFFFF NOT AND DUP2 PUSH22 0xFFFFFFFFFFFFFFFFFFFFFFFFFFFFFFFFFFFFFFFFFFFF NOT AND EQ PUSH2 0x2A7C JUMPI PUSH1 0x1 SWAP3 POP POP POP PUSH2 0x2ACF JUMP JUMPDEST PUSH0 DUP1 PUSH2 0x2A8C DUP7 PUSH1 0x2A DUP7 SUB DUP7 PUSH2 0x38C6 JUMP JUMPDEST SWAP2 POP SWAP2 POP DUP2 ISZERO DUP1 PUSH2 0x2AC8 JUMPI POP DUP7 PUSH20 0xFFFFFFFFFFFFFFFFFFFFFFFFFFFFFFFFFFFFFFFF AND DUP2 PUSH20 0xFFFFFFFFFFFFFFFFFFFFFFFFFFFFFFFFFFFFFFFF AND EQ JUMPDEST SWAP5 POP POP POP POP POP JUMPDEST SWAP3 SWAP2 POP POP JUMP JUMPDEST PUSH0 PUSH2 0x2AE9 DUP7 DUP7 DUP7 DUP7 DUP1 MLOAD SWAP1 PUSH1 0x20 ADD KECCAK256 PUSH2 0x1BDE JUMP JUMPDEST SWAP1 POP DUP5 MLOAD DUP7 MLOAD EQ ISZERO DUP1 PUSH2 0x2AFE JUMPI POP DUP4 MLOAD DUP7 MLOAD EQ ISZERO JUMPDEST DUP1 PUSH2 0x2B09 JUMPI POP PUSH0 DUP7 MLOAD EQ JUMPDEST ISZERO PUSH2 0x2B52 JUMPI DUP6 MLOAD DUP5 MLOAD DUP7 MLOAD PUSH1 0x40 MLOAD PUSH32 0x447B05D000000000000000000000000000000000000000000000000000000000 DUP2 MSTORE PUSH1 0x4 ADD PUSH2 0x2B49 SWAP4 SWAP3 SWAP2 SWAP1 PUSH2 0x4E0F JUMP JUMPDEST PUSH1 0x40 MLOAD DUP1 SWAP2 SUB SWAP1 REVERT JUMPDEST PUSH0 PUSH1 0x4 PUSH0 DUP4 DUP2 MSTORE PUSH1 0x20 ADD SWAP1 DUP2 MSTORE PUSH1 0x20 ADD PUSH0 KECCAK256 PUSH0 ADD PUSH1 0x14 SWAP1 SLOAD SWAP1 PUSH2 0x100 EXP SWAP1 DIV PUSH6 0xFFFFFFFFFFFF AND PUSH6 0xFFFFFFFFFFFF AND EQ PUSH2 0x2BD1 JUMPI DUP1 PUSH2 0x2B90 DUP3 PUSH2 0x1299 JUMP JUMPDEST PUSH0 DUP1 SHL PUSH1 0x40 MLOAD PUSH32 0x31B75E4D00000000000000000000000000000000000000000000000000000000 DUP2 MSTORE PUSH1 0x4 ADD PUSH2 0x2BC8 SWAP4 SWAP3 SWAP2 SWAP1 PUSH2 0x5F35 JUMP JUMPDEST PUSH1 0x40 MLOAD DUP1 SWAP2 SUB SWAP1 REVERT JUMPDEST PUSH0 PUSH2 0x2BDA PUSH2 0x128B JUMP JUMPDEST PUSH2 0x2BE2 PUSH2 0x1B0A JUMP JUMPDEST PUSH6 0xFFFFFFFFFFFF AND PUSH2 0x2BF4 SWAP2 SWAP1 PUSH2 0x5FB0 JUMP JUMPDEST SWAP1 POP PUSH0 PUSH2 0x2BFF PUSH2 0xDEF JUMP JUMPDEST SWAP1 POP PUSH0 PUSH1 0x4 PUSH0 DUP6 DUP2 MSTORE PUSH1 0x20 ADD SWAP1 DUP2 MSTORE PUSH1 0x20 ADD PUSH0 KECCAK256 SWAP1 POP DUP5 DUP2 PUSH0 ADD PUSH0 PUSH2 0x100 EXP DUP2 SLOAD DUP2 PUSH20 0xFFFFFFFFFFFFFFFFFFFFFFFFFFFFFFFFFFFFFFFF MUL NOT AND SWAP1 DUP4 PUSH20 0xFFFFFFFFFFFFFFFFFFFFFFFFFFFFFFFFFFFFFFFF AND MUL OR SWAP1 SSTORE POP PUSH2 0x2C5F DUP4 PUSH2 0x3770 JUMP JUMPDEST DUP2 PUSH0 ADD PUSH1 0x14 PUSH2 0x100 EXP DUP2 SLOAD DUP2 PUSH6 0xFFFFFFFFFFFF MUL NOT AND SWAP1 DUP4 PUSH6 0xFFFFFFFFFFFF AND MUL OR SWAP1 SSTORE POP PUSH2 0x2C8D DUP3 PUSH2 0x39D7 JUMP JUMPDEST DUP2 PUSH0 ADD PUSH1 0x1A PUSH2 0x100 EXP DUP2 SLOAD DUP2 PUSH4 0xFFFFFFFF MUL NOT AND SWAP1 DUP4 PUSH4 0xFFFFFFFF AND MUL OR SWAP1 SSTORE POP PUSH32 0x7D84A6263AE0D98D3329BD7B46BB4E8D6F98CD35A7ADB45C274C8B7FD5EBD5E0 DUP5 DUP7 DUP12 DUP12 DUP14 MLOAD PUSH8 0xFFFFFFFFFFFFFFFF DUP2 GT ISZERO PUSH2 0x2CEE JUMPI PUSH2 0x2CED PUSH2 0x4804 JUMP JUMPDEST JUMPDEST PUSH1 0x40 MLOAD SWAP1 DUP1 DUP3 MSTORE DUP1 PUSH1 0x20 MUL PUSH1 0x20 ADD DUP3 ADD PUSH1 0x40 MSTORE DUP1 ISZERO PUSH2 0x2D21 JUMPI DUP2 PUSH1 0x20 ADD JUMPDEST PUSH1 0x60 DUP2 MSTORE PUSH1 0x20 ADD SWAP1 PUSH1 0x1 SWAP1 SUB SWAP1 DUP2 PUSH2 0x2D0C JUMPI SWAP1 POP JUMPDEST POP DUP13 DUP10 DUP10 DUP12 PUSH2 0x2D30 SWAP2 SWAP1 PUSH2 0x5FB0 JUMP JUMPDEST DUP15 PUSH1 0x40 MLOAD PUSH2 0x2D46 SWAP10 SWAP9 SWAP8 SWAP7 SWAP6 SWAP5 SWAP4 SWAP3 SWAP2 SWAP1 PUSH2 0x63DE JUMP JUMPDEST PUSH1 0x40 MLOAD DUP1 SWAP2 SUB SWAP1 LOG1 POP POP POP SWAP6 SWAP5 POP POP POP POP POP JUMP JUMPDEST PUSH1 0x60 PUSH2 0x2D8F PUSH0 PUSH32 0x0 PUSH2 0x3A2E SWAP1 SWAP2 SWAP1 PUSH4 0xFFFFFFFF AND JUMP JUMPDEST SWAP1 POP SWAP1 JUMP JUMPDEST PUSH1 0x60 PUSH2 0x2DCA PUSH1 0x1 PUSH32 0x0 PUSH2 0x3A2E SWAP1 SWAP2 SWAP1 PUSH4 0xFFFFFFFF AND JUMP JUMPDEST SWAP1 POP SWAP1 JUMP JUMPDEST PUSH0 PUSH2 0x2DD9 NUMBER PUSH2 0x3770 JUMP JUMPDEST SWAP1 POP SWAP1 JUMP JUMPDEST PUSH0 PUSH2 0x2DE7 PUSH2 0x1F21 JUMP JUMPDEST PUSH20 0xFFFFFFFFFFFFFFFFFFFFFFFFFFFFFFFFFFFFFFFF AND PUSH4 0x3A46B1A8 DUP6 DUP6 PUSH1 0x40 MLOAD DUP4 PUSH4 0xFFFFFFFF AND PUSH1 0xE0 SHL DUP2 MSTORE PUSH1 0x4 ADD PUSH2 0x2E21 SWAP3 SWAP2 SWAP1 PUSH2 0x648C JUMP JUMPDEST PUSH1 0x20 PUSH1 0x40 MLOAD DUP1 DUP4 SUB DUP2 DUP7 GAS STATICCALL ISZERO DUP1 ISZERO PUSH2 0x2E3C JUMPI RETURNDATASIZE PUSH0 DUP1 RETURNDATACOPY RETURNDATASIZE PUSH0 REVERT JUMPDEST POP POP POP POP PUSH1 0x40 MLOAD RETURNDATASIZE PUSH1 0x1F NOT PUSH1 0x1F DUP3 ADD AND DUP3 ADD DUP1 PUSH1 0x40 MSTORE POP DUP2 ADD SWAP1 PUSH2 0x2E60 SWAP2 SWAP1 PUSH2 0x64C7 JUMP JUMPDEST SWAP1 POP SWAP4 SWAP3 POP POP POP JUMP JUMPDEST PUSH0 DUP1 DUP3 PUSH0 ADD DUP1 SLOAD SWAP1 POP SWAP1 POP PUSH0 DUP2 EQ PUSH2 0x2EC1 JUMPI PUSH2 0x2E93 DUP4 PUSH0 ADD PUSH1 0x1 DUP4 PUSH2 0x2E8E SWAP2 SWAP1 PUSH2 0x6190 JUMP JUMPDEST PUSH2 0x3ADB JUMP JUMPDEST PUSH0 ADD PUSH1 0x6 SWAP1 SLOAD SWAP1 PUSH2 0x100 EXP SWAP1 DIV PUSH26 0xFFFFFFFFFFFFFFFFFFFFFFFFFFFFFFFFFFFFFFFFFFFFFFFFFFFF AND PUSH2 0x2EC3 JUMP JUMPDEST PUSH0 JUMPDEST SWAP2 POP POP SWAP2 SWAP1 POP JUMP JUMPDEST PUSH0 PUSH1 0x7 SLOAD SWAP1 POP SWAP1 JUMP JUMPDEST PUSH1 0x60 DUP3 PUSH2 0x2EE9 JUMPI PUSH2 0x2EE4 DUP3 PUSH2 0x3AED JUMP JUMPDEST PUSH2 0x2EF1 JUMP JUMPDEST DUP2 SWAP1 POP PUSH2 0x2EF2 JUMP JUMPDEST JUMPDEST SWAP3 SWAP2 POP POP JUMP JUMPDEST PUSH0 DUP2 PUSH4 0xFFFFFFFF AND SUB PUSH2 0x2F42 JUMPI PUSH0 PUSH1 0x40 MLOAD PUSH32 0xF1CFBF0500000000000000000000000000000000000000000000000000000000 DUP2 MSTORE PUSH1 0x4 ADD PUSH2 0x2F39 SWAP2 SWAP1 PUSH2 0x652B JUMP JUMPDEST PUSH1 0x40 MLOAD DUP1 SWAP2 SUB SWAP1 REVERT JUMPDEST PUSH32 0x7E3F7F0708A84DE9203036ABAA450DCCC85AD5FF52F78C170F3EDB55CF5E8828 PUSH1 0x8 PUSH1 0x6 SWAP1 SLOAD SWAP1 PUSH2 0x100 EXP SWAP1 DIV PUSH4 0xFFFFFFFF AND DUP3 PUSH1 0x40 MLOAD PUSH2 0x2F85 SWAP3 SWAP2 SWAP1 PUSH2 0x6574 JUMP JUMPDEST PUSH1 0x40 MLOAD DUP1 SWAP2 SUB SWAP1 LOG1 DUP1 PUSH1 0x8 PUSH1 0x6 PUSH2 0x100 EXP DUP2 SLOAD DUP2 PUSH4 0xFFFFFFFF MUL NOT AND SWAP1 DUP4 PUSH4 0xFFFFFFFF AND MUL OR SWAP1 SSTORE POP POP JUMP JUMPDEST PUSH1 0x60 PUSH1 0x40 MLOAD DUP1 PUSH1 0x20 ADD PUSH1 0x40 MSTORE DUP1 PUSH0 DUP2 MSTORE POP SWAP1 POP SWAP1 JUMP JUMPDEST PUSH32 0xCCB45DA8D5717E6C4544694297C4BA5CF151D455C9BB0ED4FC7A38411BC05461 PUSH1 0x7 SLOAD DUP3 PUSH1 0x40 MLOAD PUSH2 0x2FFA SWAP3 SWAP2 SWAP1 PUSH2 0x5F0E JUMP JUMPDEST PUSH1 0x40 MLOAD DUP1 SWAP2 SUB SWAP1 LOG1 DUP1 PUSH1 0x7 DUP2 SWAP1 SSTORE POP POP JUMP JUMPDEST PUSH0 PUSH2 0x30A5 PUSH2 0x3018 PUSH2 0x1F21 JUMP JUMPDEST PUSH20 0xFFFFFFFFFFFFFFFFFFFFFFFFFFFFFFFFFFFFFFFF AND PUSH4 0x8E539E8C DUP5 PUSH1 0x40 MLOAD DUP3 PUSH4 0xFFFFFFFF AND PUSH1 0xE0 SHL DUP2 MSTORE PUSH1 0x4 ADD PUSH2 0x3050 SWAP2 SWAP1 PUSH2 0x4662 JUMP JUMPDEST PUSH1 0x20 PUSH1 0x40 MLOAD DUP1 DUP4 SUB DUP2 DUP7 GAS STATICCALL ISZERO DUP1 ISZERO PUSH2 0x306B JUMPI RETURNDATASIZE PUSH0 DUP1 RETURNDATACOPY RETURNDATASIZE PUSH0 REVERT JUMPDEST POP POP POP POP PUSH1 0x40 MLOAD RETURNDATASIZE PUSH1 0x1F NOT PUSH1 0x1F DUP3 ADD AND DUP3 ADD DUP1 PUSH1 0x40 MSTORE POP DUP2 ADD SWAP1 PUSH2 0x308F SWAP2 SWAP1 PUSH2 0x64C7 JUMP JUMPDEST PUSH2 0x3098 DUP5 PUSH2 0x17C8 JUMP JUMPDEST PUSH2 0x30A0 PUSH2 0x1B95 JUMP JUMPDEST PUSH2 0x3B31 JUMP JUMPDEST SWAP1 POP SWAP2 SWAP1 POP JUMP JUMPDEST CALLDATASIZE PUSH0 DUP1 CALLDATASIZE SWAP2 POP SWAP2 POP SWAP1 SWAP2 JUMP JUMPDEST PUSH0 DUP1 DUP3 PUSH0 ADD PUSH0 SWAP1 SLOAD SWAP1 PUSH2 0x100 EXP SWAP1 DIV PUSH16 0xFFFFFFFFFFFFFFFFFFFFFFFFFFFFFFFF AND SWAP1 POP DUP3 PUSH0 ADD PUSH1 0x10 SWAP1 SLOAD SWAP1 PUSH2 0x100 EXP SWAP1 DIV PUSH16 0xFFFFFFFFFFFFFFFFFFFFFFFFFFFFFFFF AND PUSH16 0xFFFFFFFFFFFFFFFFFFFFFFFFFFFFFFFF AND DUP2 PUSH16 0xFFFFFFFFFFFFFFFFFFFFFFFFFFFFFFFF AND SUB PUSH2 0x3130 JUMPI PUSH2 0x312F PUSH1 0x31 PUSH2 0x326E JUMP JUMPDEST JUMPDEST DUP3 PUSH1 0x1 ADD PUSH0 DUP3 PUSH16 0xFFFFFFFFFFFFFFFFFFFFFFFFFFFFFFFF AND PUSH16 0xFFFFFFFFFFFFFFFFFFFFFFFFFFFFFFFF AND DUP2 MSTORE PUSH1 0x20 ADD SWAP1 DUP2 MSTORE PUSH1 0x20 ADD PUSH0 KECCAK256 SLOAD SWAP2 POP DUP3 PUSH1 0x1 ADD PUSH0 DUP3 PUSH16 0xFFFFFFFFFFFFFFFFFFFFFFFFFFFFFFFF AND PUSH16 0xFFFFFFFFFFFFFFFFFFFFFFFFFFFFFFFF AND DUP2 MSTORE PUSH1 0x20 ADD SWAP1 DUP2 MSTORE PUSH1 0x20 ADD PUSH0 KECCAK256 PUSH0 SWAP1 SSTORE PUSH1 0x1 DUP2 ADD DUP4 PUSH0 ADD PUSH0 PUSH2 0x100 EXP DUP2 SLOAD DUP2 PUSH16 0xFFFFFFFFFFFFFFFFFFFFFFFFFFFFFFFF MUL NOT AND SWAP1 DUP4 PUSH16 0xFFFFFFFFFFFFFFFFFFFFFFFFFFFFFFFF AND MUL OR SWAP1 SSTORE POP POP SWAP2 SWAP1 POP JUMP JUMPDEST PUSH0 PUSH26 0xFFFFFFFFFFFFFFFFFFFFFFFFFFFFFFFFFFFFFFFFFFFFFFFFFFFF DUP1 AND DUP3 GT ISZERO PUSH2 0x324B JUMPI PUSH1 0xD0 DUP3 PUSH1 0x40 MLOAD PUSH32 0x6DFCC65000000000000000000000000000000000000000000000000000000000 DUP2 MSTORE PUSH1 0x4 ADD PUSH2 0x3242 SWAP3 SWAP2 SWAP1 PUSH2 0x65D4 JUMP JUMPDEST PUSH1 0x40 MLOAD DUP1 SWAP2 SUB SWAP1 REVERT JUMPDEST DUP2 SWAP1 POP SWAP2 SWAP1 POP JUMP JUMPDEST PUSH0 DUP1 PUSH2 0x3262 DUP6 PUSH0 ADD DUP6 DUP6 PUSH2 0x3C10 JUMP JUMPDEST SWAP2 POP SWAP2 POP SWAP4 POP SWAP4 SWAP2 POP POP JUMP JUMPDEST PUSH4 0x4E487B71 PUSH0 MSTORE DUP1 PUSH1 0x20 MSTORE PUSH1 0x24 PUSH1 0x1C REVERT JUMPDEST PUSH0 PUSH32 0x0 PUSH20 0xFFFFFFFFFFFFFFFFFFFFFFFFFFFFFFFFFFFFFFFF AND ADDRESS PUSH20 0xFFFFFFFFFFFFFFFFFFFFFFFFFFFFFFFFFFFFFFFF AND EQ DUP1 ISZERO PUSH2 0x32FA JUMPI POP PUSH32 0x0 CHAINID EQ JUMPDEST ISZERO PUSH2 0x3327 JUMPI PUSH32 0x0 SWAP1 POP PUSH2 0x3332 JUMP JUMPDEST PUSH2 0x332F PUSH2 0x3F04 JUMP JUMPDEST SWAP1 POP JUMPDEST SWAP1 JUMP JUMPDEST PUSH0 PUSH1 0x40 MLOAD PUSH32 0x1901000000000000000000000000000000000000000000000000000000000000 DUP2 MSTORE DUP4 PUSH1 0x2 DUP3 ADD MSTORE DUP3 PUSH1 0x22 DUP3 ADD MSTORE PUSH1 0x42 DUP2 KECCAK256 SWAP2 POP POP SWAP3 SWAP2 POP POP JUMP JUMPDEST PUSH0 DUP1 PUSH0 PUSH1 0x41 DUP5 MLOAD SUB PUSH2 0x33B5 JUMPI PUSH0 DUP1 PUSH0 PUSH1 0x20 DUP8 ADD MLOAD SWAP3 POP PUSH1 0x40 DUP8 ADD MLOAD SWAP2 POP PUSH1 0x60 DUP8 ADD MLOAD PUSH0 BYTE SWAP1 POP PUSH2 0x33A7 DUP9 DUP3 DUP6 DUP6 PUSH2 0x3F99 JUMP JUMPDEST SWAP6 POP SWAP6 POP SWAP6 POP POP POP POP PUSH2 0x33C3 JUMP JUMPDEST PUSH0 PUSH1 0x2 DUP6 MLOAD PUSH0 SHL SWAP3 POP SWAP3 POP SWAP3 POP JUMPDEST SWAP3 POP SWAP3 POP SWAP3 JUMP JUMPDEST PUSH0 DUP1 PUSH0 DUP6 PUSH20 0xFFFFFFFFFFFFFFFFFFFFFFFFFFFFFFFFFFFFFFFF AND DUP6 DUP6 PUSH1 0x40 MLOAD PUSH1 0x24 ADD PUSH2 0x33F7 SWAP3 SWAP2 SWAP1 PUSH2 0x65FB JUMP JUMPDEST PUSH1 0x40 MLOAD PUSH1 0x20 DUP2 DUP4 SUB SUB DUP2 MSTORE SWAP1 PUSH1 0x40 MSTORE PUSH4 0x1626BA7E PUSH1 0xE0 SHL PUSH1 0x20 DUP3 ADD DUP1 MLOAD PUSH28 0xFFFFFFFFFFFFFFFFFFFFFFFFFFFFFFFFFFFFFFFFFFFFFFFFFFFFFFFF DUP4 DUP2 DUP4 AND OR DUP4 MSTORE POP POP POP POP PUSH1 0x40 MLOAD PUSH2 0x3449 SWAP2 SWAP1 PUSH2 0x5F9A JUMP JUMPDEST PUSH0 PUSH1 0x40 MLOAD DUP1 DUP4 SUB DUP2 DUP6 GAS STATICCALL SWAP2 POP POP RETURNDATASIZE DUP1 PUSH0 DUP2 EQ PUSH2 0x3481 JUMPI PUSH1 0x40 MLOAD SWAP2 POP PUSH1 0x1F NOT PUSH1 0x3F RETURNDATASIZE ADD AND DUP3 ADD PUSH1 0x40 MSTORE RETURNDATASIZE DUP3 MSTORE RETURNDATASIZE PUSH0 PUSH1 0x20 DUP5 ADD RETURNDATACOPY PUSH2 0x3486 JUMP JUMPDEST PUSH1 0x60 SWAP2 POP JUMPDEST POP SWAP2 POP SWAP2 POP DUP2 DUP1 ISZERO PUSH2 0x349A JUMPI POP PUSH1 0x20 DUP2 MLOAD LT ISZERO JUMPDEST DUP1 ISZERO PUSH2 0x34DE JUMPI POP PUSH4 0x1626BA7E PUSH1 0xE0 SHL PUSH28 0xFFFFFFFFFFFFFFFFFFFFFFFFFFFFFFFFFFFFFFFFFFFFFFFFFFFFFFFF NOT AND DUP2 DUP1 PUSH1 0x20 ADD SWAP1 MLOAD DUP2 ADD SWAP1 PUSH2 0x34DC SWAP2 SWAP1 PUSH2 0x663D JUMP JUMPDEST EQ JUMPDEST SWAP3 POP POP POP SWAP4 SWAP3 POP POP POP JUMP JUMPDEST PUSH0 DUP1 PUSH1 0x9 PUSH0 DUP9 DUP2 MSTORE PUSH1 0x20 ADD SWAP1 DUP2 MSTORE PUSH1 0x20 ADD PUSH0 KECCAK256 SWAP1 POP DUP1 PUSH1 0x3 ADD PUSH0 DUP8 PUSH20 0xFFFFFFFFFFFFFFFFFFFFFFFFFFFFFFFFFFFFFFFF AND PUSH20 0xFFFFFFFFFFFFFFFFFFFFFFFFFFFFFFFFFFFFFFFF AND DUP2 MSTORE PUSH1 0x20 ADD SWAP1 DUP2 MSTORE PUSH1 0x20 ADD PUSH0 KECCAK256 PUSH0 SWAP1 SLOAD SWAP1 PUSH2 0x100 EXP SWAP1 DIV PUSH1 0xFF AND ISZERO PUSH2 0x358C JUMPI DUP6 PUSH1 0x40 MLOAD PUSH32 0x71C6AF4900000000000000000000000000000000000000000000000000000000 DUP2 MSTORE PUSH1 0x4 ADD PUSH2 0x3583 SWAP2 SWAP1 PUSH2 0x47B9 JUMP JUMPDEST PUSH1 0x40 MLOAD DUP1 SWAP2 SUB SWAP1 REVERT JUMPDEST PUSH1 0x1 DUP2 PUSH1 0x3 ADD PUSH0 DUP9 PUSH20 0xFFFFFFFFFFFFFFFFFFFFFFFFFFFFFFFFFFFFFFFF AND PUSH20 0xFFFFFFFFFFFFFFFFFFFFFFFFFFFFFFFFFFFFFFFF AND DUP2 MSTORE PUSH1 0x20 ADD SWAP1 DUP2 MSTORE PUSH1 0x20 ADD PUSH0 KECCAK256 PUSH0 PUSH2 0x100 EXP DUP2 SLOAD DUP2 PUSH1 0xFF MUL NOT AND SWAP1 DUP4 ISZERO ISZERO MUL OR SWAP1 SSTORE POP PUSH0 PUSH1 0x2 DUP2 GT ISZERO PUSH2 0x35F6 JUMPI PUSH2 0x35F5 PUSH2 0x4D45 JUMP JUMPDEST JUMPDEST PUSH1 0xFF AND DUP6 PUSH1 0xFF AND SUB PUSH2 0x3620 JUMPI DUP4 DUP2 PUSH0 ADD PUSH0 DUP3 DUP3 SLOAD PUSH2 0x3614 SWAP2 SWAP1 PUSH2 0x5FB0 JUMP JUMPDEST SWAP3 POP POP DUP2 SWAP1 SSTORE POP PUSH2 0x36D1 JUMP JUMPDEST PUSH1 0x1 PUSH1 0x2 DUP2 GT ISZERO PUSH2 0x3634 JUMPI PUSH2 0x3633 PUSH2 0x4D45 JUMP JUMPDEST JUMPDEST PUSH1 0xFF AND DUP6 PUSH1 0xFF AND SUB PUSH2 0x365F JUMPI DUP4 DUP2 PUSH1 0x1 ADD PUSH0 DUP3 DUP3 SLOAD PUSH2 0x3653 SWAP2 SWAP1 PUSH2 0x5FB0 JUMP JUMPDEST SWAP3 POP POP DUP2 SWAP1 SSTORE POP PUSH2 0x36D0 JUMP JUMPDEST PUSH1 0x2 DUP1 DUP2 GT ISZERO PUSH2 0x3672 JUMPI PUSH2 0x3671 PUSH2 0x4D45 JUMP JUMPDEST JUMPDEST PUSH1 0xFF AND DUP6 PUSH1 0xFF AND SUB PUSH2 0x369D JUMPI DUP4 DUP2 PUSH1 0x2 ADD PUSH0 DUP3 DUP3 SLOAD PUSH2 0x3691 SWAP2 SWAP1 PUSH2 0x5FB0 JUMP JUMPDEST SWAP3 POP POP DUP2 SWAP1 SSTORE POP PUSH2 0x36CF JUMP JUMPDEST PUSH1 0x40 MLOAD PUSH32 0x6B337C200000000000000000000000000000000000000000000000000000000 DUP2 MSTORE PUSH1 0x4 ADD PUSH1 0x40 MLOAD DUP1 SWAP2 SUB SWAP1 REVERT JUMPDEST JUMPDEST JUMPDEST DUP4 SWAP2 POP POP SWAP6 SWAP5 POP POP POP POP POP JUMP JUMPDEST POP JUMP JUMPDEST PUSH0 DUP1 PUSH0 DUP1 DUP5 PUSH0 ADD DUP1 SLOAD SWAP1 POP SWAP1 POP PUSH0 DUP2 SUB PUSH2 0x3704 JUMPI PUSH0 DUP1 PUSH0 SWAP4 POP SWAP4 POP SWAP4 POP POP PUSH2 0x3769 JUMP JUMPDEST PUSH0 PUSH2 0x371D DUP7 PUSH0 ADD PUSH1 0x1 DUP5 PUSH2 0x3718 SWAP2 SWAP1 PUSH2 0x6190 JUMP JUMPDEST PUSH2 0x3ADB JUMP JUMPDEST SWAP1 POP PUSH1 0x1 DUP2 PUSH0 ADD PUSH0 SWAP1 SLOAD SWAP1 PUSH2 0x100 EXP SWAP1 DIV PUSH6 0xFFFFFFFFFFFF AND DUP3 PUSH0 ADD PUSH1 0x6 SWAP1 SLOAD SWAP1 PUSH2 0x100 EXP SWAP1 DIV PUSH26 0xFFFFFFFFFFFFFFFFFFFFFFFFFFFFFFFFFFFFFFFFFFFFFFFFFFFF AND SWAP5 POP SWAP5 POP SWAP5 POP POP POP JUMPDEST SWAP2 SWAP4 SWAP1 SWAP3 POP JUMP JUMPDEST PUSH0 PUSH6 0xFFFFFFFFFFFF DUP1 AND DUP3 GT ISZERO PUSH2 0x37C1 JUMPI PUSH1 0x30 DUP3 PUSH1 0x40 MLOAD PUSH32 0x6DFCC65000000000000000000000000000000000000000000000000000000000 DUP2 MSTORE PUSH1 0x4 ADD PUSH2 0x37B8 SWAP3 SWAP2 SWAP1 PUSH2 0x66A1 JUMP JUMPDEST PUSH1 0x40 MLOAD DUP1 SWAP2 SUB SWAP1 REVERT JUMPDEST DUP2 SWAP1 POP SWAP2 SWAP1 POP JUMP JUMPDEST PUSH0 DUP1 DUP4 PUSH0 ADD DUP1 SLOAD SWAP1 POP SWAP1 POP PUSH0 DUP1 DUP3 SWAP1 POP PUSH1 0x5 DUP4 GT ISZERO PUSH2 0x384A JUMPI PUSH0 PUSH2 0x37EC DUP5 PUSH2 0x4080 JUMP JUMPDEST DUP5 PUSH2 0x37F7 SWAP2 SWAP1 PUSH2 0x6190 JUMP JUMPDEST SWAP1 POP PUSH2 0x3805 DUP8 PUSH0 ADD DUP3 PUSH2 0x3ADB JUMP JUMPDEST PUSH0 ADD PUSH0 SWAP1 SLOAD SWAP1 PUSH2 0x100 EXP SWAP1 DIV PUSH6 0xFFFFFFFFFFFF AND PUSH6 0xFFFFFFFFFFFF AND DUP7 PUSH6 0xFFFFFFFFFFFF AND LT ISZERO PUSH2 0x3838 JUMPI DUP1 SWAP2 POP PUSH2 0x3848 JUMP JUMPDEST PUSH1 0x1 DUP2 PUSH2 0x3845 SWAP2 SWAP1 PUSH2 0x5FB0 JUMP JUMPDEST SWAP3 POP JUMPDEST POP JUMPDEST PUSH0 PUSH2 0x3859 DUP8 PUSH0 ADD DUP8 DUP6 DUP6 PUSH2 0x421A JUMP JUMPDEST SWAP1 POP PUSH0 DUP2 EQ PUSH2 0x38A8 JUMPI PUSH2 0x387A DUP8 PUSH0 ADD PUSH1 0x1 DUP4 PUSH2 0x3875 SWAP2 SWAP1 PUSH2 0x6190 JUMP JUMPDEST PUSH2 0x3ADB JUMP JUMPDEST PUSH0 ADD PUSH1 0x6 SWAP1 SLOAD SWAP1 PUSH2 0x100 EXP SWAP1 DIV PUSH26 0xFFFFFFFFFFFFFFFFFFFFFFFFFFFFFFFFFFFFFFFFFFFFFFFFFFFF AND PUSH2 0x38AA JUMP JUMPDEST PUSH0 JUMPDEST SWAP5 POP POP POP POP POP SWAP3 SWAP2 POP POP JUMP JUMPDEST PUSH0 DUP2 PUSH1 0x20 ADD DUP4 ADD MLOAD SWAP1 POP SWAP3 SWAP2 POP POP JUMP JUMPDEST PUSH0 DUP1 DUP5 MLOAD DUP4 GT DUP1 PUSH2 0x38D6 JUMPI POP DUP3 DUP5 GT JUMPDEST ISZERO PUSH2 0x38E6 JUMPI PUSH0 DUP1 SWAP2 POP SWAP2 POP PUSH2 0x39CF JUMP JUMPDEST PUSH0 PUSH1 0x1 DUP6 PUSH2 0x38F4 SWAP2 SWAP1 PUSH2 0x5FB0 JUMP JUMPDEST DUP5 GT DUP1 ISZERO PUSH2 0x396C JUMPI POP PUSH32 0x3078000000000000000000000000000000000000000000000000000000000000 PUSH30 0xFFFFFFFFFFFFFFFFFFFFFFFFFFFFFFFFFFFFFFFFFFFFFFFFFFFFFFFFFFFF NOT AND PUSH2 0x3949 DUP8 DUP8 PUSH2 0x428F JUMP JUMPDEST PUSH30 0xFFFFFFFFFFFFFFFFFFFFFFFFFFFFFFFFFFFFFFFFFFFFFFFFFFFFFFFFFFFF NOT AND EQ JUMPDEST SWAP1 POP PUSH0 PUSH1 0x2 PUSH2 0x397C DUP4 ISZERO ISZERO PUSH2 0x429F JUMP JUMPDEST PUSH2 0x3986 SWAP2 SWAP1 PUSH2 0x66C8 JUMP JUMPDEST PUSH1 0x28 PUSH2 0x3992 SWAP2 SWAP1 PUSH2 0x5FB0 JUMP JUMPDEST SWAP1 POP DUP1 DUP7 DUP7 PUSH2 0x39A1 SWAP2 SWAP1 PUSH2 0x6190 JUMP JUMPDEST SUB PUSH2 0x39C6 JUMPI PUSH0 DUP1 PUSH2 0x39B3 DUP10 DUP10 DUP10 PUSH2 0x42AA JUMP JUMPDEST SWAP2 POP SWAP2 POP DUP2 DUP2 SWAP6 POP SWAP6 POP POP POP POP POP PUSH2 0x39CF JUMP JUMPDEST PUSH0 DUP1 SWAP4 POP SWAP4 POP POP POP JUMPDEST SWAP4 POP SWAP4 SWAP2 POP POP JUMP JUMPDEST PUSH0 PUSH4 0xFFFFFFFF DUP1 AND DUP3 GT ISZERO PUSH2 0x3A26 JUMPI PUSH1 0x20 DUP3 PUSH1 0x40 MLOAD PUSH32 0x6DFCC65000000000000000000000000000000000000000000000000000000000 DUP2 MSTORE PUSH1 0x4 ADD PUSH2 0x3A1D SWAP3 SWAP2 SWAP1 PUSH2 0x6742 JUMP JUMPDEST PUSH1 0x40 MLOAD DUP1 SWAP2 SUB SWAP1 REVERT JUMPDEST DUP2 SWAP1 POP SWAP2 SWAP1 POP JUMP JUMPDEST PUSH1 0x60 PUSH1 0xFF PUSH0 SHL DUP4 EQ PUSH2 0x3A4A JUMPI PUSH2 0x3A43 DUP4 PUSH2 0x43DB JUMP JUMPDEST SWAP1 POP PUSH2 0x3AD5 JUMP JUMPDEST DUP2 DUP1 SLOAD PUSH2 0x3A56 SWAP1 PUSH2 0x58F5 JUMP JUMPDEST DUP1 PUSH1 0x1F ADD PUSH1 0x20 DUP1 SWAP2 DIV MUL PUSH1 0x20 ADD PUSH1 0x40 MLOAD SWAP1 DUP2 ADD PUSH1 0x40 MSTORE DUP1 SWAP3 SWAP2 SWAP1 DUP2 DUP2 MSTORE PUSH1 0x20 ADD DUP3 DUP1 SLOAD PUSH2 0x3A82 SWAP1 PUSH2 0x58F5 JUMP JUMPDEST DUP1 ISZERO PUSH2 0x3ACD JUMPI DUP1 PUSH1 0x1F LT PUSH2 0x3AA4 JUMPI PUSH2 0x100 DUP1 DUP4 SLOAD DIV MUL DUP4 MSTORE SWAP2 PUSH1 0x20 ADD SWAP2 PUSH2 0x3ACD JUMP JUMPDEST DUP3 ADD SWAP2 SWAP1 PUSH0 MSTORE PUSH1 0x20 PUSH0 KECCAK256 SWAP1 JUMPDEST DUP2 SLOAD DUP2 MSTORE SWAP1 PUSH1 0x1 ADD SWAP1 PUSH1 0x20 ADD DUP1 DUP4 GT PUSH2 0x3AB0 JUMPI DUP3 SWAP1 SUB PUSH1 0x1F AND DUP3 ADD SWAP2 JUMPDEST POP POP POP POP POP SWAP1 POP JUMPDEST SWAP3 SWAP2 POP POP JUMP JUMPDEST PUSH0 DUP3 PUSH0 MSTORE DUP2 PUSH1 0x20 PUSH0 KECCAK256 ADD SWAP1 POP SWAP3 SWAP2 POP POP JUMP JUMPDEST PUSH0 DUP2 MLOAD GT ISZERO PUSH2 0x3AFF JUMPI DUP1 MLOAD DUP1 DUP3 PUSH1 0x20 ADD REVERT JUMPDEST PUSH1 0x40 MLOAD PUSH32 0xD6BDA27500000000000000000000000000000000000000000000000000000000 DUP2 MSTORE PUSH1 0x4 ADD PUSH1 0x40 MLOAD DUP1 SWAP2 SUB SWAP1 REVERT JUMPDEST PUSH0 DUP1 PUSH0 PUSH2 0x3B3E DUP7 DUP7 PUSH2 0x444D JUMP JUMPDEST SWAP2 POP SWAP2 POP PUSH0 DUP3 SUB PUSH2 0x3B63 JUMPI DUP4 DUP2 DUP2 PUSH2 0x3B59 JUMPI PUSH2 0x3B58 PUSH2 0x6769 JUMP JUMPDEST JUMPDEST DIV SWAP3 POP POP POP PUSH2 0x3C09 JUMP JUMPDEST DUP2 DUP5 GT PUSH2 0x3B82 JUMPI PUSH2 0x3B81 PUSH2 0x3B7C PUSH0 DUP7 EQ PUSH1 0x12 PUSH1 0x11 PUSH2 0x446A JUMP JUMPDEST PUSH2 0x326E JUMP JUMPDEST JUMPDEST PUSH0 DUP5 DUP7 DUP9 MULMOD SWAP1 POP DUP2 DUP2 GT DUP4 SUB SWAP3 POP DUP1 DUP3 SUB SWAP2 POP PUSH0 DUP6 PUSH0 SUB DUP7 AND SWAP1 POP DUP1 DUP7 DIV SWAP6 POP DUP1 DUP4 DIV SWAP3 POP PUSH1 0x1 DUP2 DUP3 PUSH0 SUB DIV ADD SWAP1 POP DUP1 DUP5 MUL DUP4 OR SWAP3 POP PUSH0 PUSH1 0x2 DUP8 PUSH1 0x3 MUL XOR SWAP1 POP DUP1 DUP8 MUL PUSH1 0x2 SUB DUP2 MUL SWAP1 POP DUP1 DUP8 MUL PUSH1 0x2 SUB DUP2 MUL SWAP1 POP DUP1 DUP8 MUL PUSH1 0x2 SUB DUP2 MUL SWAP1 POP DUP1 DUP8 MUL PUSH1 0x2 SUB DUP2 MUL SWAP1 POP DUP1 DUP8 MUL PUSH1 0x2 SUB DUP2 MUL SWAP1 POP DUP1 DUP8 MUL PUSH1 0x2 SUB DUP2 MUL SWAP1 POP DUP1 DUP5 MUL SWAP6 POP POP POP POP POP POP JUMPDEST SWAP4 SWAP3 POP POP POP JUMP JUMPDEST PUSH0 DUP1 PUSH0 DUP6 DUP1 SLOAD SWAP1 POP SWAP1 POP PUSH0 DUP2 GT ISZERO PUSH2 0x3E1C JUMPI PUSH0 PUSH2 0x3C39 DUP8 PUSH1 0x1 DUP5 PUSH2 0x3C34 SWAP2 SWAP1 PUSH2 0x6190 JUMP JUMPDEST PUSH2 0x3ADB JUMP JUMPDEST SWAP1 POP PUSH0 DUP2 PUSH0 ADD PUSH0 SWAP1 SLOAD SWAP1 PUSH2 0x100 EXP SWAP1 DIV PUSH6 0xFFFFFFFFFFFF AND SWAP1 POP PUSH0 DUP3 PUSH0 ADD PUSH1 0x6 SWAP1 SLOAD SWAP1 PUSH2 0x100 EXP SWAP1 DIV PUSH26 0xFFFFFFFFFFFFFFFFFFFFFFFFFFFFFFFFFFFFFFFFFFFFFFFFFFFF AND SWAP1 POP DUP8 PUSH6 0xFFFFFFFFFFFF AND DUP3 PUSH6 0xFFFFFFFFFFFF AND GT ISZERO PUSH2 0x3CCA JUMPI PUSH1 0x40 MLOAD PUSH32 0x2520601D00000000000000000000000000000000000000000000000000000000 DUP2 MSTORE PUSH1 0x4 ADD PUSH1 0x40 MLOAD DUP1 SWAP2 SUB SWAP1 REVERT JUMPDEST DUP8 PUSH6 0xFFFFFFFFFFFF AND DUP3 PUSH6 0xFFFFFFFFFFFF AND SUB PUSH2 0x3D34 JUMPI DUP7 DUP4 PUSH0 ADD PUSH1 0x6 PUSH2 0x100 EXP DUP2 SLOAD DUP2 PUSH26 0xFFFFFFFFFFFFFFFFFFFFFFFFFFFFFFFFFFFFFFFFFFFFFFFFFFFF MUL NOT AND SWAP1 DUP4 PUSH26 0xFFFFFFFFFFFFFFFFFFFFFFFFFFFFFFFFFFFFFFFFFFFFFFFFFFFF AND MUL OR SWAP1 SSTORE POP PUSH2 0x3E0D JUMP JUMPDEST DUP9 PUSH1 0x40 MLOAD DUP1 PUSH1 0x40 ADD PUSH1 0x40 MSTORE DUP1 DUP11 PUSH6 0xFFFFFFFFFFFF AND DUP2 MSTORE PUSH1 0x20 ADD DUP10 PUSH26 0xFFFFFFFFFFFFFFFFFFFFFFFFFFFFFFFFFFFFFFFFFFFFFFFFFFFF AND DUP2 MSTORE POP SWAP1 DUP1 PUSH1 0x1 DUP2 SLOAD ADD DUP1 DUP3 SSTORE DUP1 SWAP2 POP POP PUSH1 0x1 SWAP1 SUB SWAP1 PUSH0 MSTORE PUSH1 0x20 PUSH0 KECCAK256 ADD PUSH0 SWAP1 SWAP2 SWAP1 SWAP2 SWAP1 SWAP2 POP PUSH0 DUP3 ADD MLOAD DUP2 PUSH0 ADD PUSH0 PUSH2 0x100 EXP DUP2 SLOAD DUP2 PUSH6 0xFFFFFFFFFFFF MUL NOT AND SWAP1 DUP4 PUSH6 0xFFFFFFFFFFFF AND MUL OR SWAP1 SSTORE POP PUSH1 0x20 DUP3 ADD MLOAD DUP2 PUSH0 ADD PUSH1 0x6 PUSH2 0x100 EXP DUP2 SLOAD DUP2 PUSH26 0xFFFFFFFFFFFFFFFFFFFFFFFFFFFFFFFFFFFFFFFFFFFFFFFFFFFF MUL NOT AND SWAP1 DUP4 PUSH26 0xFFFFFFFFFFFFFFFFFFFFFFFFFFFFFFFFFFFFFFFFFFFFFFFFFFFF AND MUL OR SWAP1 SSTORE POP POP POP JUMPDEST DUP1 DUP8 SWAP6 POP SWAP6 POP POP POP POP POP PUSH2 0x3EFC JUMP JUMPDEST DUP6 PUSH1 0x40 MLOAD DUP1 PUSH1 0x40 ADD PUSH1 0x40 MSTORE DUP1 DUP8 PUSH6 0xFFFFFFFFFFFF AND DUP2 MSTORE PUSH1 0x20 ADD DUP7 PUSH26 0xFFFFFFFFFFFFFFFFFFFFFFFFFFFFFFFFFFFFFFFFFFFFFFFFFFFF AND DUP2 MSTORE POP SWAP1 DUP1 PUSH1 0x1 DUP2 SLOAD ADD DUP1 DUP3 SSTORE DUP1 SWAP2 POP POP PUSH1 0x1 SWAP1 SUB SWAP1 PUSH0 MSTORE PUSH1 0x20 PUSH0 KECCAK256 ADD PUSH0 SWAP1 SWAP2 SWAP1 SWAP2 SWAP1 SWAP2 POP PUSH0 DUP3 ADD MLOAD DUP2 PUSH0 ADD PUSH0 PUSH2 0x100 EXP DUP2 SLOAD DUP2 PUSH6 0xFFFFFFFFFFFF MUL NOT AND SWAP1 DUP4 PUSH6 0xFFFFFFFFFFFF AND MUL OR SWAP1 SSTORE POP PUSH1 0x20 DUP3 ADD MLOAD DUP2 PUSH0 ADD PUSH1 0x6 PUSH2 0x100 EXP DUP2 SLOAD DUP2 PUSH26 0xFFFFFFFFFFFFFFFFFFFFFFFFFFFFFFFFFFFFFFFFFFFFFFFFFFFF MUL NOT AND SWAP1 DUP4 PUSH26 0xFFFFFFFFFFFFFFFFFFFFFFFFFFFFFFFFFFFFFFFFFFFFFFFFFFFF AND MUL OR SWAP1 SSTORE POP POP POP PUSH0 DUP5 SWAP3 POP SWAP3 POP POP JUMPDEST SWAP4 POP SWAP4 SWAP2 POP POP JUMP JUMPDEST PUSH0 PUSH32 0x8B73C3C69BB8FE3D512ECC4CF759CC79239F7B179B0FFACAA9A75D522B39400F PUSH32 0x0 PUSH32 0x0 CHAINID ADDRESS PUSH1 0x40 MLOAD PUSH1 0x20 ADD PUSH2 0x3F7E SWAP6 SWAP5 SWAP4 SWAP3 SWAP2 SWAP1 PUSH2 0x6796 JUMP JUMPDEST PUSH1 0x40 MLOAD PUSH1 0x20 DUP2 DUP4 SUB SUB DUP2 MSTORE SWAP1 PUSH1 0x40 MSTORE DUP1 MLOAD SWAP1 PUSH1 0x20 ADD KECCAK256 SWAP1 POP SWAP1 JUMP JUMPDEST PUSH0 DUP1 PUSH0 PUSH32 0x7FFFFFFFFFFFFFFFFFFFFFFFFFFFFFFF5D576E7357A4501DDFE92F46681B20A0 DUP5 PUSH0 SHR GT ISZERO PUSH2 0x3FD5 JUMPI PUSH0 PUSH1 0x3 DUP6 SWAP3 POP SWAP3 POP SWAP3 POP PUSH2 0x4076 JUMP JUMPDEST PUSH0 PUSH1 0x1 DUP9 DUP9 DUP9 DUP9 PUSH1 0x40 MLOAD PUSH0 DUP2 MSTORE PUSH1 0x20 ADD PUSH1 0x40 MSTORE PUSH1 0x40 MLOAD PUSH2 0x3FF8 SWAP5 SWAP4 SWAP3 SWAP2 SWAP1 PUSH2 0x67E7 JUMP JUMPDEST PUSH1 0x20 PUSH1 0x40 MLOAD PUSH1 0x20 DUP2 SUB SWAP1 DUP1 DUP5 SUB SWAP1 DUP6 GAS STATICCALL ISZERO DUP1 ISZERO PUSH2 0x4018 JUMPI RETURNDATASIZE PUSH0 DUP1 RETURNDATACOPY RETURNDATASIZE PUSH0 REVERT JUMPDEST POP POP POP PUSH1 0x20 PUSH1 0x40 MLOAD SUB MLOAD SWAP1 POP PUSH0 PUSH20 0xFFFFFFFFFFFFFFFFFFFFFFFFFFFFFFFFFFFFFFFF AND DUP2 PUSH20 0xFFFFFFFFFFFFFFFFFFFFFFFFFFFFFFFFFFFFFFFF AND SUB PUSH2 0x4069 JUMPI PUSH0 PUSH1 0x1 PUSH0 DUP1 SHL SWAP4 POP SWAP4 POP SWAP4 POP POP PUSH2 0x4076 JUMP JUMPDEST DUP1 PUSH0 DUP1 PUSH0 SHL SWAP4 POP SWAP4 POP SWAP4 POP POP JUMPDEST SWAP5 POP SWAP5 POP SWAP5 SWAP2 POP POP JUMP JUMPDEST PUSH0 PUSH1 0x1 DUP3 GT PUSH2 0x4091 JUMPI DUP2 SWAP1 POP PUSH2 0x4215 JUMP JUMPDEST PUSH0 DUP3 SWAP1 POP PUSH0 PUSH1 0x1 SWAP1 POP PUSH17 0x100000000000000000000000000000000 DUP3 LT PUSH2 0x40C1 JUMPI PUSH1 0x80 DUP3 SWAP1 SHR SWAP2 POP PUSH1 0x40 DUP2 SWAP1 SHL SWAP1 POP JUMPDEST PUSH9 0x10000000000000000 DUP3 LT PUSH2 0x40E0 JUMPI PUSH1 0x40 DUP3 SWAP1 SHR SWAP2 POP PUSH1 0x20 DUP2 SWAP1 SHL SWAP1 POP JUMPDEST PUSH5 0x100000000 DUP3 LT PUSH2 0x40FB JUMPI PUSH1 0x20 DUP3 SWAP1 SHR SWAP2 POP PUSH1 0x10 DUP2 SWAP1 SHL SWAP1 POP JUMPDEST PUSH3 0x10000 DUP3 LT PUSH2 0x4114 JUMPI PUSH1 0x10 DUP3 SWAP1 SHR SWAP2 POP PUSH1 0x8 DUP2 SWAP1 SHL SWAP1 POP JUMPDEST PUSH2 0x100 DUP3 LT PUSH2 0x412C JUMPI PUSH1 0x8 DUP3 SWAP1 SHR SWAP2 POP PUSH1 0x4 DUP2 SWAP1 SHL SWAP1 POP JUMPDEST PUSH1 0x10 DUP3 LT PUSH2 0x4143 JUMPI PUSH1 0x4 DUP3 SWAP1 SHR SWAP2 POP PUSH1 0x2 DUP2 SWAP1 SHL SWAP1 POP JUMPDEST PUSH1 0x4 DUP3 LT PUSH2 0x4153 JUMPI PUSH1 0x1 DUP2 SWAP1 SHL SWAP1 POP JUMPDEST PUSH1 0x1 DUP2 PUSH1 0x3 MUL SWAP1 SHR SWAP1 POP PUSH1 0x1 DUP2 DUP6 DUP2 PUSH2 0x416F JUMPI PUSH2 0x416E PUSH2 0x6769 JUMP JUMPDEST JUMPDEST DIV DUP3 ADD SWAP1 SHR SWAP1 POP PUSH1 0x1 DUP2 DUP6 DUP2 PUSH2 0x4188 JUMPI PUSH2 0x4187 PUSH2 0x6769 JUMP JUMPDEST JUMPDEST DIV DUP3 ADD SWAP1 SHR SWAP1 POP PUSH1 0x1 DUP2 DUP6 DUP2 PUSH2 0x41A1 JUMPI PUSH2 0x41A0 PUSH2 0x6769 JUMP JUMPDEST JUMPDEST DIV DUP3 ADD SWAP1 SHR SWAP1 POP PUSH1 0x1 DUP2 DUP6 DUP2 PUSH2 0x41BA JUMPI PUSH2 0x41B9 PUSH2 0x6769 JUMP JUMPDEST JUMPDEST DIV DUP3 ADD SWAP1 SHR SWAP1 POP PUSH1 0x1 DUP2 DUP6 DUP2 PUSH2 0x41D3 JUMPI PUSH2 0x41D2 PUSH2 0x6769 JUMP JUMPDEST JUMPDEST DIV DUP3 ADD SWAP1 SHR SWAP1 POP PUSH1 0x1 DUP2 DUP6 DUP2 PUSH2 0x41EC JUMPI PUSH2 0x41EB PUSH2 0x6769 JUMP JUMPDEST JUMPDEST DIV DUP3 ADD SWAP1 SHR SWAP1 POP PUSH2 0x420E DUP2 DUP6 DUP2 PUSH2 0x4206 JUMPI PUSH2 0x4205 PUSH2 0x6769 JUMP JUMPDEST JUMPDEST DIV DUP3 GT PUSH2 0x429F JUMP JUMPDEST DUP2 SUB SWAP3 POP POP POP JUMPDEST SWAP2 SWAP1 POP JUMP JUMPDEST PUSH0 JUMPDEST DUP2 DUP4 LT ISZERO PUSH2 0x4284 JUMPI PUSH0 PUSH2 0x422F DUP5 DUP5 PUSH2 0x4483 JUMP JUMPDEST SWAP1 POP DUP5 PUSH6 0xFFFFFFFFFFFF AND PUSH2 0x4244 DUP8 DUP4 PUSH2 0x3ADB JUMP JUMPDEST PUSH0 ADD PUSH0 SWAP1 SLOAD SWAP1 PUSH2 0x100 EXP SWAP1 DIV PUSH6 0xFFFFFFFFFFFF AND PUSH6 0xFFFFFFFFFFFF AND GT ISZERO PUSH2 0x426E JUMPI DUP1 SWAP3 POP PUSH2 0x427E JUMP JUMPDEST PUSH1 0x1 DUP2 PUSH2 0x427B SWAP2 SWAP1 PUSH2 0x5FB0 JUMP JUMPDEST SWAP4 POP JUMPDEST POP PUSH2 0x421C JUMP JUMPDEST DUP2 SWAP1 POP SWAP5 SWAP4 POP POP POP POP JUMP JUMPDEST PUSH0 DUP2 PUSH1 0x20 ADD DUP4 ADD MLOAD SWAP1 POP SWAP3 SWAP2 POP POP JUMP JUMPDEST PUSH0 DUP2 ISZERO ISZERO SWAP1 POP SWAP2 SWAP1 POP JUMP JUMPDEST PUSH0 DUP1 PUSH0 DUP6 SWAP1 POP PUSH0 PUSH1 0x1 DUP7 PUSH2 0x42BE SWAP2 SWAP1 PUSH2 0x5FB0 JUMP JUMPDEST DUP6 GT DUP1 ISZERO PUSH2 0x4336 JUMPI POP PUSH32 0x3078000000000000000000000000000000000000000000000000000000000000 PUSH30 0xFFFFFFFFFFFFFFFFFFFFFFFFFFFFFFFFFFFFFFFFFFFFFFFFFFFFFFFFFFFF NOT AND PUSH2 0x4313 DUP4 DUP9 PUSH2 0x428F JUMP JUMPDEST PUSH30 0xFFFFFFFFFFFFFFFFFFFFFFFFFFFFFFFFFFFFFFFFFFFFFFFFFFFFFFFFFFFF NOT AND EQ JUMPDEST SWAP1 POP PUSH0 PUSH1 0x2 PUSH2 0x4346 DUP4 ISZERO ISZERO PUSH2 0x429F JUMP JUMPDEST PUSH2 0x4350 SWAP2 SWAP1 PUSH2 0x66C8 JUMP JUMPDEST SWAP1 POP PUSH0 DUP1 DUP3 DUP10 PUSH2 0x4360 SWAP2 SWAP1 PUSH2 0x5FB0 JUMP JUMPDEST SWAP1 POP JUMPDEST DUP8 DUP2 LT ISZERO PUSH2 0x43C6 JUMPI PUSH0 PUSH2 0x437E PUSH2 0x4379 DUP8 DUP5 PUSH2 0x428F JUMP JUMPDEST PUSH2 0x44A8 JUMP JUMPDEST SWAP1 POP PUSH1 0xF DUP2 PUSH1 0xFF AND GT ISZERO PUSH2 0x439D JUMPI PUSH0 DUP1 SWAP8 POP SWAP8 POP POP POP POP POP POP POP PUSH2 0x43D3 JUMP JUMPDEST PUSH1 0x10 DUP4 PUSH2 0x43AA SWAP2 SWAP1 PUSH2 0x66C8 JUMP JUMPDEST SWAP3 POP DUP1 PUSH1 0xFF AND DUP4 ADD SWAP3 POP POP DUP1 PUSH2 0x43BF SWAP1 PUSH2 0x59D6 JUMP JUMPDEST SWAP1 POP PUSH2 0x4363 JUMP JUMPDEST POP PUSH1 0x1 DUP2 SWAP6 POP SWAP6 POP POP POP POP POP JUMPDEST SWAP4 POP SWAP4 SWAP2 POP POP JUMP JUMPDEST PUSH1 0x60 PUSH0 PUSH2 0x43E7 DUP4 PUSH2 0x4538 JUMP JUMPDEST SWAP1 POP PUSH0 PUSH1 0x20 PUSH8 0xFFFFFFFFFFFFFFFF DUP2 GT ISZERO PUSH2 0x4405 JUMPI PUSH2 0x4404 PUSH2 0x4804 JUMP JUMPDEST JUMPDEST PUSH1 0x40 MLOAD SWAP1 DUP1 DUP3 MSTORE DUP1 PUSH1 0x1F ADD PUSH1 0x1F NOT AND PUSH1 0x20 ADD DUP3 ADD PUSH1 0x40 MSTORE DUP1 ISZERO PUSH2 0x4437 JUMPI DUP2 PUSH1 0x20 ADD PUSH1 0x1 DUP3 MUL DUP1 CALLDATASIZE DUP4 CALLDATACOPY DUP1 DUP3 ADD SWAP2 POP POP SWAP1 POP JUMPDEST POP SWAP1 POP DUP2 DUP2 MSTORE DUP4 PUSH1 0x20 DUP3 ADD MSTORE DUP1 SWAP3 POP POP POP SWAP2 SWAP1 POP JUMP JUMPDEST PUSH0 DUP1 PUSH0 NOT DUP4 DUP6 MULMOD DUP4 DUP6 MUL SWAP2 POP DUP2 DUP2 LT DUP3 DUP3 SUB SUB SWAP3 POP POP SWAP3 POP SWAP3 SWAP1 POP JUMP JUMPDEST PUSH0 PUSH2 0x4474 DUP5 PUSH2 0x429F JUMP JUMPDEST DUP3 DUP5 XOR MUL DUP3 XOR SWAP1 POP SWAP4 SWAP3 POP POP POP JUMP JUMPDEST PUSH0 PUSH1 0x2 DUP3 DUP5 XOR PUSH2 0x4493 SWAP2 SWAP1 PUSH2 0x682A JUMP JUMPDEST DUP3 DUP5 AND PUSH2 0x44A0 SWAP2 SWAP1 PUSH2 0x5FB0 JUMP JUMPDEST SWAP1 POP SWAP3 SWAP2 POP POP JUMP JUMPDEST PUSH0 DUP1 DUP3 PUSH1 0xF8 SHR SWAP1 POP PUSH1 0x2F DUP2 PUSH1 0xFF AND GT DUP1 ISZERO PUSH2 0x44C6 JUMPI POP PUSH1 0x3A DUP2 PUSH1 0xFF AND LT JUMPDEST ISZERO PUSH2 0x44D6 JUMPI PUSH1 0x30 DUP2 SUB SWAP1 POP PUSH2 0x452E JUMP JUMPDEST PUSH1 0x60 DUP2 PUSH1 0xFF AND GT DUP1 ISZERO PUSH2 0x44EC JUMPI POP PUSH1 0x67 DUP2 PUSH1 0xFF AND LT JUMPDEST ISZERO PUSH2 0x44FC JUMPI PUSH1 0x57 DUP2 SUB SWAP1 POP PUSH2 0x452D JUMP JUMPDEST PUSH1 0x40 DUP2 PUSH1 0xFF AND GT DUP1 ISZERO PUSH2 0x4512 JUMPI POP PUSH1 0x47 DUP2 PUSH1 0xFF AND LT JUMPDEST ISZERO PUSH2 0x4522 JUMPI PUSH1 0x37 DUP2 SUB SWAP1 POP PUSH2 0x452C JUMP JUMPDEST PUSH1 0xFF SWAP2 POP POP PUSH2 0x4533 JUMP JUMPDEST JUMPDEST JUMPDEST DUP1 SWAP2 POP POP JUMPDEST SWAP2 SWAP1 POP JUMP JUMPDEST PUSH0 DUP1 PUSH1 0xFF DUP4 PUSH0 SHR AND SWAP1 POP PUSH1 0x1F DUP2 GT ISZERO PUSH2 0x457D JUMPI PUSH1 0x40 MLOAD PUSH32 0xB3512B0C00000000000000000000000000000000000000000000000000000000 DUP2 MSTORE PUSH1 0x4 ADD PUSH1 0x40 MLOAD DUP1 SWAP2 SUB SWAP1 REVERT JUMPDEST DUP1 SWAP2 POP POP SWAP2 SWAP1 POP JUMP JUMPDEST PUSH0 PUSH1 0x40 MLOAD SWAP1 POP SWAP1 JUMP JUMPDEST PUSH0 DUP1 REVERT JUMPDEST PUSH0 DUP1 REVERT JUMPDEST PUSH0 PUSH32 0xFFFFFFFF00000000000000000000000000000000000000000000000000000000 DUP3 AND SWAP1 POP SWAP2 SWAP1 POP JUMP JUMPDEST PUSH2 0x45CB DUP2 PUSH2 0x4597 JUMP JUMPDEST DUP2 EQ PUSH2 0x45D5 JUMPI PUSH0 DUP1 REVERT JUMPDEST POP JUMP JUMPDEST PUSH0 DUP2 CALLDATALOAD SWAP1 POP PUSH2 0x45E6 DUP2 PUSH2 0x45C2 JUMP JUMPDEST SWAP3 SWAP2 POP POP JUMP JUMPDEST PUSH0 PUSH1 0x20 DUP3 DUP5 SUB SLT ISZERO PUSH2 0x4601 JUMPI PUSH2 0x4600 PUSH2 0x458F JUMP JUMPDEST JUMPDEST PUSH0 PUSH2 0x460E DUP5 DUP3 DUP6 ADD PUSH2 0x45D8 JUMP JUMPDEST SWAP2 POP POP SWAP3 SWAP2 POP POP JUMP JUMPDEST PUSH0 DUP2 ISZERO ISZERO SWAP1 POP SWAP2 SWAP1 POP JUMP JUMPDEST PUSH2 0x462B DUP2 PUSH2 0x4617 JUMP JUMPDEST DUP3 MSTORE POP POP JUMP JUMPDEST PUSH0 PUSH1 0x20 DUP3 ADD SWAP1 POP PUSH2 0x4644 PUSH0 DUP4 ADD DUP5 PUSH2 0x4622 JUMP JUMPDEST SWAP3 SWAP2 POP POP JUMP JUMPDEST PUSH0 DUP2 SWAP1 POP SWAP2 SWAP1 POP JUMP JUMPDEST PUSH2 0x465C DUP2 PUSH2 0x464A JUMP JUMPDEST DUP3 MSTORE POP POP JUMP JUMPDEST PUSH0 PUSH1 0x20 DUP3 ADD SWAP1 POP PUSH2 0x4675 PUSH0 DUP4 ADD DUP5 PUSH2 0x4653 JUMP JUMPDEST SWAP3 SWAP2 POP POP JUMP JUMPDEST PUSH2 0x4684 DUP2 PUSH2 0x464A JUMP JUMPDEST DUP2 EQ PUSH2 0x468E JUMPI PUSH0 DUP1 REVERT JUMPDEST POP JUMP JUMPDEST PUSH0 DUP2 CALLDATALOAD SWAP1 POP PUSH2 0x469F DUP2 PUSH2 0x467B JUMP JUMPDEST SWAP3 SWAP2 POP POP JUMP JUMPDEST PUSH0 PUSH1 0x20 DUP3 DUP5 SUB SLT ISZERO PUSH2 0x46BA JUMPI PUSH2 0x46B9 PUSH2 0x458F JUMP JUMPDEST JUMPDEST PUSH0 PUSH2 0x46C7 DUP5 DUP3 DUP6 ADD PUSH2 0x4691 JUMP JUMPDEST SWAP2 POP POP SWAP3 SWAP2 POP POP JUMP JUMPDEST PUSH0 DUP2 MLOAD SWAP1 POP SWAP2 SWAP1 POP JUMP JUMPDEST PUSH0 DUP3 DUP3 MSTORE PUSH1 0x20 DUP3 ADD SWAP1 POP SWAP3 SWAP2 POP POP JUMP JUMPDEST PUSH0 JUMPDEST DUP4 DUP2 LT ISZERO PUSH2 0x4707 JUMPI DUP1 DUP3 ADD MLOAD DUP2 DUP5 ADD MSTORE PUSH1 0x20 DUP2 ADD SWAP1 POP PUSH2 0x46EC JUMP JUMPDEST PUSH0 DUP5 DUP5 ADD MSTORE POP POP POP POP JUMP JUMPDEST PUSH0 PUSH1 0x1F NOT PUSH1 0x1F DUP4 ADD AND SWAP1 POP SWAP2 SWAP1 POP JUMP JUMPDEST PUSH0 PUSH2 0x472C DUP3 PUSH2 0x46D0 JUMP JUMPDEST PUSH2 0x4736 DUP2 DUP6 PUSH2 0x46DA JUMP JUMPDEST SWAP4 POP PUSH2 0x4746 DUP2 DUP6 PUSH1 0x20 DUP7 ADD PUSH2 0x46EA JUMP JUMPDEST PUSH2 0x474F DUP2 PUSH2 0x4712 JUMP JUMPDEST DUP5 ADD SWAP2 POP POP SWAP3 SWAP2 POP POP JUMP JUMPDEST PUSH0 PUSH1 0x20 DUP3 ADD SWAP1 POP DUP2 DUP2 SUB PUSH0 DUP4 ADD MSTORE PUSH2 0x4772 DUP2 DUP5 PUSH2 0x4722 JUMP JUMPDEST SWAP1 POP SWAP3 SWAP2 POP POP JUMP JUMPDEST PUSH0 PUSH20 0xFFFFFFFFFFFFFFFFFFFFFFFFFFFFFFFFFFFFFFFF DUP3 AND SWAP1 POP SWAP2 SWAP1 POP JUMP JUMPDEST PUSH0 PUSH2 0x47A3 DUP3 PUSH2 0x477A JUMP JUMPDEST SWAP1 POP SWAP2 SWAP1 POP JUMP JUMPDEST PUSH2 0x47B3 DUP2 PUSH2 0x4799 JUMP JUMPDEST DUP3 MSTORE POP POP JUMP JUMPDEST PUSH0 PUSH1 0x20 DUP3 ADD SWAP1 POP PUSH2 0x47CC PUSH0 DUP4 ADD DUP5 PUSH2 0x47AA JUMP JUMPDEST SWAP3 SWAP2 POP POP JUMP JUMPDEST PUSH2 0x47DB DUP2 PUSH2 0x4799 JUMP JUMPDEST DUP2 EQ PUSH2 0x47E5 JUMPI PUSH0 DUP1 REVERT JUMPDEST POP JUMP JUMPDEST PUSH0 DUP2 CALLDATALOAD SWAP1 POP PUSH2 0x47F6 DUP2 PUSH2 0x47D2 JUMP JUMPDEST SWAP3 SWAP2 POP POP JUMP JUMPDEST PUSH0 DUP1 REVERT JUMPDEST PUSH0 DUP1 REVERT JUMPDEST PUSH32 0x4E487B7100000000000000000000000000000000000000000000000000000000 PUSH0 MSTORE PUSH1 0x41 PUSH1 0x4 MSTORE PUSH1 0x24 PUSH0 REVERT JUMPDEST PUSH2 0x483A DUP3 PUSH2 0x4712 JUMP JUMPDEST DUP2 ADD DUP2 DUP2 LT PUSH8 0xFFFFFFFFFFFFFFFF DUP3 GT OR ISZERO PUSH2 0x4859 JUMPI PUSH2 0x4858 PUSH2 0x4804 JUMP JUMPDEST JUMPDEST DUP1 PUSH1 0x40 MSTORE POP POP POP JUMP JUMPDEST PUSH0 PUSH2 0x486B PUSH2 0x4586 JUMP JUMPDEST SWAP1 POP PUSH2 0x4877 DUP3 DUP3 PUSH2 0x4831 JUMP JUMPDEST SWAP2 SWAP1 POP JUMP JUMPDEST PUSH0 PUSH8 0xFFFFFFFFFFFFFFFF DUP3 GT ISZERO PUSH2 0x4896 JUMPI PUSH2 0x4895 PUSH2 0x4804 JUMP JUMPDEST JUMPDEST PUSH2 0x489F DUP3 PUSH2 0x4712 JUMP JUMPDEST SWAP1 POP PUSH1 0x20 DUP2 ADD SWAP1 POP SWAP2 SWAP1 POP JUMP JUMPDEST DUP3 DUP2 DUP4 CALLDATACOPY PUSH0 DUP4 DUP4 ADD MSTORE POP POP POP JUMP JUMPDEST PUSH0 PUSH2 0x48CC PUSH2 0x48C7 DUP5 PUSH2 0x487C JUMP JUMPDEST PUSH2 0x4862 JUMP JUMPDEST SWAP1 POP DUP3 DUP2 MSTORE PUSH1 0x20 DUP2 ADD DUP5 DUP5 DUP5 ADD GT ISZERO PUSH2 0x48E8 JUMPI PUSH2 0x48E7 PUSH2 0x4800 JUMP JUMPDEST JUMPDEST PUSH2 0x48F3 DUP5 DUP3 DUP6 PUSH2 0x48AC JUMP JUMPDEST POP SWAP4 SWAP3 POP POP POP JUMP JUMPDEST PUSH0 DUP3 PUSH1 0x1F DUP4 ADD SLT PUSH2 0x490F JUMPI PUSH2 0x490E PUSH2 0x47FC JUMP JUMPDEST JUMPDEST DUP2 CALLDATALOAD PUSH2 0x491F DUP5 DUP3 PUSH1 0x20 DUP7 ADD PUSH2 0x48BA JUMP JUMPDEST SWAP2 POP POP SWAP3 SWAP2 POP POP JUMP JUMPDEST PUSH0 DUP1 PUSH0 DUP1 PUSH1 0x80 DUP6 DUP8 SUB SLT ISZERO PUSH2 0x4940 JUMPI PUSH2 0x493F PUSH2 0x458F JUMP JUMPDEST JUMPDEST PUSH0 PUSH2 0x494D DUP8 DUP3 DUP9 ADD PUSH2 0x47E8 JUMP JUMPDEST SWAP5 POP POP PUSH1 0x20 PUSH2 0x495E DUP8 DUP3 DUP9 ADD PUSH2 0x47E8 JUMP JUMPDEST SWAP4 POP POP PUSH1 0x40 PUSH2 0x496F DUP8 DUP3 DUP9 ADD PUSH2 0x4691 JUMP JUMPDEST SWAP3 POP POP PUSH1 0x60 DUP6 ADD CALLDATALOAD PUSH8 0xFFFFFFFFFFFFFFFF DUP2 GT ISZERO PUSH2 0x4990 JUMPI PUSH2 0x498F PUSH2 0x4593 JUMP JUMPDEST JUMPDEST PUSH2 0x499C DUP8 DUP3 DUP9 ADD PUSH2 0x48FB JUMP JUMPDEST SWAP2 POP POP SWAP3 SWAP6 SWAP2 SWAP5 POP SWAP3 POP JUMP JUMPDEST PUSH2 0x49B1 DUP2 PUSH2 0x4597 JUMP JUMPDEST DUP3 MSTORE POP POP JUMP JUMPDEST PUSH0 PUSH1 0x20 DUP3 ADD SWAP1 POP PUSH2 0x49CA PUSH0 DUP4 ADD DUP5 PUSH2 0x49A8 JUMP JUMPDEST SWAP3 SWAP2 POP POP JUMP JUMPDEST PUSH0 PUSH8 0xFFFFFFFFFFFFFFFF DUP3 GT ISZERO PUSH2 0x49EA JUMPI PUSH2 0x49E9 PUSH2 0x4804 JUMP JUMPDEST JUMPDEST PUSH1 0x20 DUP3 MUL SWAP1 POP PUSH1 0x20 DUP2 ADD SWAP1 POP SWAP2 SWAP1 POP JUMP JUMPDEST PUSH0 DUP1 REVERT JUMPDEST PUSH0 PUSH2 0x4A11 PUSH2 0x4A0C DUP5 PUSH2 0x49D0 JUMP JUMPDEST PUSH2 0x4862 JUMP JUMPDEST SWAP1 POP DUP1 DUP4 DUP3 MSTORE PUSH1 0x20 DUP3 ADD SWAP1 POP PUSH1 0x20 DUP5 MUL DUP4 ADD DUP6 DUP2 GT ISZERO PUSH2 0x4A34 JUMPI PUSH2 0x4A33 PUSH2 0x49FB JUMP JUMPDEST JUMPDEST DUP4 JUMPDEST DUP2 DUP2 LT ISZERO PUSH2 0x4A5D JUMPI DUP1 PUSH2 0x4A49 DUP9 DUP3 PUSH2 0x47E8 JUMP JUMPDEST DUP5 MSTORE PUSH1 0x20 DUP5 ADD SWAP4 POP POP PUSH1 0x20 DUP2 ADD SWAP1 POP PUSH2 0x4A36 JUMP JUMPDEST POP POP POP SWAP4 SWAP3 POP POP POP JUMP JUMPDEST PUSH0 DUP3 PUSH1 0x1F DUP4 ADD SLT PUSH2 0x4A7B JUMPI PUSH2 0x4A7A PUSH2 0x47FC JUMP JUMPDEST JUMPDEST DUP2 CALLDATALOAD PUSH2 0x4A8B DUP5 DUP3 PUSH1 0x20 DUP7 ADD PUSH2 0x49FF JUMP JUMPDEST SWAP2 POP POP SWAP3 SWAP2 POP POP JUMP JUMPDEST PUSH0 PUSH8 0xFFFFFFFFFFFFFFFF DUP3 GT ISZERO PUSH2 0x4AAE JUMPI PUSH2 0x4AAD PUSH2 0x4804 JUMP JUMPDEST JUMPDEST PUSH1 0x20 DUP3 MUL SWAP1 POP PUSH1 0x20 DUP2 ADD SWAP1 POP SWAP2 SWAP1 POP JUMP JUMPDEST PUSH0 PUSH2 0x4AD1 PUSH2 0x4ACC DUP5 PUSH2 0x4A94 JUMP JUMPDEST PUSH2 0x4862 JUMP JUMPDEST SWAP1 POP DUP1 DUP4 DUP3 MSTORE PUSH1 0x20 DUP3 ADD SWAP1 POP PUSH1 0x20 DUP5 MUL DUP4 ADD DUP6 DUP2 GT ISZERO PUSH2 0x4AF4 JUMPI PUSH2 0x4AF3 PUSH2 0x49FB JUMP JUMPDEST JUMPDEST DUP4 JUMPDEST DUP2 DUP2 LT ISZERO PUSH2 0x4B1D JUMPI DUP1 PUSH2 0x4B09 DUP9 DUP3 PUSH2 0x4691 JUMP JUMPDEST DUP5 MSTORE PUSH1 0x20 DUP5 ADD SWAP4 POP POP PUSH1 0x20 DUP2 ADD SWAP1 POP PUSH2 0x4AF6 JUMP JUMPDEST POP POP POP SWAP4 SWAP3 POP POP POP JUMP JUMPDEST PUSH0 DUP3 PUSH1 0x1F DUP4 ADD SLT PUSH2 0x4B3B JUMPI PUSH2 0x4B3A PUSH2 0x47FC JUMP JUMPDEST JUMPDEST DUP2 CALLDATALOAD PUSH2 0x4B4B DUP5 DUP3 PUSH1 0x20 DUP7 ADD PUSH2 0x4ABF JUMP JUMPDEST SWAP2 POP POP SWAP3 SWAP2 POP POP JUMP JUMPDEST PUSH0 PUSH8 0xFFFFFFFFFFFFFFFF DUP3 GT ISZERO PUSH2 0x4B6E JUMPI PUSH2 0x4B6D PUSH2 0x4804 JUMP JUMPDEST JUMPDEST PUSH1 0x20 DUP3 MUL SWAP1 POP PUSH1 0x20 DUP2 ADD SWAP1 POP SWAP2 SWAP1 POP JUMP JUMPDEST PUSH0 PUSH2 0x4B91 PUSH2 0x4B8C DUP5 PUSH2 0x4B54 JUMP JUMPDEST PUSH2 0x4862 JUMP JUMPDEST SWAP1 POP DUP1 DUP4 DUP3 MSTORE PUSH1 0x20 DUP3 ADD SWAP1 POP PUSH1 0x20 DUP5 MUL DUP4 ADD DUP6 DUP2 GT ISZERO PUSH2 0x4BB4 JUMPI PUSH2 0x4BB3 PUSH2 0x49FB JUMP JUMPDEST JUMPDEST DUP4 JUMPDEST DUP2 DUP2 LT ISZERO PUSH2 0x4BFB JUMPI DUP1 CALLDATALOAD PUSH8 0xFFFFFFFFFFFFFFFF DUP2 GT ISZERO PUSH2 0x4BD9 JUMPI PUSH2 0x4BD8 PUSH2 0x47FC JUMP JUMPDEST JUMPDEST DUP1 DUP7 ADD PUSH2 0x4BE6 DUP10 DUP3 PUSH2 0x48FB JUMP JUMPDEST DUP6 MSTORE PUSH1 0x20 DUP6 ADD SWAP5 POP POP POP PUSH1 0x20 DUP2 ADD SWAP1 POP PUSH2 0x4BB6 JUMP JUMPDEST POP POP POP SWAP4 SWAP3 POP POP POP JUMP JUMPDEST PUSH0 DUP3 PUSH1 0x1F DUP4 ADD SLT PUSH2 0x4C19 JUMPI PUSH2 0x4C18 PUSH2 0x47FC JUMP JUMPDEST JUMPDEST DUP2 CALLDATALOAD PUSH2 0x4C29 DUP5 DUP3 PUSH1 0x20 DUP7 ADD PUSH2 0x4B7F JUMP JUMPDEST SWAP2 POP POP SWAP3 SWAP2 POP POP JUMP JUMPDEST PUSH0 DUP2 SWAP1 POP SWAP2 SWAP1 POP JUMP JUMPDEST PUSH2 0x4C44 DUP2 PUSH2 0x4C32 JUMP JUMPDEST DUP2 EQ PUSH2 0x4C4E JUMPI PUSH0 DUP1 REVERT JUMPDEST POP JUMP JUMPDEST PUSH0 DUP2 CALLDATALOAD SWAP1 POP PUSH2 0x4C5F DUP2 PUSH2 0x4C3B JUMP JUMPDEST SWAP3 SWAP2 POP POP JUMP JUMPDEST PUSH0 DUP1 PUSH0 DUP1 PUSH1 0x80 DUP6 DUP8 SUB SLT ISZERO PUSH2 0x4C7D JUMPI PUSH2 0x4C7C PUSH2 0x458F JUMP JUMPDEST JUMPDEST PUSH0 DUP6 ADD CALLDATALOAD PUSH8 0xFFFFFFFFFFFFFFFF DUP2 GT ISZERO PUSH2 0x4C9A JUMPI PUSH2 0x4C99 PUSH2 0x4593 JUMP JUMPDEST JUMPDEST PUSH2 0x4CA6 DUP8 DUP3 DUP9 ADD PUSH2 0x4A67 JUMP JUMPDEST SWAP5 POP POP PUSH1 0x20 DUP6 ADD CALLDATALOAD PUSH8 0xFFFFFFFFFFFFFFFF DUP2 GT ISZERO PUSH2 0x4CC7 JUMPI PUSH2 0x4CC6 PUSH2 0x4593 JUMP JUMPDEST JUMPDEST PUSH2 0x4CD3 DUP8 DUP3 DUP9 ADD PUSH2 0x4B27 JUMP JUMPDEST SWAP4 POP POP PUSH1 0x40 DUP6 ADD CALLDATALOAD PUSH8 0xFFFFFFFFFFFFFFFF DUP2 GT ISZERO PUSH2 0x4CF4 JUMPI PUSH2 0x4CF3 PUSH2 0x4593 JUMP JUMPDEST JUMPDEST PUSH2 0x4D00 DUP8 DUP3 DUP9 ADD PUSH2 0x4C05 JUMP JUMPDEST SWAP3 POP POP PUSH1 0x60 PUSH2 0x4D11 DUP8 DUP3 DUP9 ADD PUSH2 0x4C51 JUMP JUMPDEST SWAP2 POP POP SWAP3 SWAP6 SWAP2 SWAP5 POP SWAP3 POP JUMP JUMPDEST PUSH2 0x4D26 DUP2 PUSH2 0x4C32 JUMP JUMPDEST DUP3 MSTORE POP POP JUMP JUMPDEST PUSH0 PUSH1 0x20 DUP3 ADD SWAP1 POP PUSH2 0x4D3F PUSH0 DUP4 ADD DUP5 PUSH2 0x4D1D JUMP JUMPDEST SWAP3 SWAP2 POP POP JUMP JUMPDEST PUSH32 0x4E487B7100000000000000000000000000000000000000000000000000000000 PUSH0 MSTORE PUSH1 0x21 PUSH1 0x4 MSTORE PUSH1 0x24 PUSH0 REVERT JUMPDEST PUSH1 0x8 DUP2 LT PUSH2 0x4D83 JUMPI PUSH2 0x4D82 PUSH2 0x4D45 JUMP JUMPDEST JUMPDEST POP JUMP JUMPDEST PUSH0 DUP2 SWAP1 POP PUSH2 0x4D93 DUP3 PUSH2 0x4D72 JUMP JUMPDEST SWAP2 SWAP1 POP JUMP JUMPDEST PUSH0 PUSH2 0x4DA2 DUP3 PUSH2 0x4D86 JUMP JUMPDEST SWAP1 POP SWAP2 SWAP1 POP JUMP JUMPDEST PUSH2 0x4DB2 DUP2 PUSH2 0x4D98 JUMP JUMPDEST DUP3 MSTORE POP POP JUMP JUMPDEST PUSH0 PUSH1 0x20 DUP3 ADD SWAP1 POP PUSH2 0x4DCB PUSH0 DUP4 ADD DUP5 PUSH2 0x4DA9 JUMP JUMPDEST SWAP3 SWAP2 POP POP JUMP JUMPDEST PUSH0 DUP1 PUSH1 0x40 DUP4 DUP6 SUB SLT ISZERO PUSH2 0x4DE7 JUMPI PUSH2 0x4DE6 PUSH2 0x458F JUMP JUMPDEST JUMPDEST PUSH0 PUSH2 0x4DF4 DUP6 DUP3 DUP7 ADD PUSH2 0x4691 JUMP JUMPDEST SWAP3 POP POP PUSH1 0x20 PUSH2 0x4E05 DUP6 DUP3 DUP7 ADD PUSH2 0x47E8 JUMP JUMPDEST SWAP2 POP POP SWAP3 POP SWAP3 SWAP1 POP JUMP JUMPDEST PUSH0 PUSH1 0x60 DUP3 ADD SWAP1 POP PUSH2 0x4E22 PUSH0 DUP4 ADD DUP7 PUSH2 0x4653 JUMP JUMPDEST PUSH2 0x4E2F PUSH1 0x20 DUP4 ADD DUP6 PUSH2 0x4653 JUMP JUMPDEST PUSH2 0x4E3C PUSH1 0x40 DUP4 ADD DUP5 PUSH2 0x4653 JUMP JUMPDEST SWAP5 SWAP4 POP POP POP POP JUMP JUMPDEST PUSH0 PUSH1 0xFF DUP3 AND SWAP1 POP SWAP2 SWAP1 POP JUMP JUMPDEST PUSH2 0x4E59 DUP2 PUSH2 0x4E44 JUMP JUMPDEST DUP2 EQ PUSH2 0x4E63 JUMPI PUSH0 DUP1 REVERT JUMPDEST POP JUMP JUMPDEST PUSH0 DUP2 CALLDATALOAD SWAP1 POP PUSH2 0x4E74 DUP2 PUSH2 0x4E50 JUMP JUMPDEST SWAP3 SWAP2 POP POP JUMP JUMPDEST PUSH0 DUP1 PUSH1 0x40 DUP4 DUP6 SUB SLT ISZERO PUSH2 0x4E90 JUMPI PUSH2 0x4E8F PUSH2 0x458F JUMP JUMPDEST JUMPDEST PUSH0 PUSH2 0x4E9D DUP6 DUP3 DUP7 ADD PUSH2 0x4691 JUMP JUMPDEST SWAP3 POP POP PUSH1 0x20 PUSH2 0x4EAE DUP6 DUP3 DUP7 ADD PUSH2 0x4E66 JUMP JUMPDEST SWAP2 POP POP SWAP3 POP SWAP3 SWAP1 POP JUMP JUMPDEST PUSH0 DUP1 REVERT JUMPDEST PUSH0 DUP1 DUP4 PUSH1 0x1F DUP5 ADD SLT PUSH2 0x4ED1 JUMPI PUSH2 0x4ED0 PUSH2 0x47FC JUMP JUMPDEST JUMPDEST DUP3 CALLDATALOAD SWAP1 POP PUSH8 0xFFFFFFFFFFFFFFFF DUP2 GT ISZERO PUSH2 0x4EEE JUMPI PUSH2 0x4EED PUSH2 0x4EB8 JUMP JUMPDEST JUMPDEST PUSH1 0x20 DUP4 ADD SWAP2 POP DUP4 PUSH1 0x1 DUP3 MUL DUP4 ADD GT ISZERO PUSH2 0x4F0A JUMPI PUSH2 0x4F09 PUSH2 0x49FB JUMP JUMPDEST JUMPDEST SWAP3 POP SWAP3 SWAP1 POP JUMP JUMPDEST PUSH0 DUP1 PUSH0 DUP1 PUSH0 DUP1 PUSH0 PUSH1 0xC0 DUP9 DUP11 SUB SLT ISZERO PUSH2 0x4F2C JUMPI PUSH2 0x4F2B PUSH2 0x458F JUMP JUMPDEST JUMPDEST PUSH0 PUSH2 0x4F39 DUP11 DUP3 DUP12 ADD PUSH2 0x4691 JUMP JUMPDEST SWAP8 POP POP PUSH1 0x20 PUSH2 0x4F4A DUP11 DUP3 DUP12 ADD PUSH2 0x4E66 JUMP JUMPDEST SWAP7 POP POP PUSH1 0x40 PUSH2 0x4F5B DUP11 DUP3 DUP12 ADD PUSH2 0x47E8 JUMP JUMPDEST SWAP6 POP POP PUSH1 0x60 DUP9 ADD CALLDATALOAD PUSH8 0xFFFFFFFFFFFFFFFF DUP2 GT ISZERO PUSH2 0x4F7C JUMPI PUSH2 0x4F7B PUSH2 0x4593 JUMP JUMPDEST JUMPDEST PUSH2 0x4F88 DUP11 DUP3 DUP12 ADD PUSH2 0x4EBC JUMP JUMPDEST SWAP5 POP SWAP5 POP POP PUSH1 0x80 DUP9 ADD CALLDATALOAD PUSH8 0xFFFFFFFFFFFFFFFF DUP2 GT ISZERO PUSH2 0x4FAB JUMPI PUSH2 0x4FAA PUSH2 0x4593 JUMP JUMPDEST JUMPDEST PUSH2 0x4FB7 DUP11 DUP3 DUP12 ADD PUSH2 0x48FB JUMP JUMPDEST SWAP3 POP POP PUSH1 0xA0 DUP9 ADD CALLDATALOAD PUSH8 0xFFFFFFFFFFFFFFFF DUP2 GT ISZERO PUSH2 0x4FD8 JUMPI PUSH2 0x4FD7 PUSH2 0x4593 JUMP JUMPDEST JUMPDEST PUSH2 0x4FE4 DUP11 DUP3 DUP12 ADD PUSH2 0x48FB JUMP JUMPDEST SWAP2 POP POP SWAP3 SWAP6 SWAP9 SWAP2 SWAP5 SWAP8 POP SWAP3 SWAP6 POP JUMP JUMPDEST PUSH0 DUP1 PUSH0 DUP1 PUSH0 PUSH1 0x80 DUP7 DUP9 SUB SLT ISZERO PUSH2 0x500C JUMPI PUSH2 0x500B PUSH2 0x458F JUMP JUMPDEST JUMPDEST PUSH0 PUSH2 0x5019 DUP9 DUP3 DUP10 ADD PUSH2 0x4691 JUMP JUMPDEST SWAP6 POP POP PUSH1 0x20 PUSH2 0x502A DUP9 DUP3 DUP10 ADD PUSH2 0x4E66 JUMP JUMPDEST SWAP5 POP POP PUSH1 0x40 DUP7 ADD CALLDATALOAD PUSH8 0xFFFFFFFFFFFFFFFF DUP2 GT ISZERO PUSH2 0x504B JUMPI PUSH2 0x504A PUSH2 0x4593 JUMP JUMPDEST JUMPDEST PUSH2 0x5057 DUP9 DUP3 DUP10 ADD PUSH2 0x4EBC JUMP JUMPDEST SWAP4 POP SWAP4 POP POP PUSH1 0x60 DUP7 ADD CALLDATALOAD PUSH8 0xFFFFFFFFFFFFFFFF DUP2 GT ISZERO PUSH2 0x507A JUMPI PUSH2 0x5079 PUSH2 0x4593 JUMP JUMPDEST JUMPDEST PUSH2 0x5086 DUP9 DUP3 DUP10 ADD PUSH2 0x48FB JUMP JUMPDEST SWAP2 POP POP SWAP3 SWAP6 POP SWAP3 SWAP6 SWAP1 SWAP4 POP JUMP JUMPDEST PUSH0 PUSH6 0xFFFFFFFFFFFF DUP3 AND SWAP1 POP SWAP2 SWAP1 POP JUMP JUMPDEST PUSH2 0x50AD DUP2 PUSH2 0x5093 JUMP JUMPDEST DUP2 EQ PUSH2 0x50B7 JUMPI PUSH0 DUP1 REVERT JUMPDEST POP JUMP JUMPDEST PUSH0 DUP2 CALLDATALOAD SWAP1 POP PUSH2 0x50C8 DUP2 PUSH2 0x50A4 JUMP JUMPDEST SWAP3 SWAP2 POP POP JUMP JUMPDEST PUSH0 PUSH1 0x20 DUP3 DUP5 SUB SLT ISZERO PUSH2 0x50E3 JUMPI PUSH2 0x50E2 PUSH2 0x458F JUMP JUMPDEST JUMPDEST PUSH0 PUSH2 0x50F0 DUP5 DUP3 DUP6 ADD PUSH2 0x50BA JUMP JUMPDEST SWAP2 POP POP SWAP3 SWAP2 POP POP JUMP JUMPDEST PUSH0 DUP1 PUSH0 DUP1 PUSH1 0x60 DUP6 DUP8 SUB SLT ISZERO PUSH2 0x5111 JUMPI PUSH2 0x5110 PUSH2 0x458F JUMP JUMPDEST JUMPDEST PUSH0 PUSH2 0x511E DUP8 DUP3 DUP9 ADD PUSH2 0x4691 JUMP JUMPDEST SWAP5 POP POP PUSH1 0x20 PUSH2 0x512F DUP8 DUP3 DUP9 ADD PUSH2 0x4E66 JUMP JUMPDEST SWAP4 POP POP PUSH1 0x40 DUP6 ADD CALLDATALOAD PUSH8 0xFFFFFFFFFFFFFFFF DUP2 GT ISZERO PUSH2 0x5150 JUMPI PUSH2 0x514F PUSH2 0x4593 JUMP JUMPDEST JUMPDEST PUSH2 0x515C DUP8 DUP3 DUP9 ADD PUSH2 0x4EBC JUMP JUMPDEST SWAP3 POP SWAP3 POP POP SWAP3 SWAP6 SWAP2 SWAP5 POP SWAP3 POP JUMP JUMPDEST PUSH0 PUSH8 0xFFFFFFFFFFFFFFFF DUP3 GT ISZERO PUSH2 0x5184 JUMPI PUSH2 0x5183 PUSH2 0x4804 JUMP JUMPDEST JUMPDEST PUSH2 0x518D DUP3 PUSH2 0x4712 JUMP JUMPDEST SWAP1 POP PUSH1 0x20 DUP2 ADD SWAP1 POP SWAP2 SWAP1 POP JUMP JUMPDEST PUSH0 PUSH2 0x51AC PUSH2 0x51A7 DUP5 PUSH2 0x516A JUMP JUMPDEST PUSH2 0x4862 JUMP JUMPDEST SWAP1 POP DUP3 DUP2 MSTORE PUSH1 0x20 DUP2 ADD DUP5 DUP5 DUP5 ADD GT ISZERO PUSH2 0x51C8 JUMPI PUSH2 0x51C7 PUSH2 0x4800 JUMP JUMPDEST JUMPDEST PUSH2 0x51D3 DUP5 DUP3 DUP6 PUSH2 0x48AC JUMP JUMPDEST POP SWAP4 SWAP3 POP POP POP JUMP JUMPDEST PUSH0 DUP3 PUSH1 0x1F DUP4 ADD SLT PUSH2 0x51EF JUMPI PUSH2 0x51EE PUSH2 0x47FC JUMP JUMPDEST JUMPDEST DUP2 CALLDATALOAD PUSH2 0x51FF DUP5 DUP3 PUSH1 0x20 DUP7 ADD PUSH2 0x519A JUMP JUMPDEST SWAP2 POP POP SWAP3 SWAP2 POP POP JUMP JUMPDEST PUSH0 DUP1 PUSH0 DUP1 PUSH1 0x80 DUP6 DUP8 SUB SLT ISZERO PUSH2 0x5220 JUMPI PUSH2 0x521F PUSH2 0x458F JUMP JUMPDEST JUMPDEST PUSH0 DUP6 ADD CALLDATALOAD PUSH8 0xFFFFFFFFFFFFFFFF DUP2 GT ISZERO PUSH2 0x523D JUMPI PUSH2 0x523C PUSH2 0x4593 JUMP JUMPDEST JUMPDEST PUSH2 0x5249 DUP8 DUP3 DUP9 ADD PUSH2 0x4A67 JUMP JUMPDEST SWAP5 POP POP PUSH1 0x20 DUP6 ADD CALLDATALOAD PUSH8 0xFFFFFFFFFFFFFFFF DUP2 GT ISZERO PUSH2 0x526A JUMPI PUSH2 0x5269 PUSH2 0x4593 JUMP JUMPDEST JUMPDEST PUSH2 0x5276 DUP8 DUP3 DUP9 ADD PUSH2 0x4B27 JUMP JUMPDEST SWAP4 POP POP PUSH1 0x40 DUP6 ADD CALLDATALOAD PUSH8 0xFFFFFFFFFFFFFFFF DUP2 GT ISZERO PUSH2 0x5297 JUMPI PUSH2 0x5296 PUSH2 0x4593 JUMP JUMPDEST JUMPDEST PUSH2 0x52A3 DUP8 DUP3 DUP9 ADD PUSH2 0x4C05 JUMP JUMPDEST SWAP3 POP POP PUSH1 0x60 DUP6 ADD CALLDATALOAD PUSH8 0xFFFFFFFFFFFFFFFF DUP2 GT ISZERO PUSH2 0x52C4 JUMPI PUSH2 0x52C3 PUSH2 0x4593 JUMP JUMPDEST JUMPDEST PUSH2 0x52D0 DUP8 DUP3 DUP9 ADD PUSH2 0x51DB JUMP JUMPDEST SWAP2 POP POP SWAP3 SWAP6 SWAP2 SWAP5 POP SWAP3 POP JUMP JUMPDEST PUSH0 PUSH1 0x20 DUP3 DUP5 SUB SLT ISZERO PUSH2 0x52F1 JUMPI PUSH2 0x52F0 PUSH2 0x458F JUMP JUMPDEST JUMPDEST PUSH0 PUSH2 0x52FE DUP5 DUP3 DUP6 ADD PUSH2 0x47E8 JUMP JUMPDEST SWAP2 POP POP SWAP3 SWAP2 POP POP JUMP JUMPDEST PUSH0 PUSH32 0xFF00000000000000000000000000000000000000000000000000000000000000 DUP3 AND SWAP1 POP SWAP2 SWAP1 POP JUMP JUMPDEST PUSH2 0x533B DUP2 PUSH2 0x5307 JUMP JUMPDEST DUP3 MSTORE POP POP JUMP JUMPDEST PUSH0 DUP2 MLOAD SWAP1 POP SWAP2 SWAP1 POP JUMP JUMPDEST PUSH0 DUP3 DUP3 MSTORE PUSH1 0x20 DUP3 ADD SWAP1 POP SWAP3 SWAP2 POP POP JUMP JUMPDEST PUSH0 DUP2 SWAP1 POP PUSH1 0x20 DUP3 ADD SWAP1 POP SWAP2 SWAP1 POP JUMP JUMPDEST PUSH2 0x5373 DUP2 PUSH2 0x464A JUMP JUMPDEST DUP3 MSTORE POP POP JUMP JUMPDEST PUSH0 PUSH2 0x5384 DUP4 DUP4 PUSH2 0x536A JUMP JUMPDEST PUSH1 0x20 DUP4 ADD SWAP1 POP SWAP3 SWAP2 POP POP JUMP JUMPDEST PUSH0 PUSH1 0x20 DUP3 ADD SWAP1 POP SWAP2 SWAP1 POP JUMP JUMPDEST PUSH0 PUSH2 0x53A6 DUP3 PUSH2 0x5341 JUMP JUMPDEST PUSH2 0x53B0 DUP2 DUP6 PUSH2 0x534B JUMP JUMPDEST SWAP4 POP PUSH2 0x53BB DUP4 PUSH2 0x535B JUMP JUMPDEST DUP1 PUSH0 JUMPDEST DUP4 DUP2 LT ISZERO PUSH2 0x53EB JUMPI DUP2 MLOAD PUSH2 0x53D2 DUP9 DUP3 PUSH2 0x5379 JUMP JUMPDEST SWAP8 POP PUSH2 0x53DD DUP4 PUSH2 0x5390 JUMP JUMPDEST SWAP3 POP POP PUSH1 0x1 DUP2 ADD SWAP1 POP PUSH2 0x53BE JUMP JUMPDEST POP DUP6 SWAP4 POP POP POP POP SWAP3 SWAP2 POP POP JUMP JUMPDEST PUSH0 PUSH1 0xE0 DUP3 ADD SWAP1 POP PUSH2 0x540B PUSH0 DUP4 ADD DUP11 PUSH2 0x5332 JUMP JUMPDEST DUP2 DUP2 SUB PUSH1 0x20 DUP4 ADD MSTORE PUSH2 0x541D DUP2 DUP10 PUSH2 0x4722 JUMP JUMPDEST SWAP1 POP DUP2 DUP2 SUB PUSH1 0x40 DUP4 ADD MSTORE PUSH2 0x5431 DUP2 DUP9 PUSH2 0x4722 JUMP JUMPDEST SWAP1 POP PUSH2 0x5440 PUSH1 0x60 DUP4 ADD DUP8 PUSH2 0x4653 JUMP JUMPDEST PUSH2 0x544D PUSH1 0x80 DUP4 ADD DUP7 PUSH2 0x47AA JUMP JUMPDEST PUSH2 0x545A PUSH1 0xA0 DUP4 ADD DUP6 PUSH2 0x4D1D JUMP JUMPDEST DUP2 DUP2 SUB PUSH1 0xC0 DUP4 ADD MSTORE PUSH2 0x546C DUP2 DUP5 PUSH2 0x539C JUMP JUMPDEST SWAP1 POP SWAP9 SWAP8 POP POP POP POP POP POP POP POP JUMP JUMPDEST PUSH0 DUP1 PUSH0 DUP1 PUSH1 0x80 DUP6 DUP8 SUB SLT ISZERO PUSH2 0x5492 JUMPI PUSH2 0x5491 PUSH2 0x458F JUMP JUMPDEST JUMPDEST PUSH0 PUSH2 0x549F DUP8 DUP3 DUP9 ADD PUSH2 0x4691 JUMP JUMPDEST SWAP5 POP POP PUSH1 0x20 PUSH2 0x54B0 DUP8 DUP3 DUP9 ADD PUSH2 0x4E66 JUMP JUMPDEST SWAP4 POP POP PUSH1 0x40 PUSH2 0x54C1 DUP8 DUP3 DUP9 ADD PUSH2 0x47E8 JUMP JUMPDEST SWAP3 POP POP PUSH1 0x60 DUP6 ADD CALLDATALOAD PUSH8 0xFFFFFFFFFFFFFFFF DUP2 GT ISZERO PUSH2 0x54E2 JUMPI PUSH2 0x54E1 PUSH2 0x4593 JUMP JUMPDEST JUMPDEST PUSH2 0x54EE DUP8 DUP3 DUP9 ADD PUSH2 0x48FB JUMP JUMPDEST SWAP2 POP POP SWAP3 SWAP6 SWAP2 SWAP5 POP SWAP3 POP JUMP JUMPDEST PUSH2 0x5503 DUP2 PUSH2 0x5093 JUMP JUMPDEST DUP3 MSTORE POP POP JUMP JUMPDEST PUSH0 PUSH1 0x20 DUP3 ADD SWAP1 POP PUSH2 0x551C PUSH0 DUP4 ADD DUP5 PUSH2 0x54FA JUMP JUMPDEST SWAP3 SWAP2 POP POP JUMP JUMPDEST PUSH0 DUP1 PUSH0 PUSH1 0x60 DUP5 DUP7 SUB SLT ISZERO PUSH2 0x5539 JUMPI PUSH2 0x5538 PUSH2 0x458F JUMP JUMPDEST JUMPDEST PUSH0 PUSH2 0x5546 DUP7 DUP3 DUP8 ADD PUSH2 0x47E8 JUMP JUMPDEST SWAP4 POP POP PUSH1 0x20 PUSH2 0x5557 DUP7 DUP3 DUP8 ADD PUSH2 0x4691 JUMP JUMPDEST SWAP3 POP POP PUSH1 0x40 DUP5 ADD CALLDATALOAD PUSH8 0xFFFFFFFFFFFFFFFF DUP2 GT ISZERO PUSH2 0x5578 JUMPI PUSH2 0x5577 PUSH2 0x4593 JUMP JUMPDEST JUMPDEST PUSH2 0x5584 DUP7 DUP3 DUP8 ADD PUSH2 0x48FB JUMP JUMPDEST SWAP2 POP POP SWAP3 POP SWAP3 POP SWAP3 JUMP JUMPDEST PUSH0 DUP1 PUSH0 DUP1 PUSH0 PUSH1 0xA0 DUP7 DUP9 SUB SLT ISZERO PUSH2 0x55A7 JUMPI PUSH2 0x55A6 PUSH2 0x458F JUMP JUMPDEST JUMPDEST PUSH0 PUSH2 0x55B4 DUP9 DUP3 DUP10 ADD PUSH2 0x47E8 JUMP JUMPDEST SWAP6 POP POP PUSH1 0x20 PUSH2 0x55C5 DUP9 DUP3 DUP10 ADD PUSH2 0x47E8 JUMP JUMPDEST SWAP5 POP POP PUSH1 0x40 DUP7 ADD CALLDATALOAD PUSH8 0xFFFFFFFFFFFFFFFF DUP2 GT ISZERO PUSH2 0x55E6 JUMPI PUSH2 0x55E5 PUSH2 0x4593 JUMP JUMPDEST JUMPDEST PUSH2 0x55F2 DUP9 DUP3 DUP10 ADD PUSH2 0x4B27 JUMP JUMPDEST SWAP4 POP POP PUSH1 0x60 DUP7 ADD CALLDATALOAD PUSH8 0xFFFFFFFFFFFFFFFF DUP2 GT ISZERO PUSH2 0x5613 JUMPI PUSH2 0x5612 PUSH2 0x4593 JUMP JUMPDEST JUMPDEST PUSH2 0x561F DUP9 DUP3 DUP10 ADD PUSH2 0x4B27 JUMP JUMPDEST SWAP3 POP POP PUSH1 0x80 DUP7 ADD CALLDATALOAD PUSH8 0xFFFFFFFFFFFFFFFF DUP2 GT ISZERO PUSH2 0x5640 JUMPI PUSH2 0x563F PUSH2 0x4593 JUMP JUMPDEST JUMPDEST PUSH2 0x564C DUP9 DUP3 DUP10 ADD PUSH2 0x48FB JUMP JUMPDEST SWAP2 POP POP SWAP3 SWAP6 POP SWAP3 SWAP6 SWAP1 SWAP4 POP JUMP JUMPDEST PUSH0 DUP1 DUP4 PUSH1 0x1F DUP5 ADD SLT PUSH2 0x566E JUMPI PUSH2 0x566D PUSH2 0x47FC JUMP JUMPDEST JUMPDEST DUP3 CALLDATALOAD SWAP1 POP PUSH8 0xFFFFFFFFFFFFFFFF DUP2 GT ISZERO PUSH2 0x568B JUMPI PUSH2 0x568A PUSH2 0x4EB8 JUMP JUMPDEST JUMPDEST PUSH1 0x20 DUP4 ADD SWAP2 POP DUP4 PUSH1 0x1 DUP3 MUL DUP4 ADD GT ISZERO PUSH2 0x56A7 JUMPI PUSH2 0x56A6 PUSH2 0x49FB JUMP JUMPDEST JUMPDEST SWAP3 POP SWAP3 SWAP1 POP JUMP JUMPDEST PUSH0 DUP1 PUSH0 DUP1 PUSH1 0x60 DUP6 DUP8 SUB SLT ISZERO PUSH2 0x56C6 JUMPI PUSH2 0x56C5 PUSH2 0x458F JUMP JUMPDEST JUMPDEST PUSH0 PUSH2 0x56D3 DUP8 DUP3 DUP9 ADD PUSH2 0x47E8 JUMP JUMPDEST SWAP5 POP POP PUSH1 0x20 PUSH2 0x56E4 DUP8 DUP3 DUP9 ADD PUSH2 0x4691 JUMP JUMPDEST SWAP4 POP POP PUSH1 0x40 DUP6 ADD CALLDATALOAD PUSH8 0xFFFFFFFFFFFFFFFF DUP2 GT ISZERO PUSH2 0x5705 JUMPI PUSH2 0x5704 PUSH2 0x4593 JUMP JUMPDEST JUMPDEST PUSH2 0x5711 DUP8 DUP3 DUP9 ADD PUSH2 0x5659 JUMP JUMPDEST SWAP3 POP SWAP3 POP POP SWAP3 SWAP6 SWAP2 SWAP5 POP SWAP3 POP JUMP JUMPDEST PUSH0 PUSH4 0xFFFFFFFF DUP3 AND SWAP1 POP SWAP2 SWAP1 POP JUMP JUMPDEST PUSH2 0x5737 DUP2 PUSH2 0x571F JUMP JUMPDEST DUP2 EQ PUSH2 0x5741 JUMPI PUSH0 DUP1 REVERT JUMPDEST POP JUMP JUMPDEST PUSH0 DUP2 CALLDATALOAD SWAP1 POP PUSH2 0x5752 DUP2 PUSH2 0x572E JUMP JUMPDEST SWAP3 SWAP2 POP POP JUMP JUMPDEST PUSH0 PUSH1 0x20 DUP3 DUP5 SUB SLT ISZERO PUSH2 0x576D JUMPI PUSH2 0x576C PUSH2 0x458F JUMP JUMPDEST JUMPDEST PUSH0 PUSH2 0x577A DUP5 DUP3 DUP6 ADD PUSH2 0x5744 JUMP JUMPDEST SWAP2 POP POP SWAP3 SWAP2 POP POP JUMP JUMPDEST PUSH0 DUP1 PUSH1 0x40 DUP4 DUP6 SUB SLT ISZERO PUSH2 0x5799 JUMPI PUSH2 0x5798 PUSH2 0x458F JUMP JUMPDEST JUMPDEST PUSH0 PUSH2 0x57A6 DUP6 DUP3 DUP7 ADD PUSH2 0x47E8 JUMP JUMPDEST SWAP3 POP POP PUSH1 0x20 PUSH2 0x57B7 DUP6 DUP3 DUP7 ADD PUSH2 0x4691 JUMP JUMPDEST SWAP2 POP POP SWAP3 POP SWAP3 SWAP1 POP JUMP JUMPDEST PUSH0 DUP1 PUSH0 DUP1 PUSH0 PUSH1 0xA0 DUP7 DUP9 SUB SLT ISZERO PUSH2 0x57DA JUMPI PUSH2 0x57D9 PUSH2 0x458F JUMP JUMPDEST JUMPDEST PUSH0 PUSH2 0x57E7 DUP9 DUP3 DUP10 ADD PUSH2 0x47E8 JUMP JUMPDEST SWAP6 POP POP PUSH1 0x20 PUSH2 0x57F8 DUP9 DUP3 DUP10 ADD PUSH2 0x47E8 JUMP JUMPDEST SWAP5 POP POP PUSH1 0x40 PUSH2 0x5809 DUP9 DUP3 DUP10 ADD PUSH2 0x4691 JUMP JUMPDEST SWAP4 POP POP PUSH1 0x60 PUSH2 0x581A DUP9 DUP3 DUP10 ADD PUSH2 0x4691 JUMP JUMPDEST SWAP3 POP POP PUSH1 0x80 DUP7 ADD CALLDATALOAD PUSH8 0xFFFFFFFFFFFFFFFF DUP2 GT ISZERO PUSH2 0x583B JUMPI PUSH2 0x583A PUSH2 0x4593 JUMP JUMPDEST JUMPDEST PUSH2 0x5847 DUP9 DUP3 DUP10 ADD PUSH2 0x48FB JUMP JUMPDEST SWAP2 POP POP SWAP3 SWAP6 POP SWAP3 SWAP6 SWAP1 SWAP4 POP JUMP JUMPDEST PUSH0 DUP2 SWAP1 POP SWAP2 SWAP1 POP JUMP JUMPDEST PUSH0 PUSH2 0x5877 PUSH2 0x5872 PUSH2 0x586D DUP5 PUSH2 0x477A JUMP JUMPDEST PUSH2 0x5854 JUMP JUMPDEST PUSH2 0x477A JUMP JUMPDEST SWAP1 POP SWAP2 SWAP1 POP JUMP JUMPDEST PUSH0 PUSH2 0x5888 DUP3 PUSH2 0x585D JUMP JUMPDEST SWAP1 POP SWAP2 SWAP1 POP JUMP JUMPDEST PUSH0 PUSH2 0x5899 DUP3 PUSH2 0x587E JUMP JUMPDEST SWAP1 POP SWAP2 SWAP1 POP JUMP JUMPDEST PUSH2 0x58A9 DUP2 PUSH2 0x588F JUMP JUMPDEST DUP3 MSTORE POP POP JUMP JUMPDEST PUSH0 PUSH1 0x20 DUP3 ADD SWAP1 POP PUSH2 0x58C2 PUSH0 DUP4 ADD DUP5 PUSH2 0x58A0 JUMP JUMPDEST SWAP3 SWAP2 POP POP JUMP JUMPDEST PUSH32 0x4E487B7100000000000000000000000000000000000000000000000000000000 PUSH0 MSTORE PUSH1 0x22 PUSH1 0x4 MSTORE PUSH1 0x24 PUSH0 REVERT JUMPDEST PUSH0 PUSH1 0x2 DUP3 DIV SWAP1 POP PUSH1 0x1 DUP3 AND DUP1 PUSH2 0x590C JUMPI PUSH1 0x7F DUP3 AND SWAP2 POP JUMPDEST PUSH1 0x20 DUP3 LT DUP2 SUB PUSH2 0x591F JUMPI PUSH2 0x591E PUSH2 0x58C8 JUMP JUMPDEST JUMPDEST POP SWAP2 SWAP1 POP JUMP JUMPDEST PUSH0 PUSH2 0x593F PUSH2 0x593A PUSH2 0x5935 DUP5 PUSH2 0x5093 JUMP JUMPDEST PUSH2 0x5854 JUMP JUMPDEST PUSH2 0x464A JUMP JUMPDEST SWAP1 POP SWAP2 SWAP1 POP JUMP JUMPDEST PUSH2 0x594F DUP2 PUSH2 0x5925 JUMP JUMPDEST DUP3 MSTORE POP POP JUMP JUMPDEST PUSH0 PUSH1 0x40 DUP3 ADD SWAP1 POP PUSH2 0x5968 PUSH0 DUP4 ADD DUP6 PUSH2 0x4653 JUMP JUMPDEST PUSH2 0x5975 PUSH1 0x20 DUP4 ADD DUP5 PUSH2 0x5946 JUMP JUMPDEST SWAP4 SWAP3 POP POP POP JUMP JUMPDEST PUSH32 0x4E487B7100000000000000000000000000000000000000000000000000000000 PUSH0 MSTORE PUSH1 0x32 PUSH1 0x4 MSTORE PUSH1 0x24 PUSH0 REVERT JUMPDEST PUSH32 0x4E487B7100000000000000000000000000000000000000000000000000000000 PUSH0 MSTORE PUSH1 0x11 PUSH1 0x4 MSTORE PUSH1 0x24 PUSH0 REVERT JUMPDEST PUSH0 PUSH2 0x59E0 DUP3 PUSH2 0x464A JUMP JUMPDEST SWAP2 POP PUSH32 0xFFFFFFFFFFFFFFFFFFFFFFFFFFFFFFFFFFFFFFFFFFFFFFFFFFFFFFFFFFFFFFFF DUP3 SUB PUSH2 0x5A12 JUMPI PUSH2 0x5A11 PUSH2 0x59A9 JUMP JUMPDEST JUMPDEST PUSH1 0x1 DUP3 ADD SWAP1 POP SWAP2 SWAP1 POP JUMP JUMPDEST PUSH0 PUSH1 0x40 DUP3 ADD SWAP1 POP PUSH2 0x5A30 PUSH0 DUP4 ADD DUP6 PUSH2 0x4653 JUMP JUMPDEST PUSH2 0x5A3D PUSH1 0x20 DUP4 ADD DUP5 PUSH2 0x47AA JUMP JUMPDEST SWAP4 SWAP3 POP POP POP JUMP JUMPDEST PUSH0 PUSH2 0x5A56 PUSH2 0x5A51 DUP5 PUSH2 0x516A JUMP JUMPDEST PUSH2 0x4862 JUMP JUMPDEST SWAP1 POP DUP3 DUP2 MSTORE PUSH1 0x20 DUP2 ADD DUP5 DUP5 DUP5 ADD GT ISZERO PUSH2 0x5A72 JUMPI PUSH2 0x5A71 PUSH2 0x4800 JUMP JUMPDEST JUMPDEST PUSH2 0x5A7D DUP5 DUP3 DUP6 PUSH2 0x46EA JUMP JUMPDEST POP SWAP4 SWAP3 POP POP POP JUMP JUMPDEST PUSH0 DUP3 PUSH1 0x1F DUP4 ADD SLT PUSH2 0x5A99 JUMPI PUSH2 0x5A98 PUSH2 0x47FC JUMP JUMPDEST JUMPDEST DUP2 MLOAD PUSH2 0x5AA9 DUP5 DUP3 PUSH1 0x20 DUP7 ADD PUSH2 0x5A44 JUMP JUMPDEST SWAP2 POP POP SWAP3 SWAP2 POP POP JUMP JUMPDEST PUSH0 PUSH1 0x20 DUP3 DUP5 SUB SLT ISZERO PUSH2 0x5AC7 JUMPI PUSH2 0x5AC6 PUSH2 0x458F JUMP JUMPDEST JUMPDEST PUSH0 DUP3 ADD MLOAD PUSH8 0xFFFFFFFFFFFFFFFF DUP2 GT ISZERO PUSH2 0x5AE4 JUMPI PUSH2 0x5AE3 PUSH2 0x4593 JUMP JUMPDEST JUMPDEST PUSH2 0x5AF0 DUP5 DUP3 DUP6 ADD PUSH2 0x5A85 JUMP JUMPDEST SWAP2 POP POP SWAP3 SWAP2 POP POP JUMP JUMPDEST PUSH0 DUP2 SWAP1 POP SWAP3 SWAP2 POP POP JUMP JUMPDEST PUSH0 PUSH2 0x5B0E DUP4 DUP6 PUSH2 0x5AF9 JUMP JUMPDEST SWAP4 POP PUSH2 0x5B1B DUP4 DUP6 DUP5 PUSH2 0x48AC JUMP JUMPDEST DUP3 DUP5 ADD SWAP1 POP SWAP4 SWAP3 POP POP POP JUMP JUMPDEST PUSH0 PUSH2 0x5B33 DUP3 DUP5 DUP7 PUSH2 0x5B03 JUMP JUMPDEST SWAP2 POP DUP2 SWAP1 POP SWAP4 SWAP3 POP POP POP JUMP JUMPDEST PUSH2 0x5B48 DUP2 PUSH2 0x4E44 JUMP JUMPDEST DUP3 MSTORE POP POP JUMP JUMPDEST PUSH0 PUSH1 0xE0 DUP3 ADD SWAP1 POP PUSH2 0x5B61 PUSH0 DUP4 ADD DUP11 PUSH2 0x4D1D JUMP JUMPDEST PUSH2 0x5B6E PUSH1 0x20 DUP4 ADD DUP10 PUSH2 0x4653 JUMP JUMPDEST PUSH2 0x5B7B PUSH1 0x40 DUP4 ADD DUP9 PUSH2 0x5B3F JUMP JUMPDEST PUSH2 0x5B88 PUSH1 0x60 DUP4 ADD DUP8 PUSH2 0x47AA JUMP JUMPDEST PUSH2 0x5B95 PUSH1 0x80 DUP4 ADD DUP7 PUSH2 0x4653 JUMP JUMPDEST PUSH2 0x5BA2 PUSH1 0xA0 DUP4 ADD DUP6 PUSH2 0x4D1D JUMP JUMPDEST PUSH2 0x5BAF PUSH1 0xC0 DUP4 ADD DUP5 PUSH2 0x4D1D JUMP JUMPDEST SWAP9 SWAP8 POP POP POP POP POP POP POP POP JUMP JUMPDEST PUSH0 PUSH2 0x5BC5 DUP3 PUSH2 0x5093 JUMP JUMPDEST SWAP2 POP PUSH2 0x5BD0 DUP4 PUSH2 0x5093 JUMP JUMPDEST SWAP3 POP DUP3 DUP3 SUB SWAP1 POP PUSH6 0xFFFFFFFFFFFF DUP2 GT ISZERO PUSH2 0x5BEE JUMPI PUSH2 0x5BED PUSH2 0x59A9 JUMP JUMPDEST JUMPDEST SWAP3 SWAP2 POP POP JUMP JUMPDEST PUSH0 PUSH1 0x60 DUP3 ADD SWAP1 POP PUSH2 0x5C07 PUSH0 DUP4 ADD DUP7 PUSH2 0x47AA JUMP JUMPDEST PUSH2 0x5C14 PUSH1 0x20 DUP4 ADD DUP6 PUSH2 0x4653 JUMP JUMPDEST PUSH2 0x5C21 PUSH1 0x40 DUP4 ADD DUP5 PUSH2 0x4653 JUMP JUMPDEST SWAP5 SWAP4 POP POP POP POP JUMP JUMPDEST PUSH0 PUSH1 0xA0 DUP3 ADD SWAP1 POP PUSH2 0x5C3C PUSH0 DUP4 ADD DUP9 PUSH2 0x4D1D JUMP JUMPDEST PUSH2 0x5C49 PUSH1 0x20 DUP4 ADD DUP8 PUSH2 0x4653 JUMP JUMPDEST PUSH2 0x5C56 PUSH1 0x40 DUP4 ADD DUP7 PUSH2 0x5B3F JUMP JUMPDEST PUSH2 0x5C63 PUSH1 0x60 DUP4 ADD DUP6 PUSH2 0x47AA JUMP JUMPDEST PUSH2 0x5C70 PUSH1 0x80 DUP4 ADD DUP5 PUSH2 0x4653 JUMP JUMPDEST SWAP7 SWAP6 POP POP POP POP POP POP JUMP JUMPDEST PUSH0 DUP2 MLOAD SWAP1 POP PUSH2 0x5C88 DUP2 PUSH2 0x50A4 JUMP JUMPDEST SWAP3 SWAP2 POP POP JUMP JUMPDEST PUSH0 PUSH1 0x20 DUP3 DUP5 SUB SLT ISZERO PUSH2 0x5CA3 JUMPI PUSH2 0x5CA2 PUSH2 0x458F JUMP JUMPDEST JUMPDEST PUSH0 PUSH2 0x5CB0 DUP5 DUP3 DUP6 ADD PUSH2 0x5C7A JUMP JUMPDEST SWAP2 POP POP SWAP3 SWAP2 POP POP JUMP JUMPDEST PUSH0 PUSH2 0x5CC3 DUP3 PUSH2 0x5093 JUMP JUMPDEST SWAP2 POP PUSH2 0x5CCE DUP4 PUSH2 0x5093 JUMP JUMPDEST SWAP3 POP DUP3 DUP3 ADD SWAP1 POP PUSH6 0xFFFFFFFFFFFF DUP2 GT ISZERO PUSH2 0x5CEC JUMPI PUSH2 0x5CEB PUSH2 0x59A9 JUMP JUMPDEST JUMPDEST SWAP3 SWAP2 POP POP JUMP JUMPDEST PUSH0 DUP2 MLOAD SWAP1 POP SWAP2 SWAP1 POP JUMP JUMPDEST PUSH0 DUP3 DUP3 MSTORE PUSH1 0x20 DUP3 ADD SWAP1 POP SWAP3 SWAP2 POP POP JUMP JUMPDEST PUSH0 DUP2 SWAP1 POP PUSH1 0x20 DUP3 ADD SWAP1 POP SWAP2 SWAP1 POP JUMP JUMPDEST PUSH2 0x5D24 DUP2 PUSH2 0x4799 JUMP JUMPDEST DUP3 MSTORE POP POP JUMP JUMPDEST PUSH0 PUSH2 0x5D35 DUP4 DUP4 PUSH2 0x5D1B JUMP JUMPDEST PUSH1 0x20 DUP4 ADD SWAP1 POP SWAP3 SWAP2 POP POP JUMP JUMPDEST PUSH0 PUSH1 0x20 DUP3 ADD SWAP1 POP SWAP2 SWAP1 POP JUMP JUMPDEST PUSH0 PUSH2 0x5D57 DUP3 PUSH2 0x5CF2 JUMP JUMPDEST PUSH2 0x5D61 DUP2 DUP6 PUSH2 0x5CFC JUMP JUMPDEST SWAP4 POP PUSH2 0x5D6C DUP4 PUSH2 0x5D0C JUMP JUMPDEST DUP1 PUSH0 JUMPDEST DUP4 DUP2 LT ISZERO PUSH2 0x5D9C JUMPI DUP2 MLOAD PUSH2 0x5D83 DUP9 DUP3 PUSH2 0x5D2A JUMP JUMPDEST SWAP8 POP PUSH2 0x5D8E DUP4 PUSH2 0x5D41 JUMP JUMPDEST SWAP3 POP POP PUSH1 0x1 DUP2 ADD SWAP1 POP PUSH2 0x5D6F JUMP JUMPDEST POP DUP6 SWAP4 POP POP POP POP SWAP3 SWAP2 POP POP JUMP JUMPDEST PUSH0 DUP2 MLOAD SWAP1 POP SWAP2 SWAP1 POP JUMP JUMPDEST PUSH0 DUP3 DUP3 MSTORE PUSH1 0x20 DUP3 ADD SWAP1 POP SWAP3 SWAP2 POP POP JUMP JUMPDEST PUSH0 DUP2 SWAP1 POP PUSH1 0x20 DUP3 ADD SWAP1 POP SWAP2 SWAP1 POP JUMP JUMPDEST PUSH0 DUP2 MLOAD SWAP1 POP SWAP2 SWAP1 POP JUMP JUMPDEST PUSH0 DUP3 DUP3 MSTORE PUSH1 0x20 DUP3 ADD SWAP1 POP SWAP3 SWAP2 POP POP JUMP JUMPDEST PUSH0 PUSH2 0x5DF6 DUP3 PUSH2 0x5DD2 JUMP JUMPDEST PUSH2 0x5E00 DUP2 DUP6 PUSH2 0x5DDC JUMP JUMPDEST SWAP4 POP PUSH2 0x5E10 DUP2 DUP6 PUSH1 0x20 DUP7 ADD PUSH2 0x46EA JUMP JUMPDEST PUSH2 0x5E19 DUP2 PUSH2 0x4712 JUMP JUMPDEST DUP5 ADD SWAP2 POP POP SWAP3 SWAP2 POP POP JUMP JUMPDEST PUSH0 PUSH2 0x5E2F DUP4 DUP4 PUSH2 0x5DEC JUMP JUMPDEST SWAP1 POP SWAP3 SWAP2 POP POP JUMP JUMPDEST PUSH0 PUSH1 0x20 DUP3 ADD SWAP1 POP SWAP2 SWAP1 POP JUMP JUMPDEST PUSH0 PUSH2 0x5E4D DUP3 PUSH2 0x5DA9 JUMP JUMPDEST PUSH2 0x5E57 DUP2 DUP6 PUSH2 0x5DB3 JUMP JUMPDEST SWAP4 POP DUP4 PUSH1 0x20 DUP3 MUL DUP6 ADD PUSH2 0x5E69 DUP6 PUSH2 0x5DC3 JUMP JUMPDEST DUP1 PUSH0 JUMPDEST DUP6 DUP2 LT ISZERO PUSH2 0x5EA4 JUMPI DUP5 DUP5 SUB DUP10 MSTORE DUP2 MLOAD PUSH2 0x5E85 DUP6 DUP3 PUSH2 0x5E24 JUMP JUMPDEST SWAP5 POP PUSH2 0x5E90 DUP4 PUSH2 0x5E37 JUMP JUMPDEST SWAP3 POP PUSH1 0x20 DUP11 ADD SWAP10 POP POP PUSH1 0x1 DUP2 ADD SWAP1 POP PUSH2 0x5E6C JUMP JUMPDEST POP DUP3 SWAP8 POP DUP8 SWAP6 POP POP POP POP POP POP SWAP3 SWAP2 POP POP JUMP JUMPDEST PUSH0 PUSH1 0x80 DUP3 ADD SWAP1 POP DUP2 DUP2 SUB PUSH0 DUP4 ADD MSTORE PUSH2 0x5ECE DUP2 DUP8 PUSH2 0x5D4D JUMP JUMPDEST SWAP1 POP DUP2 DUP2 SUB PUSH1 0x20 DUP4 ADD MSTORE PUSH2 0x5EE2 DUP2 DUP7 PUSH2 0x539C JUMP JUMPDEST SWAP1 POP DUP2 DUP2 SUB PUSH1 0x40 DUP4 ADD MSTORE PUSH2 0x5EF6 DUP2 DUP6 PUSH2 0x5E43 JUMP JUMPDEST SWAP1 POP PUSH2 0x5F05 PUSH1 0x60 DUP4 ADD DUP5 PUSH2 0x4D1D JUMP JUMPDEST SWAP6 SWAP5 POP POP POP POP POP JUMP JUMPDEST PUSH0 PUSH1 0x40 DUP3 ADD SWAP1 POP PUSH2 0x5F21 PUSH0 DUP4 ADD DUP6 PUSH2 0x4653 JUMP JUMPDEST PUSH2 0x5F2E PUSH1 0x20 DUP4 ADD DUP5 PUSH2 0x4653 JUMP JUMPDEST SWAP4 SWAP3 POP POP POP JUMP JUMPDEST PUSH0 PUSH1 0x60 DUP3 ADD SWAP1 POP PUSH2 0x5F48 PUSH0 DUP4 ADD DUP7 PUSH2 0x4653 JUMP JUMPDEST PUSH2 0x5F55 PUSH1 0x20 DUP4 ADD DUP6 PUSH2 0x4DA9 JUMP JUMPDEST PUSH2 0x5F62 PUSH1 0x40 DUP4 ADD DUP5 PUSH2 0x4D1D JUMP JUMPDEST SWAP5 SWAP4 POP POP POP POP JUMP JUMPDEST PUSH0 PUSH2 0x5F74 DUP3 PUSH2 0x5DD2 JUMP JUMPDEST PUSH2 0x5F7E DUP2 DUP6 PUSH2 0x5AF9 JUMP JUMPDEST SWAP4 POP PUSH2 0x5F8E DUP2 DUP6 PUSH1 0x20 DUP7 ADD PUSH2 0x46EA JUMP JUMPDEST DUP1 DUP5 ADD SWAP2 POP POP SWAP3 SWAP2 POP POP JUMP JUMPDEST PUSH0 PUSH2 0x5FA5 DUP3 DUP5 PUSH2 0x5F6A JUMP JUMPDEST SWAP2 POP DUP2 SWAP1 POP SWAP3 SWAP2 POP POP JUMP JUMPDEST PUSH0 PUSH2 0x5FBA DUP3 PUSH2 0x464A JUMP JUMPDEST SWAP2 POP PUSH2 0x5FC5 DUP4 PUSH2 0x464A JUMP JUMPDEST SWAP3 POP DUP3 DUP3 ADD SWAP1 POP DUP1 DUP3 GT ISZERO PUSH2 0x5FDD JUMPI PUSH2 0x5FDC PUSH2 0x59A9 JUMP JUMPDEST JUMPDEST SWAP3 SWAP2 POP POP JUMP JUMPDEST PUSH0 PUSH2 0x5FED DUP3 PUSH2 0x4E44 JUMP JUMPDEST SWAP2 POP PUSH2 0x5FF8 DUP4 PUSH2 0x4E44 JUMP JUMPDEST SWAP3 POP DUP3 DUP3 ADD SWAP1 POP PUSH1 0xFF DUP2 GT ISZERO PUSH2 0x6011 JUMPI PUSH2 0x6010 PUSH2 0x59A9 JUMP JUMPDEST JUMPDEST SWAP3 SWAP2 POP POP JUMP JUMPDEST PUSH0 DUP2 PUSH1 0x1 SHR SWAP1 POP SWAP2 SWAP1 POP JUMP JUMPDEST PUSH0 DUP1 DUP3 SWAP2 POP DUP4 SWAP1 POP JUMPDEST PUSH1 0x1 DUP6 GT ISZERO PUSH2 0x606C JUMPI DUP1 DUP7 DIV DUP2 GT ISZERO PUSH2 0x6048 JUMPI PUSH2 0x6047 PUSH2 0x59A9 JUMP JUMPDEST JUMPDEST PUSH1 0x1 DUP6 AND ISZERO PUSH2 0x6057 JUMPI DUP1 DUP3 MUL SWAP2 POP JUMPDEST DUP1 DUP2 MUL SWAP1 POP PUSH2 0x6065 DUP6 PUSH2 0x6017 JUMP JUMPDEST SWAP5 POP PUSH2 0x602C JUMP JUMPDEST SWAP5 POP SWAP5 SWAP3 POP POP POP JUMP JUMPDEST PUSH0 DUP3 PUSH2 0x6084 JUMPI PUSH1 0x1 SWAP1 POP PUSH2 0x613F JUMP JUMPDEST DUP2 PUSH2 0x6091 JUMPI PUSH0 SWAP1 POP PUSH2 0x613F JUMP JUMPDEST DUP2 PUSH1 0x1 DUP2 EQ PUSH2 0x60A7 JUMPI PUSH1 0x2 DUP2 EQ PUSH2 0x60B1 JUMPI PUSH2 0x60E0 JUMP JUMPDEST PUSH1 0x1 SWAP2 POP POP PUSH2 0x613F JUMP JUMPDEST PUSH1 0xFF DUP5 GT ISZERO PUSH2 0x60C3 JUMPI PUSH2 0x60C2 PUSH2 0x59A9 JUMP JUMPDEST JUMPDEST DUP4 PUSH1 0x2 EXP SWAP2 POP DUP5 DUP3 GT ISZERO PUSH2 0x60DA JUMPI PUSH2 0x60D9 PUSH2 0x59A9 JUMP JUMPDEST JUMPDEST POP PUSH2 0x613F JUMP JUMPDEST POP PUSH1 0x20 DUP4 LT PUSH2 0x133 DUP4 LT AND PUSH1 0x4E DUP5 LT PUSH1 0xB DUP5 LT AND OR ISZERO PUSH2 0x6115 JUMPI DUP3 DUP3 EXP SWAP1 POP DUP4 DUP2 GT ISZERO PUSH2 0x6110 JUMPI PUSH2 0x610F PUSH2 0x59A9 JUMP JUMPDEST JUMPDEST PUSH2 0x613F JUMP JUMPDEST PUSH2 0x6122 DUP5 DUP5 DUP5 PUSH1 0x1 PUSH2 0x6023 JUMP JUMPDEST SWAP3 POP SWAP1 POP DUP2 DUP5 DIV DUP2 GT ISZERO PUSH2 0x6139 JUMPI PUSH2 0x6138 PUSH2 0x59A9 JUMP JUMPDEST JUMPDEST DUP2 DUP2 MUL SWAP1 POP JUMPDEST SWAP4 SWAP3 POP POP POP JUMP JUMPDEST PUSH0 PUSH2 0x6150 DUP3 PUSH2 0x464A JUMP JUMPDEST SWAP2 POP PUSH2 0x615B DUP4 PUSH2 0x4E44 JUMP JUMPDEST SWAP3 POP PUSH2 0x6188 PUSH32 0xFFFFFFFFFFFFFFFFFFFFFFFFFFFFFFFFFFFFFFFFFFFFFFFFFFFFFFFFFFFFFFFF DUP5 DUP5 PUSH2 0x6075 JUMP JUMPDEST SWAP1 POP SWAP3 SWAP2 POP POP JUMP JUMPDEST PUSH0 PUSH2 0x619A DUP3 PUSH2 0x464A JUMP JUMPDEST SWAP2 POP PUSH2 0x61A5 DUP4 PUSH2 0x464A JUMP JUMPDEST SWAP3 POP DUP3 DUP3 SUB SWAP1 POP DUP2 DUP2 GT ISZERO PUSH2 0x61BD JUMPI PUSH2 0x61BC PUSH2 0x59A9 JUMP JUMPDEST JUMPDEST SWAP3 SWAP2 POP POP JUMP JUMPDEST PUSH0 PUSH1 0x80 DUP3 ADD SWAP1 POP PUSH2 0x61D6 PUSH0 DUP4 ADD DUP8 PUSH2 0x4653 JUMP JUMPDEST PUSH2 0x61E3 PUSH1 0x20 DUP4 ADD DUP7 PUSH2 0x5B3F JUMP JUMPDEST PUSH2 0x61F0 PUSH1 0x40 DUP4 ADD DUP6 PUSH2 0x4653 JUMP JUMPDEST DUP2 DUP2 SUB PUSH1 0x60 DUP4 ADD MSTORE PUSH2 0x6202 DUP2 DUP5 PUSH2 0x4722 JUMP JUMPDEST SWAP1 POP SWAP6 SWAP5 POP POP POP POP POP JUMP JUMPDEST PUSH0 DUP3 DUP3 MSTORE PUSH1 0x20 DUP3 ADD SWAP1 POP SWAP3 SWAP2 POP POP JUMP JUMPDEST PUSH0 PUSH2 0x6227 DUP3 PUSH2 0x5DD2 JUMP JUMPDEST PUSH2 0x6231 DUP2 DUP6 PUSH2 0x620D JUMP JUMPDEST SWAP4 POP PUSH2 0x6241 DUP2 DUP6 PUSH1 0x20 DUP7 ADD PUSH2 0x46EA JUMP JUMPDEST PUSH2 0x624A DUP2 PUSH2 0x4712 JUMP JUMPDEST DUP5 ADD SWAP2 POP POP SWAP3 SWAP2 POP POP JUMP JUMPDEST PUSH0 PUSH1 0xA0 DUP3 ADD SWAP1 POP PUSH2 0x6268 PUSH0 DUP4 ADD DUP9 PUSH2 0x4653 JUMP JUMPDEST PUSH2 0x6275 PUSH1 0x20 DUP4 ADD DUP8 PUSH2 0x5B3F JUMP JUMPDEST PUSH2 0x6282 PUSH1 0x40 DUP4 ADD DUP7 PUSH2 0x4653 JUMP JUMPDEST DUP2 DUP2 SUB PUSH1 0x60 DUP4 ADD MSTORE PUSH2 0x6294 DUP2 DUP6 PUSH2 0x4722 JUMP JUMPDEST SWAP1 POP DUP2 DUP2 SUB PUSH1 0x80 DUP4 ADD MSTORE PUSH2 0x62A8 DUP2 DUP5 PUSH2 0x621D JUMP JUMPDEST SWAP1 POP SWAP7 SWAP6 POP POP POP POP POP POP JUMP JUMPDEST PUSH0 PUSH1 0x40 DUP3 ADD SWAP1 POP PUSH2 0x62C7 PUSH0 DUP4 ADD DUP6 PUSH2 0x5946 JUMP JUMPDEST PUSH2 0x62D4 PUSH1 0x20 DUP4 ADD DUP5 PUSH2 0x5946 JUMP JUMPDEST SWAP4 SWAP3 POP POP POP JUMP JUMPDEST PUSH0 DUP2 MLOAD SWAP1 POP SWAP2 SWAP1 POP JUMP JUMPDEST PUSH0 DUP3 DUP3 MSTORE PUSH1 0x20 DUP3 ADD SWAP1 POP SWAP3 SWAP2 POP POP JUMP JUMPDEST PUSH0 DUP2 SWAP1 POP PUSH1 0x20 DUP3 ADD SWAP1 POP SWAP2 SWAP1 POP JUMP JUMPDEST PUSH0 DUP3 DUP3 MSTORE PUSH1 0x20 DUP3 ADD SWAP1 POP SWAP3 SWAP2 POP POP JUMP JUMPDEST PUSH0 PUSH2 0x631E DUP3 PUSH2 0x46D0 JUMP JUMPDEST PUSH2 0x6328 DUP2 DUP6 PUSH2 0x6304 JUMP JUMPDEST SWAP4 POP PUSH2 0x6338 DUP2 DUP6 PUSH1 0x20 DUP7 ADD PUSH2 0x46EA JUMP JUMPDEST PUSH2 0x6341 DUP2 PUSH2 0x4712 JUMP JUMPDEST DUP5 ADD SWAP2 POP POP SWAP3 SWAP2 POP POP JUMP JUMPDEST PUSH0 PUSH2 0x6357 DUP4 DUP4 PUSH2 0x6314 JUMP JUMPDEST SWAP1 POP SWAP3 SWAP2 POP POP JUMP JUMPDEST PUSH0 PUSH1 0x20 DUP3 ADD SWAP1 POP SWAP2 SWAP1 POP JUMP JUMPDEST PUSH0 PUSH2 0x6375 DUP3 PUSH2 0x62DB JUMP JUMPDEST PUSH2 0x637F DUP2 DUP6 PUSH2 0x62E5 JUMP JUMPDEST SWAP4 POP DUP4 PUSH1 0x20 DUP3 MUL DUP6 ADD PUSH2 0x6391 DUP6 PUSH2 0x62F5 JUMP JUMPDEST DUP1 PUSH0 JUMPDEST DUP6 DUP2 LT ISZERO PUSH2 0x63CC JUMPI DUP5 DUP5 SUB DUP10 MSTORE DUP2 MLOAD PUSH2 0x63AD DUP6 DUP3 PUSH2 0x634C JUMP JUMPDEST SWAP5 POP PUSH2 0x63B8 DUP4 PUSH2 0x635F JUMP JUMPDEST SWAP3 POP PUSH1 0x20 DUP11 ADD SWAP10 POP POP PUSH1 0x1 DUP2 ADD SWAP1 POP PUSH2 0x6394 JUMP JUMPDEST POP DUP3 SWAP8 POP DUP8 SWAP6 POP POP POP POP POP POP SWAP3 SWAP2 POP POP JUMP JUMPDEST PUSH0 PUSH2 0x120 DUP3 ADD SWAP1 POP PUSH2 0x63F2 PUSH0 DUP4 ADD DUP13 PUSH2 0x4653 JUMP JUMPDEST PUSH2 0x63FF PUSH1 0x20 DUP4 ADD DUP12 PUSH2 0x47AA JUMP JUMPDEST DUP2 DUP2 SUB PUSH1 0x40 DUP4 ADD MSTORE PUSH2 0x6411 DUP2 DUP11 PUSH2 0x5D4D JUMP JUMPDEST SWAP1 POP DUP2 DUP2 SUB PUSH1 0x60 DUP4 ADD MSTORE PUSH2 0x6425 DUP2 DUP10 PUSH2 0x539C JUMP JUMPDEST SWAP1 POP DUP2 DUP2 SUB PUSH1 0x80 DUP4 ADD MSTORE PUSH2 0x6439 DUP2 DUP9 PUSH2 0x636B JUMP JUMPDEST SWAP1 POP DUP2 DUP2 SUB PUSH1 0xA0 DUP4 ADD MSTORE PUSH2 0x644D DUP2 DUP8 PUSH2 0x5E43 JUMP JUMPDEST SWAP1 POP PUSH2 0x645C PUSH1 0xC0 DUP4 ADD DUP7 PUSH2 0x4653 JUMP JUMPDEST PUSH2 0x6469 PUSH1 0xE0 DUP4 ADD DUP6 PUSH2 0x4653 JUMP JUMPDEST DUP2 DUP2 SUB PUSH2 0x100 DUP4 ADD MSTORE PUSH2 0x647C DUP2 DUP5 PUSH2 0x4722 JUMP JUMPDEST SWAP1 POP SWAP11 SWAP10 POP POP POP POP POP POP POP POP POP POP JUMP JUMPDEST PUSH0 PUSH1 0x40 DUP3 ADD SWAP1 POP PUSH2 0x649F PUSH0 DUP4 ADD DUP6 PUSH2 0x47AA JUMP JUMPDEST PUSH2 0x64AC PUSH1 0x20 DUP4 ADD DUP5 PUSH2 0x4653 JUMP JUMPDEST SWAP4 SWAP3 POP POP POP JUMP JUMPDEST PUSH0 DUP2 MLOAD SWAP1 POP PUSH2 0x64C1 DUP2 PUSH2 0x467B JUMP JUMPDEST SWAP3 SWAP2 POP POP JUMP JUMPDEST PUSH0 PUSH1 0x20 DUP3 DUP5 SUB SLT ISZERO PUSH2 0x64DC JUMPI PUSH2 0x64DB PUSH2 0x458F JUMP JUMPDEST JUMPDEST PUSH0 PUSH2 0x64E9 DUP5 DUP3 DUP6 ADD PUSH2 0x64B3 JUMP JUMPDEST SWAP2 POP POP SWAP3 SWAP2 POP POP JUMP JUMPDEST PUSH0 DUP2 SWAP1 POP SWAP2 SWAP1 POP JUMP JUMPDEST PUSH0 PUSH2 0x6515 PUSH2 0x6510 PUSH2 0x650B DUP5 PUSH2 0x64F2 JUMP JUMPDEST PUSH2 0x5854 JUMP JUMPDEST PUSH2 0x464A JUMP JUMPDEST SWAP1 POP SWAP2 SWAP1 POP JUMP JUMPDEST PUSH2 0x6525 DUP2 PUSH2 0x64FB JUMP JUMPDEST DUP3 MSTORE POP POP JUMP JUMPDEST PUSH0 PUSH1 0x20 DUP3 ADD SWAP1 POP PUSH2 0x653E PUSH0 DUP4 ADD DUP5 PUSH2 0x651C JUMP JUMPDEST SWAP3 SWAP2 POP POP JUMP JUMPDEST PUSH0 PUSH2 0x655E PUSH2 0x6559 PUSH2 0x6554 DUP5 PUSH2 0x571F JUMP JUMPDEST PUSH2 0x5854 JUMP JUMPDEST PUSH2 0x464A JUMP JUMPDEST SWAP1 POP SWAP2 SWAP1 POP JUMP JUMPDEST PUSH2 0x656E DUP2 PUSH2 0x6544 JUMP JUMPDEST DUP3 MSTORE POP POP JUMP JUMPDEST PUSH0 PUSH1 0x40 DUP3 ADD SWAP1 POP PUSH2 0x6587 PUSH0 DUP4 ADD DUP6 PUSH2 0x6565 JUMP JUMPDEST PUSH2 0x6594 PUSH1 0x20 DUP4 ADD DUP5 PUSH2 0x6565 JUMP JUMPDEST SWAP4 SWAP3 POP POP POP JUMP JUMPDEST PUSH0 DUP2 SWAP1 POP SWAP2 SWAP1 POP JUMP JUMPDEST PUSH0 PUSH2 0x65BE PUSH2 0x65B9 PUSH2 0x65B4 DUP5 PUSH2 0x659B JUMP JUMPDEST PUSH2 0x5854 JUMP JUMPDEST PUSH2 0x4E44 JUMP JUMPDEST SWAP1 POP SWAP2 SWAP1 POP JUMP JUMPDEST PUSH2 0x65CE DUP2 PUSH2 0x65A4 JUMP JUMPDEST DUP3 MSTORE POP POP JUMP JUMPDEST PUSH0 PUSH1 0x40 DUP3 ADD SWAP1 POP PUSH2 0x65E7 PUSH0 DUP4 ADD DUP6 PUSH2 0x65C5 JUMP JUMPDEST PUSH2 0x65F4 PUSH1 0x20 DUP4 ADD DUP5 PUSH2 0x4653 JUMP JUMPDEST SWAP4 SWAP3 POP POP POP JUMP JUMPDEST PUSH0 PUSH1 0x40 DUP3 ADD SWAP1 POP PUSH2 0x660E PUSH0 DUP4 ADD DUP6 PUSH2 0x4D1D JUMP JUMPDEST DUP2 DUP2 SUB PUSH1 0x20 DUP4 ADD MSTORE PUSH2 0x6620 DUP2 DUP5 PUSH2 0x621D JUMP JUMPDEST SWAP1 POP SWAP4 SWAP3 POP POP POP JUMP JUMPDEST PUSH0 DUP2 MLOAD SWAP1 POP PUSH2 0x6637 DUP2 PUSH2 0x4C3B JUMP JUMPDEST SWAP3 SWAP2 POP POP JUMP JUMPDEST PUSH0 PUSH1 0x20 DUP3 DUP5 SUB SLT ISZERO PUSH2 0x6652 JUMPI PUSH2 0x6651 PUSH2 0x458F JUMP JUMPDEST JUMPDEST PUSH0 PUSH2 0x665F DUP5 DUP3 DUP6 ADD PUSH2 0x6629 JUMP JUMPDEST SWAP2 POP POP SWAP3 SWAP2 POP POP JUMP JUMPDEST PUSH0 DUP2 SWAP1 POP SWAP2 SWAP1 POP JUMP JUMPDEST PUSH0 PUSH2 0x668B PUSH2 0x6686 PUSH2 0x6681 DUP5 PUSH2 0x6668 JUMP JUMPDEST PUSH2 0x5854 JUMP JUMPDEST PUSH2 0x4E44 JUMP JUMPDEST SWAP1 POP SWAP2 SWAP1 POP JUMP JUMPDEST PUSH2 0x669B DUP2 PUSH2 0x6671 JUMP JUMPDEST DUP3 MSTORE POP POP JUMP JUMPDEST PUSH0 PUSH1 0x40 DUP3 ADD SWAP1 POP PUSH2 0x66B4 PUSH0 DUP4 ADD DUP6 PUSH2 0x6692 JUMP JUMPDEST PUSH2 0x66C1 PUSH1 0x20 DUP4 ADD DUP5 PUSH2 0x4653 JUMP JUMPDEST SWAP4 SWAP3 POP POP POP JUMP JUMPDEST PUSH0 PUSH2 0x66D2 DUP3 PUSH2 0x464A JUMP JUMPDEST SWAP2 POP PUSH2 0x66DD DUP4 PUSH2 0x464A JUMP JUMPDEST SWAP3 POP DUP3 DUP3 MUL PUSH2 0x66EB DUP2 PUSH2 0x464A JUMP JUMPDEST SWAP2 POP DUP3 DUP3 DIV DUP5 EQ DUP4 ISZERO OR PUSH2 0x6702 JUMPI PUSH2 0x6701 PUSH2 0x59A9 JUMP JUMPDEST JUMPDEST POP SWAP3 SWAP2 POP POP JUMP JUMPDEST PUSH0 DUP2 SWAP1 POP SWAP2 SWAP1 POP JUMP JUMPDEST PUSH0 PUSH2 0x672C PUSH2 0x6727 PUSH2 0x6722 DUP5 PUSH2 0x6709 JUMP JUMPDEST PUSH2 0x5854 JUMP JUMPDEST PUSH2 0x4E44 JUMP JUMPDEST SWAP1 POP SWAP2 SWAP1 POP JUMP JUMPDEST PUSH2 0x673C DUP2 PUSH2 0x6712 JUMP JUMPDEST DUP3 MSTORE POP POP JUMP JUMPDEST PUSH0 PUSH1 0x40 DUP3 ADD SWAP1 POP PUSH2 0x6755 PUSH0 DUP4 ADD DUP6 PUSH2 0x6733 JUMP JUMPDEST PUSH2 0x6762 PUSH1 0x20 DUP4 ADD DUP5 PUSH2 0x4653 JUMP JUMPDEST SWAP4 SWAP3 POP POP POP JUMP JUMPDEST PUSH32 0x4E487B7100000000000000000000000000000000000000000000000000000000 PUSH0 MSTORE PUSH1 0x12 PUSH1 0x4 MSTORE PUSH1 0x24 PUSH0 REVERT JUMPDEST PUSH0 PUSH1 0xA0 DUP3 ADD SWAP1 POP PUSH2 0x67A9 PUSH0 DUP4 ADD DUP9 PUSH2 0x4D1D JUMP JUMPDEST PUSH2 0x67B6 PUSH1 0x20 DUP4 ADD DUP8 PUSH2 0x4D1D JUMP JUMPDEST PUSH2 0x67C3 PUSH1 0x40 DUP4 ADD DUP7 PUSH2 0x4D1D JUMP JUMPDEST PUSH2 0x67D0 PUSH1 0x60 DUP4 ADD DUP6 PUSH2 0x4653 JUMP JUMPDEST PUSH2 0x67DD PUSH1 0x80 DUP4 ADD DUP5 PUSH2 0x47AA JUMP JUMPDEST SWAP7 SWAP6 POP POP POP POP POP POP JUMP JUMPDEST PUSH0 PUSH1 0x80 DUP3 ADD SWAP1 POP PUSH2 0x67FA PUSH0 DUP4 ADD DUP8 PUSH2 0x4D1D JUMP JUMPDEST PUSH2 0x6807 PUSH1 0x20 DUP4 ADD DUP7 PUSH2 0x5B3F JUMP JUMPDEST PUSH2 0x6814 PUSH1 0x40 DUP4 ADD DUP6 PUSH2 0x4D1D JUMP JUMPDEST PUSH2 0x6821 PUSH1 0x60 DUP4 ADD DUP5 PUSH2 0x4D1D JUMP JUMPDEST SWAP6 SWAP5 POP POP POP POP POP JUMP JUMPDEST PUSH0 PUSH2 0x6834 DUP3 PUSH2 0x464A JUMP JUMPDEST SWAP2 POP PUSH2 0x683F DUP4 PUSH2 0x464A JUMP JUMPDEST SWAP3 POP DUP3 PUSH2 0x684F JUMPI PUSH2 0x684E PUSH2 0x6769 JUMP JUMPDEST JUMPDEST DUP3 DUP3 DIV SWAP1 POP SWAP3 SWAP2 POP POP JUMP INVALID LOG2 PUSH5 0x6970667358 0x22 SLT KECCAK256 SDIV 0xAC DUP3 GASLIMIT ISZERO EXTCODESIZE SWAP2 0x4A EXP 0xBF MUL CHAINID 0xD6 SDIV CALLER SWAP9 0xBF 0xE1 MOD ISZERO MSTORE AND 0x5E 0xE0 PUSH30 0x4EC5E42D3BBFD064736F6C63430008140033000000000000000000000000 "
		},
		"gasEstimates": {
			"creation": {
				"codeDepositCost": "5353600",
				"executionCost": "infinite",
				"totalCost": "infinite"
			},
			"external": {
				"BALLOT_TYPEHASH()": "480",
				"CLOCK_MODE()": "infinite",
				"COUNTING_MODE()": "infinite",
				"EXTENDED_BALLOT_TYPEHASH()": "459",
				"cancel(address[],uint256[],bytes[],bytes32)": "infinite",
				"castVote(uint256,uint8)": "infinite",
				"castVoteBySig(uint256,uint8,address,bytes)": "infinite",
				"castVoteWithReason(uint256,uint8,string)": "infinite",
				"castVoteWithReasonAndParams(uint256,uint8,string,bytes)": "infinite",
				"castVoteWithReasonAndParamsBySig(uint256,uint8,address,string,bytes,bytes)": "infinite",
				"clock()": "infinite",
				"eip712Domain()": "infinite",
				"execute(address[],uint256[],bytes[],bytes32)": "infinite",
				"getProposalId(address[],uint256[],bytes[],bytes32)": "infinite",
				"getVotes(address,uint256)": "infinite",
				"getVotesWithParams(address,uint256,bytes)": "infinite",
				"hasVoted(uint256,address)": "3191",
				"hashProposal(address[],uint256[],bytes[],bytes32)": "infinite",
				"name()": "infinite",
				"nonces(address)": "2897",
				"onERC1155BatchReceived(address,address,uint256[],uint256[],bytes)": "infinite",
				"onERC1155Received(address,address,uint256,uint256,bytes)": "infinite",
				"onERC721Received(address,address,uint256,bytes)": "infinite",
				"proposalDeadline(uint256)": "infinite",
				"proposalEta(uint256)": "infinite",
				"proposalNeedsQueuing(uint256)": "702",
				"proposalProposer(uint256)": "2992",
				"proposalSnapshot(uint256)": "infinite",
				"proposalThreshold()": "2621",
				"proposalVotes(uint256)": "infinite",
				"propose(address[],uint256[],bytes[],string)": "infinite",
				"queue(address[],uint256[],bytes[],bytes32)": "infinite",
				"quorum(uint256)": "infinite",
				"quorumDenominator()": "488",
				"quorumNumerator()": "infinite",
				"quorumNumerator(uint256)": "infinite",
				"relay(address,uint256,bytes)": "infinite",
				"setProposalThreshold(uint256)": "infinite",
				"setVotingDelay(uint48)": "infinite",
				"setVotingPeriod(uint32)": "infinite",
				"state(uint256)": "infinite",
				"supportsInterface(bytes4)": "868",
				"token()": "infinite",
				"updateQuorumNumerator(uint256)": "infinite",
				"version()": "infinite",
				"votingDelay()": "2663",
				"votingPeriod()": "2627"
			}
		},
		"methodIdentifiers": {
			"BALLOT_TYPEHASH()": "deaaa7cc",
			"CLOCK_MODE()": "4bf5d7e9",
			"COUNTING_MODE()": "dd4e2ba5",
			"EXTENDED_BALLOT_TYPEHASH()": "2fe3e261",
			"cancel(address[],uint256[],bytes[],bytes32)": "452115d6",
			"castVote(uint256,uint8)": "56781388",
			"castVoteBySig(uint256,uint8,address,bytes)": "8ff262e3",
			"castVoteWithReason(uint256,uint8,string)": "7b3c71d3",
			"castVoteWithReasonAndParams(uint256,uint8,string,bytes)": "5f398a14",
			"castVoteWithReasonAndParamsBySig(uint256,uint8,address,string,bytes,bytes)": "5b8d0e0d",
			"clock()": "91ddadf4",
			"eip712Domain()": "84b0196e",
			"execute(address[],uint256[],bytes[],bytes32)": "2656227d",
			"getProposalId(address[],uint256[],bytes[],bytes32)": "a8f8a668",
			"getVotes(address,uint256)": "eb9019d4",
			"getVotesWithParams(address,uint256,bytes)": "9a802a6d",
			"hasVoted(uint256,address)": "43859632",
			"hashProposal(address[],uint256[],bytes[],bytes32)": "c59057e4",
			"name()": "06fdde03",
			"nonces(address)": "7ecebe00",
			"onERC1155BatchReceived(address,address,uint256[],uint256[],bytes)": "bc197c81",
			"onERC1155Received(address,address,uint256,uint256,bytes)": "f23a6e61",
			"onERC721Received(address,address,uint256,bytes)": "150b7a02",
			"proposalDeadline(uint256)": "c01f9e37",
			"proposalEta(uint256)": "ab58fb8e",
			"proposalNeedsQueuing(uint256)": "a9a95294",
			"proposalProposer(uint256)": "143489d0",
			"proposalSnapshot(uint256)": "2d63f693",
			"proposalThreshold()": "b58131b0",
			"proposalVotes(uint256)": "544ffc9c",
			"propose(address[],uint256[],bytes[],string)": "7d5e81e2",
			"queue(address[],uint256[],bytes[],bytes32)": "160cbed7",
			"quorum(uint256)": "f8ce560a",
			"quorumDenominator()": "97c3d334",
			"quorumNumerator()": "a7713a70",
			"quorumNumerator(uint256)": "60c4247f",
			"relay(address,uint256,bytes)": "c28bc2fa",
			"setProposalThreshold(uint256)": "ece40cc1",
			"setVotingDelay(uint48)": "79051887",
			"setVotingPeriod(uint32)": "e540d01d",
			"state(uint256)": "3e4f49e6",
			"supportsInterface(bytes4)": "01ffc9a7",
			"token()": "fc0c546a",
			"updateQuorumNumerator(uint256)": "06f3f9e6",
			"version()": "54fd4d50",
			"votingDelay()": "3932abb1",
			"votingPeriod()": "02a251a3"
		}
	},
	"abi": [
		{
			"inputs": [
				{
					"internalType": "contract IVotes",
					"name": "_token",
					"type": "address"
				}
			],
			"stateMutability": "nonpayable",
			"type": "constructor"
		},
		{
			"inputs": [],
			"name": "CheckpointUnorderedInsertion",
			"type": "error"
		},
		{
			"inputs": [],
			"name": "FailedCall",
			"type": "error"
		},
		{
			"inputs": [
				{
					"internalType": "address",
					"name": "voter",
					"type": "address"
				}
			],
			"name": "GovernorAlreadyCastVote",
			"type": "error"
		},
		{
			"inputs": [
				{
					"internalType": "uint256",
					"name": "proposalId",
					"type": "uint256"
				}
			],
			"name": "GovernorAlreadyQueuedProposal",
			"type": "error"
		},
		{
			"inputs": [],
			"name": "GovernorDisabledDeposit",
			"type": "error"
		},
		{
			"inputs": [
				{
					"internalType": "address",
					"name": "proposer",
					"type": "address"
				},
				{
					"internalType": "uint256",
					"name": "votes",
					"type": "uint256"
				},
				{
					"internalType": "uint256",
					"name": "threshold",
					"type": "uint256"
				}
			],
			"name": "GovernorInsufficientProposerVotes",
			"type": "error"
		},
		{
			"inputs": [
				{
					"internalType": "uint256",
					"name": "targets",
					"type": "uint256"
				},
				{
					"internalType": "uint256",
					"name": "calldatas",
					"type": "uint256"
				},
				{
					"internalType": "uint256",
					"name": "values",
					"type": "uint256"
				}
			],
			"name": "GovernorInvalidProposalLength",
			"type": "error"
		},
		{
			"inputs": [
				{
					"internalType": "uint256",
					"name": "quorumNumerator",
					"type": "uint256"
				},
				{
					"internalType": "uint256",
					"name": "quorumDenominator",
					"type": "uint256"
				}
			],
			"name": "GovernorInvalidQuorumFraction",
			"type": "error"
		},
		{
			"inputs": [
				{
					"internalType": "address",
					"name": "voter",
					"type": "address"
				}
			],
			"name": "GovernorInvalidSignature",
			"type": "error"
		},
		{
			"inputs": [],
			"name": "GovernorInvalidVoteParams",
			"type": "error"
		},
		{
			"inputs": [],
			"name": "GovernorInvalidVoteType",
			"type": "error"
		},
		{
			"inputs": [
				{
					"internalType": "uint256",
					"name": "votingPeriod",
					"type": "uint256"
				}
			],
			"name": "GovernorInvalidVotingPeriod",
			"type": "error"
		},
		{
			"inputs": [
				{
					"internalType": "uint256",
					"name": "proposalId",
					"type": "uint256"
				}
			],
			"name": "GovernorNonexistentProposal",
			"type": "error"
		},
		{
			"inputs": [
				{
					"internalType": "uint256",
					"name": "proposalId",
					"type": "uint256"
				}
			],
			"name": "GovernorNotQueuedProposal",
			"type": "error"
		},
		{
			"inputs": [
				{
					"internalType": "address",
					"name": "account",
					"type": "address"
				}
			],
			"name": "GovernorOnlyExecutor",
			"type": "error"
		},
		{
			"inputs": [],
			"name": "GovernorQueueNotImplemented",
			"type": "error"
		},
		{
			"inputs": [
				{
					"internalType": "address",
					"name": "proposer",
					"type": "address"
				}
			],
			"name": "GovernorRestrictedProposer",
			"type": "error"
		},
		{
			"inputs": [
				{
					"internalType": "uint256",
					"name": "proposalId",
					"type": "uint256"
				},
				{
					"internalType": "address",
					"name": "account",
					"type": "address"
				}
			],
			"name": "GovernorUnableToCancel",
			"type": "error"
		},
		{
			"inputs": [
				{
					"internalType": "uint256",
					"name": "proposalId",
					"type": "uint256"
				},
				{
					"internalType": "enum IGovernor.ProposalState",
					"name": "current",
					"type": "uint8"
				},
				{
					"internalType": "bytes32",
					"name": "expectedStates",
					"type": "bytes32"
				}
			],
			"name": "GovernorUnexpectedProposalState",
			"type": "error"
		},
		{
			"inputs": [
				{
					"internalType": "address",
					"name": "account",
					"type": "address"
				},
				{
					"internalType": "uint256",
					"name": "currentNonce",
					"type": "uint256"
				}
			],
			"name": "InvalidAccountNonce",
			"type": "error"
		},
		{
			"inputs": [],
			"name": "InvalidShortString",
			"type": "error"
		},
		{
			"inputs": [
				{
					"internalType": "uint8",
					"name": "bits",
					"type": "uint8"
				},
				{
					"internalType": "uint256",
					"name": "value",
					"type": "uint256"
				}
			],
			"name": "SafeCastOverflowedUintDowncast",
			"type": "error"
		},
		{
			"inputs": [
				{
					"internalType": "string",
					"name": "str",
					"type": "string"
				}
			],
			"name": "StringTooLong",
			"type": "error"
		},
		{
			"anonymous": false,
			"inputs": [],
			"name": "EIP712DomainChanged",
			"type": "event"
		},
		{
			"anonymous": false,
			"inputs": [
				{
					"indexed": false,
					"internalType": "uint256",
					"name": "proposalId",
					"type": "uint256"
				}
			],
			"name": "ProposalCanceled",
			"type": "event"
		},
		{
			"anonymous": false,
			"inputs": [
				{
					"indexed": false,
					"internalType": "uint256",
					"name": "proposalId",
					"type": "uint256"
				},
				{
					"indexed": false,
					"internalType": "address",
					"name": "proposer",
					"type": "address"
				},
				{
					"indexed": false,
					"internalType": "address[]",
					"name": "targets",
					"type": "address[]"
				},
				{
					"indexed": false,
					"internalType": "uint256[]",
					"name": "values",
					"type": "uint256[]"
				},
				{
					"indexed": false,
					"internalType": "string[]",
					"name": "signatures",
					"type": "string[]"
				},
				{
					"indexed": false,
					"internalType": "bytes[]",
					"name": "calldatas",
					"type": "bytes[]"
				},
				{
					"indexed": false,
					"internalType": "uint256",
					"name": "voteStart",
					"type": "uint256"
				},
				{
					"indexed": false,
					"internalType": "uint256",
					"name": "voteEnd",
					"type": "uint256"
				},
				{
					"indexed": false,
					"internalType": "string",
					"name": "description",
					"type": "string"
				}
			],
			"name": "ProposalCreated",
			"type": "event"
		},
		{
			"anonymous": false,
			"inputs": [
				{
					"indexed": false,
					"internalType": "uint256",
					"name": "proposalId",
					"type": "uint256"
				}
			],
			"name": "ProposalExecuted",
			"type": "event"
		},
		{
			"anonymous": false,
			"inputs": [
				{
					"indexed": false,
					"internalType": "uint256",
					"name": "proposalId",
					"type": "uint256"
				},
				{
					"indexed": false,
					"internalType": "uint256",
					"name": "etaSeconds",
					"type": "uint256"
				}
			],
			"name": "ProposalQueued",
			"type": "event"
		},
		{
			"anonymous": false,
			"inputs": [
				{
					"indexed": false,
					"internalType": "uint256",
					"name": "oldProposalThreshold",
					"type": "uint256"
				},
				{
					"indexed": false,
					"internalType": "uint256",
					"name": "newProposalThreshold",
					"type": "uint256"
				}
			],
			"name": "ProposalThresholdSet",
			"type": "event"
		},
		{
			"anonymous": false,
			"inputs": [
				{
					"indexed": false,
					"internalType": "uint256",
					"name": "oldQuorumNumerator",
					"type": "uint256"
				},
				{
					"indexed": false,
					"internalType": "uint256",
					"name": "newQuorumNumerator",
					"type": "uint256"
				}
			],
			"name": "QuorumNumeratorUpdated",
			"type": "event"
		},
		{
			"anonymous": false,
			"inputs": [
				{
					"indexed": true,
					"internalType": "address",
					"name": "voter",
					"type": "address"
				},
				{
					"indexed": false,
					"internalType": "uint256",
					"name": "proposalId",
					"type": "uint256"
				},
				{
					"indexed": false,
					"internalType": "uint8",
					"name": "support",
					"type": "uint8"
				},
				{
					"indexed": false,
					"internalType": "uint256",
					"name": "weight",
					"type": "uint256"
				},
				{
					"indexed": false,
					"internalType": "string",
					"name": "reason",
					"type": "string"
				}
			],
			"name": "VoteCast",
			"type": "event"
		},
		{
			"anonymous": false,
			"inputs": [
				{
					"indexed": true,
					"internalType": "address",
					"name": "voter",
					"type": "address"
				},
				{
					"indexed": false,
					"internalType": "uint256",
					"name": "proposalId",
					"type": "uint256"
				},
				{
					"indexed": false,
					"internalType": "uint8",
					"name": "support",
					"type": "uint8"
				},
				{
					"indexed": false,
					"internalType": "uint256",
					"name": "weight",
					"type": "uint256"
				},
				{
					"indexed": false,
					"internalType": "string",
					"name": "reason",
					"type": "string"
				},
				{
					"indexed": false,
					"internalType": "bytes",
					"name": "params",
					"type": "bytes"
				}
			],
			"name": "VoteCastWithParams",
			"type": "event"
		},
		{
			"anonymous": false,
			"inputs": [
				{
					"indexed": false,
					"internalType": "uint256",
					"name": "oldVotingDelay",
					"type": "uint256"
				},
				{
					"indexed": false,
					"internalType": "uint256",
					"name": "newVotingDelay",
					"type": "uint256"
				}
			],
			"name": "VotingDelaySet",
			"type": "event"
		},
		{
			"anonymous": false,
			"inputs": [
				{
					"indexed": false,
					"internalType": "uint256",
					"name": "oldVotingPeriod",
					"type": "uint256"
				},
				{
					"indexed": false,
					"internalType": "uint256",
					"name": "newVotingPeriod",
					"type": "uint256"
				}
			],
			"name": "VotingPeriodSet",
			"type": "event"
		},
		{
			"inputs": [],
			"name": "BALLOT_TYPEHASH",
			"outputs": [
				{
					"internalType": "bytes32",
					"name": "",
					"type": "bytes32"
				}
			],
			"stateMutability": "view",
			"type": "function"
		},
		{
			"inputs": [],
			"name": "CLOCK_MODE",
			"outputs": [
				{
					"internalType": "string",
					"name": "",
					"type": "string"
				}
			],
			"stateMutability": "view",
			"type": "function"
		},
		{
			"inputs": [],
			"name": "COUNTING_MODE",
			"outputs": [
				{
					"internalType": "string",
					"name": "",
					"type": "string"
				}
			],
			"stateMutability": "pure",
			"type": "function"
		},
		{
			"inputs": [],
			"name": "EXTENDED_BALLOT_TYPEHASH",
			"outputs": [
				{
					"internalType": "bytes32",
					"name": "",
					"type": "bytes32"
				}
			],
			"stateMutability": "view",
			"type": "function"
		},
		{
			"inputs": [
				{
					"internalType": "address[]",
					"name": "targets",
					"type": "address[]"
				},
				{
					"internalType": "uint256[]",
					"name": "values",
					"type": "uint256[]"
				},
				{
					"internalType": "bytes[]",
					"name": "calldatas",
					"type": "bytes[]"
				},
				{
					"internalType": "bytes32",
					"name": "descriptionHash",
					"type": "bytes32"
				}
			],
			"name": "cancel",
			"outputs": [
				{
					"internalType": "uint256",
					"name": "",
					"type": "uint256"
				}
			],
			"stateMutability": "nonpayable",
			"type": "function"
		},
		{
			"inputs": [
				{
					"internalType": "uint256",
					"name": "proposalId",
					"type": "uint256"
				},
				{
					"internalType": "uint8",
					"name": "support",
					"type": "uint8"
				}
			],
			"name": "castVote",
			"outputs": [
				{
					"internalType": "uint256",
					"name": "",
					"type": "uint256"
				}
			],
			"stateMutability": "nonpayable",
			"type": "function"
		},
		{
			"inputs": [
				{
					"internalType": "uint256",
					"name": "proposalId",
					"type": "uint256"
				},
				{
					"internalType": "uint8",
					"name": "support",
					"type": "uint8"
				},
				{
					"internalType": "address",
					"name": "voter",
					"type": "address"
				},
				{
					"internalType": "bytes",
					"name": "signature",
					"type": "bytes"
				}
			],
			"name": "castVoteBySig",
			"outputs": [
				{
					"internalType": "uint256",
					"name": "",
					"type": "uint256"
				}
			],
			"stateMutability": "nonpayable",
			"type": "function"
		},
		{
			"inputs": [
				{
					"internalType": "uint256",
					"name": "proposalId",
					"type": "uint256"
				},
				{
					"internalType": "uint8",
					"name": "support",
					"type": "uint8"
				},
				{
					"internalType": "string",
					"name": "reason",
					"type": "string"
				}
			],
			"name": "castVoteWithReason",
			"outputs": [
				{
					"internalType": "uint256",
					"name": "",
					"type": "uint256"
				}
			],
			"stateMutability": "nonpayable",
			"type": "function"
		},
		{
			"inputs": [
				{
					"internalType": "uint256",
					"name": "proposalId",
					"type": "uint256"
				},
				{
					"internalType": "uint8",
					"name": "support",
					"type": "uint8"
				},
				{
					"internalType": "string",
					"name": "reason",
					"type": "string"
				},
				{
					"internalType": "bytes",
					"name": "params",
					"type": "bytes"
				}
			],
			"name": "castVoteWithReasonAndParams",
			"outputs": [
				{
					"internalType": "uint256",
					"name": "",
					"type": "uint256"
				}
			],
			"stateMutability": "nonpayable",
			"type": "function"
		},
		{
			"inputs": [
				{
					"internalType": "uint256",
					"name": "proposalId",
					"type": "uint256"
				},
				{
					"internalType": "uint8",
					"name": "support",
					"type": "uint8"
				},
				{
					"internalType": "address",
					"name": "voter",
					"type": "address"
				},
				{
					"internalType": "string",
					"name": "reason",
					"type": "string"
				},
				{
					"internalType": "bytes",
					"name": "params",
					"type": "bytes"
				},
				{
					"internalType": "bytes",
					"name": "signature",
					"type": "bytes"
				}
			],
			"name": "castVoteWithReasonAndParamsBySig",
			"outputs": [
				{
					"internalType": "uint256",
					"name": "",
					"type": "uint256"
				}
			],
			"stateMutability": "nonpayable",
			"type": "function"
		},
		{
			"inputs": [],
			"name": "clock",
			"outputs": [
				{
					"internalType": "uint48",
					"name": "",
					"type": "uint48"
				}
			],
			"stateMutability": "view",
			"type": "function"
		},
		{
			"inputs": [],
			"name": "eip712Domain",
			"outputs": [
				{
					"internalType": "bytes1",
					"name": "fields",
					"type": "bytes1"
				},
				{
					"internalType": "string",
					"name": "name",
					"type": "string"
				},
				{
					"internalType": "string",
					"name": "version",
					"type": "string"
				},
				{
					"internalType": "uint256",
					"name": "chainId",
					"type": "uint256"
				},
				{
					"internalType": "address",
					"name": "verifyingContract",
					"type": "address"
				},
				{
					"internalType": "bytes32",
					"name": "salt",
					"type": "bytes32"
				},
				{
					"internalType": "uint256[]",
					"name": "extensions",
					"type": "uint256[]"
				}
			],
			"stateMutability": "view",
			"type": "function"
		},
		{
			"inputs": [
				{
					"internalType": "address[]",
					"name": "targets",
					"type": "address[]"
				},
				{
					"internalType": "uint256[]",
					"name": "values",
					"type": "uint256[]"
				},
				{
					"internalType": "bytes[]",
					"name": "calldatas",
					"type": "bytes[]"
				},
				{
					"internalType": "bytes32",
					"name": "descriptionHash",
					"type": "bytes32"
				}
			],
			"name": "execute",
			"outputs": [
				{
					"internalType": "uint256",
					"name": "",
					"type": "uint256"
				}
			],
			"stateMutability": "payable",
			"type": "function"
		},
		{
			"inputs": [
				{
					"internalType": "address[]",
					"name": "targets",
					"type": "address[]"
				},
				{
					"internalType": "uint256[]",
					"name": "values",
					"type": "uint256[]"
				},
				{
					"internalType": "bytes[]",
					"name": "calldatas",
					"type": "bytes[]"
				},
				{
					"internalType": "bytes32",
					"name": "descriptionHash",
					"type": "bytes32"
				}
			],
			"name": "getProposalId",
			"outputs": [
				{
					"internalType": "uint256",
					"name": "",
					"type": "uint256"
				}
			],
			"stateMutability": "view",
			"type": "function"
		},
		{
			"inputs": [
				{
					"internalType": "address",
					"name": "account",
					"type": "address"
				},
				{
					"internalType": "uint256",
					"name": "timepoint",
					"type": "uint256"
				}
			],
			"name": "getVotes",
			"outputs": [
				{
					"internalType": "uint256",
					"name": "",
					"type": "uint256"
				}
			],
			"stateMutability": "view",
			"type": "function"
		},
		{
			"inputs": [
				{
					"internalType": "address",
					"name": "account",
					"type": "address"
				},
				{
					"internalType": "uint256",
					"name": "timepoint",
					"type": "uint256"
				},
				{
					"internalType": "bytes",
					"name": "params",
					"type": "bytes"
				}
			],
			"name": "getVotesWithParams",
			"outputs": [
				{
					"internalType": "uint256",
					"name": "",
					"type": "uint256"
				}
			],
			"stateMutability": "view",
			"type": "function"
		},
		{
			"inputs": [
				{
					"internalType": "uint256",
					"name": "proposalId",
					"type": "uint256"
				},
				{
					"internalType": "address",
					"name": "account",
					"type": "address"
				}
			],
			"name": "hasVoted",
			"outputs": [
				{
					"internalType": "bool",
					"name": "",
					"type": "bool"
				}
			],
			"stateMutability": "view",
			"type": "function"
		},
		{
			"inputs": [
				{
					"internalType": "address[]",
					"name": "targets",
					"type": "address[]"
				},
				{
					"internalType": "uint256[]",
					"name": "values",
					"type": "uint256[]"
				},
				{
					"internalType": "bytes[]",
					"name": "calldatas",
					"type": "bytes[]"
				},
				{
					"internalType": "bytes32",
					"name": "descriptionHash",
					"type": "bytes32"
				}
			],
			"name": "hashProposal",
			"outputs": [
				{
					"internalType": "uint256",
					"name": "",
					"type": "uint256"
				}
			],
			"stateMutability": "pure",
			"type": "function"
		},
		{
			"inputs": [],
			"name": "name",
			"outputs": [
				{
					"internalType": "string",
					"name": "",
					"type": "string"
				}
			],
			"stateMutability": "view",
			"type": "function"
		},
		{
			"inputs": [
				{
					"internalType": "address",
					"name": "owner",
					"type": "address"
				}
			],
			"name": "nonces",
			"outputs": [
				{
					"internalType": "uint256",
					"name": "",
					"type": "uint256"
				}
			],
			"stateMutability": "view",
			"type": "function"
		},
		{
			"inputs": [
				{
					"internalType": "address",
					"name": "",
					"type": "address"
				},
				{
					"internalType": "address",
					"name": "",
					"type": "address"
				},
				{
					"internalType": "uint256[]",
					"name": "",
					"type": "uint256[]"
				},
				{
					"internalType": "uint256[]",
					"name": "",
					"type": "uint256[]"
				},
				{
					"internalType": "bytes",
					"name": "",
					"type": "bytes"
				}
			],
			"name": "onERC1155BatchReceived",
			"outputs": [
				{
					"internalType": "bytes4",
					"name": "",
					"type": "bytes4"
				}
			],
			"stateMutability": "nonpayable",
			"type": "function"
		},
		{
			"inputs": [
				{
					"internalType": "address",
					"name": "",
					"type": "address"
				},
				{
					"internalType": "address",
					"name": "",
					"type": "address"
				},
				{
					"internalType": "uint256",
					"name": "",
					"type": "uint256"
				},
				{
					"internalType": "uint256",
					"name": "",
					"type": "uint256"
				},
				{
					"internalType": "bytes",
					"name": "",
					"type": "bytes"
				}
			],
			"name": "onERC1155Received",
			"outputs": [
				{
					"internalType": "bytes4",
					"name": "",
					"type": "bytes4"
				}
			],
			"stateMutability": "nonpayable",
			"type": "function"
		},
		{
			"inputs": [
				{
					"internalType": "address",
					"name": "",
					"type": "address"
				},
				{
					"internalType": "address",
					"name": "",
					"type": "address"
				},
				{
					"internalType": "uint256",
					"name": "",
					"type": "uint256"
				},
				{
					"internalType": "bytes",
					"name": "",
					"type": "bytes"
				}
			],
			"name": "onERC721Received",
			"outputs": [
				{
					"internalType": "bytes4",
					"name": "",
					"type": "bytes4"
				}
			],
			"stateMutability": "nonpayable",
			"type": "function"
		},
		{
			"inputs": [
				{
					"internalType": "uint256",
					"name": "proposalId",
					"type": "uint256"
				}
			],
			"name": "proposalDeadline",
			"outputs": [
				{
					"internalType": "uint256",
					"name": "",
					"type": "uint256"
				}
			],
			"stateMutability": "view",
			"type": "function"
		},
		{
			"inputs": [
				{
					"internalType": "uint256",
					"name": "proposalId",
					"type": "uint256"
				}
			],
			"name": "proposalEta",
			"outputs": [
				{
					"internalType": "uint256",
					"name": "",
					"type": "uint256"
				}
			],
			"stateMutability": "view",
			"type": "function"
		},
		{
			"inputs": [
				{
					"internalType": "uint256",
					"name": "",
					"type": "uint256"
				}
			],
			"name": "proposalNeedsQueuing",
			"outputs": [
				{
					"internalType": "bool",
					"name": "",
					"type": "bool"
				}
			],
			"stateMutability": "view",
			"type": "function"
		},
		{
			"inputs": [
				{
					"internalType": "uint256",
					"name": "proposalId",
					"type": "uint256"
				}
			],
			"name": "proposalProposer",
			"outputs": [
				{
					"internalType": "address",
					"name": "",
					"type": "address"
				}
			],
			"stateMutability": "view",
			"type": "function"
		},
		{
			"inputs": [
				{
					"internalType": "uint256",
					"name": "proposalId",
					"type": "uint256"
				}
			],
			"name": "proposalSnapshot",
			"outputs": [
				{
					"internalType": "uint256",
					"name": "",
					"type": "uint256"
				}
			],
			"stateMutability": "view",
			"type": "function"
		},
		{
			"inputs": [],
			"name": "proposalThreshold",
			"outputs": [
				{
					"internalType": "uint256",
					"name": "",
					"type": "uint256"
				}
			],
			"stateMutability": "view",
			"type": "function"
		},
		{
			"inputs": [
				{
					"internalType": "uint256",
					"name": "proposalId",
					"type": "uint256"
				}
			],
			"name": "proposalVotes",
			"outputs": [
				{
					"internalType": "uint256",
					"name": "againstVotes",
					"type": "uint256"
				},
				{
					"internalType": "uint256",
					"name": "forVotes",
					"type": "uint256"
				},
				{
					"internalType": "uint256",
					"name": "abstainVotes",
					"type": "uint256"
				}
			],
			"stateMutability": "view",
			"type": "function"
		},
		{
			"inputs": [
				{
					"internalType": "address[]",
					"name": "targets",
					"type": "address[]"
				},
				{
					"internalType": "uint256[]",
					"name": "values",
					"type": "uint256[]"
				},
				{
					"internalType": "bytes[]",
					"name": "calldatas",
					"type": "bytes[]"
				},
				{
					"internalType": "string",
					"name": "description",
					"type": "string"
				}
			],
			"name": "propose",
			"outputs": [
				{
					"internalType": "uint256",
					"name": "",
					"type": "uint256"
				}
			],
			"stateMutability": "nonpayable",
			"type": "function"
		},
		{
			"inputs": [
				{
					"internalType": "address[]",
					"name": "targets",
					"type": "address[]"
				},
				{
					"internalType": "uint256[]",
					"name": "values",
					"type": "uint256[]"
				},
				{
					"internalType": "bytes[]",
					"name": "calldatas",
					"type": "bytes[]"
				},
				{
					"internalType": "bytes32",
					"name": "descriptionHash",
					"type": "bytes32"
				}
			],
			"name": "queue",
			"outputs": [
				{
					"internalType": "uint256",
					"name": "",
					"type": "uint256"
				}
			],
			"stateMutability": "nonpayable",
			"type": "function"
		},
		{
			"inputs": [
				{
					"internalType": "uint256",
					"name": "blockNumber",
					"type": "uint256"
				}
			],
			"name": "quorum",
			"outputs": [
				{
					"internalType": "uint256",
					"name": "",
					"type": "uint256"
				}
			],
			"stateMutability": "view",
			"type": "function"
		},
		{
			"inputs": [],
			"name": "quorumDenominator",
			"outputs": [
				{
					"internalType": "uint256",
					"name": "",
					"type": "uint256"
				}
			],
			"stateMutability": "view",
			"type": "function"
		},
		{
			"inputs": [
				{
					"internalType": "uint256",
					"name": "timepoint",
					"type": "uint256"
				}
			],
			"name": "quorumNumerator",
			"outputs": [
				{
					"internalType": "uint256",
					"name": "",
					"type": "uint256"
				}
			],
			"stateMutability": "view",
			"type": "function"
		},
		{
			"inputs": [],
			"name": "quorumNumerator",
			"outputs": [
				{
					"internalType": "uint256",
					"name": "",
					"type": "uint256"
				}
			],
			"stateMutability": "view",
			"type": "function"
		},
		{
			"inputs": [
				{
					"internalType": "address",
					"name": "target",
					"type": "address"
				},
				{
					"internalType": "uint256",
					"name": "value",
					"type": "uint256"
				},
				{
					"internalType": "bytes",
					"name": "data",
					"type": "bytes"
				}
			],
			"name": "relay",
			"outputs": [],
			"stateMutability": "payable",
			"type": "function"
		},
		{
			"inputs": [
				{
					"internalType": "uint256",
					"name": "newProposalThreshold",
					"type": "uint256"
				}
			],
			"name": "setProposalThreshold",
			"outputs": [],
			"stateMutability": "nonpayable",
			"type": "function"
		},
		{
			"inputs": [
				{
					"internalType": "uint48",
					"name": "newVotingDelay",
					"type": "uint48"
				}
			],
			"name": "setVotingDelay",
			"outputs": [],
			"stateMutability": "nonpayable",
			"type": "function"
		},
		{
			"inputs": [
				{
					"internalType": "uint32",
					"name": "newVotingPeriod",
					"type": "uint32"
				}
			],
			"name": "setVotingPeriod",
			"outputs": [],
			"stateMutability": "nonpayable",
			"type": "function"
		},
		{
			"inputs": [
				{
					"internalType": "uint256",
					"name": "proposalId",
					"type": "uint256"
				}
			],
			"name": "state",
			"outputs": [
				{
					"internalType": "enum IGovernor.ProposalState",
					"name": "",
					"type": "uint8"
				}
			],
			"stateMutability": "view",
			"type": "function"
		},
		{
			"inputs": [
				{
					"internalType": "bytes4",
					"name": "interfaceId",
					"type": "bytes4"
				}
			],
			"name": "supportsInterface",
			"outputs": [
				{
					"internalType": "bool",
					"name": "",
					"type": "bool"
				}
			],
			"stateMutability": "view",
			"type": "function"
		},
		{
			"inputs": [],
			"name": "token",
			"outputs": [
				{
					"internalType": "contract IERC5805",
					"name": "",
					"type": "address"
				}
			],
			"stateMutability": "view",
			"type": "function"
		},
		{
			"inputs": [
				{
					"internalType": "uint256",
					"name": "newQuorumNumerator",
					"type": "uint256"
				}
			],
			"name": "updateQuorumNumerator",
			"outputs": [],
			"stateMutability": "nonpayable",
			"type": "function"
		},
		{
			"inputs": [],
			"name": "version",
			"outputs": [
				{
					"internalType": "string",
					"name": "",
					"type": "string"
				}
			],
			"stateMutability": "view",
			"type": "function"
		},
		{
			"inputs": [],
			"name": "votingDelay",
			"outputs": [
				{
					"internalType": "uint256",
					"name": "",
					"type": "uint256"
				}
			],
			"stateMutability": "view",
			"type": "function"
		},
		{
			"inputs": [],
			"name": "votingPeriod",
			"outputs": [
				{
					"internalType": "uint256",
					"name": "",
					"type": "uint256"
				}
			],
			"stateMutability": "view",
			"type": "function"
		},
		{
			"stateMutability": "payable",
			"type": "receive"
		}
	]
}